S0170000446562756720496E746572666163652E7372656375
S1130000FDC000000DC100000BC1000009C10000CB
S113001007C1000005C1000003C1000001C10000C8
S1130020FFC00000FDC00000FBC00000F9C00000DC
S1130030F7C0000089C10000F3C00000F1C0000057
S1130040EFC00000EDC00000EBC00000E9C00000FC
S1130050E7C00000E5C00000E3C00000E1C000000C
S1130060DFC00000DDC00000DBC00000D9C000001C
S1130070D7C00000D5C00000D3C00000D1C000002C
S1130080CFC00000CDC00000CBC00000C9C000003C
S1130090C7C00000C5C00000C3C00000C1C000004C
S11300A0BFC00000BDC00000BBC00000B9C000005C
S11300B0B7C00000B5C000006EC10000B1C00000B0
S11300C0AFC00000ADC00000ABC00000A9C000007C
S11300D0A7C00000A5C00000A3C00000A1C000008C
S11300E09FC000009DC000009BC0000099C000009C
S11300F097C0000095C0000093C0000091C00000AC
S11301008FC000008DC000008BC0000089C00000BB
S113011087C0000085C0000083C0000081C00000CB
S11301207FC000007DC000007BC0000079C00000DB
S113013077C0000075C0000073C0000071C00000EB
S11301406FC000006DC000006BC0000069C00000FB
S113015067C0000065C0000063C0000061C000000B
S11301605FC000005DC000005BC0000059C000001B
S113017057C0000055C0000053C0000051C000002B
S11301804FC000004DC000004BC0000049C000003B
S113019047C0000045C0000043C0000041C000004B
S11301A03FC000003DC000003BC0000039C000005B
S11301B037C0000035C0000033C0000031C000006B
S11301C02FC000002DC000002BC0000029C000007B
S11301D027C0000025C0000023C0000021C000008B
S11301E01FC000001DC000001BC0000019C000009B
S11301F017C0000015C0000013C0000011241FBE6A
S1130200CFEFCDBFDFE5DEBF00E00CBF20E2A0E012
S1130210B0E201C01D92AB30B207E1F7E3D0F3C006
S1130220EFCECF93DF93E0910020F0910120848101
S113023083FF06C08860848383E0838386EF7FC066
S1130240982F947121F083E083838FEF78C086FF29
S113025041C0A0910220B09103208091042090918C
S1130260052014962D913C9115978217930764F4F9
S11302709C012F5F3F4F2093042030930520A80F4B
S1130280B91F11968C9122C080910620909107206D
S113029018962D913C91199782179307C8F42091D1
S11302A00820222321F08681816086834AC0169625
S11302B02D913C911797AC014F5F5F4F40930620FF
S11302C050930720D901A80FB91F8C91878339C097
S11302D083E02CC087FF32C0A0910220B09103209C
S11302E0809106209091072018962D913C911997A2
S11302F082179307F8F416966D917C9117979C01D9
S11303002F5F3F4F20930620309307204781EB0156
S1130310C80FD91F488318968D919C911997281757
S1130320390718F482E083830CC087E0838310923A
S11303300A2007C083E0838389EF01C08BEF809399
S11303400A20DF91CF9108951F920F920FB60F925A
S113035011240BB60F922F933F934F935F936F9398
S11303607F938F939F93AF93BF93EF93FF9359DF43
S1130370FF91EF91BF91AF919F918F917F916F9179
S11303805F914F913F912F910F900BBE0F900FBE35
S11303900F901F9018951F920F920FB60F92112471
S11303A00BB60F922F933F934F935F936F937F936B
S11303B08F939F93AF93BF93EF93FF9332DFFF919C
S11303C0EF91BF91AF919F918F917F916F915F91C9
S11303D04F913F912F910F900BBE0F900FBE0F9036
S11303E01F90189587E08093A2008BEC8093A5045E
S11303F081E08093A20488EF8093A104789483E041
S10D04008093A604FFCFF894FFCF09
S9030000FC
