S00C00004E6F64652E7372656392
S11300000C9400010C9426010C9426010C942601F6
S11300100C9426010C9426010C9426010C942601C0
S11300200C9426010C9426010C9426010C94FE02D7
S11300300C9426010C9426010C9426010C942601A0
S11300400C9426010C9426010C9426010C94260190
S11300500C9426010C9426010C9426010C94260180
S11300600C9426010C9426010C9426010C94260170
S11300700C9426010C9426010C9426010C94260160
S11300800C9426010C9426010C9426010C94260150
S11300900C9426010C9426010C9426010C94260140
S11300A00C9426010C9426010C9426010C94260130
S11300B00C9426010C9426010C9426010C94260120
S11300C00C9426010C9426010C9426010C94260110
S11300D00C9426010C9426010C9426010C94260100
S11300E00C9426010C9426010C9426010C942601F0
S11300F00C9426010C9426010C9426010C942601E0
S11301000C9426010C9426010C9426010C942601CF
S11301100C9426010C9426010C9426010C942601BF
S11301200C9426010C9426010C9426010C942601AF
S11301300C9426010C9426010C9426010C9426019F
S11301400C9426010C9426010C9426010C9426018F
S11301500C9426010C9426010C9426010C9426017F
S11301600C9426010C9426010C9426010C9426016F
S11301700C9426010C9426010C9426010C9426015F
S11301800C9426010C9426010C9426010C9426014F
S11301900C9426010C9426010C9426010C9426013F
S11301A00C9426010C9426010C9426010C9426012F
S11301B00C9426010C9426010C9426010C9426011F
S11301C00C9426010C9426010C9426010C9426010F
S11301D00C9426010C9426010C9426010C942601FF
S11301E00C9426010C9426010C9426010C942601EF
S11301F00C9426010C9426010C9426010C942801DD
S113020011241FBECFEFCDBFDFE3DEBF00E00CBF84
S113021018BE19BE1ABE1BBE14E2A0E0B0E2E2E1B1
S1130220F0E100E00BBF02C007900D92A833B107C4
S1130230D9F71BBE24E2A8E3B4E201C01D92A8359D
S1130240B207E1F70E9469010C9407080C940000BE
S11302500F931F93CF93DF93CDB7DEB7C058D10967
S1130260CDBFDEBF182F0E9409021F921F939F93D8
S11302708F937F936F9386E094E29F938F938E0185
S11302800F5F1F4F1F930F930E943C05B80186E038
S113029090E20E941D05809138248F5F809338245A
S11302A080913824CDBFDEBF843019F481E080937F
S11302B03A2480913824853018F081E080933924E1
S11302C0C058DF4FCDBFDEBFDF91CF911F910F919B
S11302D008950E94B10148E251E064E670E080E0D4
S11302E090E00E944402CBE3D4E2888348E251E0E8
S11302F068EC70E080E090E00E944402898348E268
S113030051E062E370E080E090E00E9444028A835E
S113031048E251E068EE73E080E090E00E9444021D
S11303208B837894C6E0D0E204E214E280913A240C
S1130330813041F4DF93CF930E94280510923A2430
S11303400F900F9080913924813081F71F930F9380
S11303500E9428058BE294E20E9440030F900F90C4
S1130360E5CF0E94BB010E94CD010E944F0387E8A4
S11303708093A200089586E080935000E0E5F0E0C9
S1130380818186708630E1F788ED84BFE0E4F0E097
S113039081E0808385E083830895CF93DF93CDB795
S11303A0DEB7C857D109CDBFDEBF84E494E20E9412
S11303B07F038FE394E20E94C50320E034E04FEF13
S11303C05FEFF9014287538788E0809380018CE3D3
S11303D0E0E4F8E0DE01DD9601900D928A95E1F704
S11303E08DAD807F88608DAF8CE3E0E4F8E0DE01C2
S11303F0119601900D928A95E1F74FA358A781E0D9
S1130400F9018083C858DF4FCDBFDEBFDF91CF91A4
S113041008950F931F9380910804909109044091CB
S113042060085091610860E070E0BA0155274427E4
S1130430A0E0B0E08A019B01082B192B2A2B3B2B4F
S1130440C901B8011F910F910895E0913F24F091E3
S1130450402494E2EF33F90771F09481981789F0FE
S11304600190F081E02D94E2EF33F90739F09481A3
S11304709813F6CF06C080E090E0089580E090E005
S113048008958E2F9F2F0895BF92CF92DF92EF92FF
S1130490FF920F931F93CF93DF936B307105810508
S11304A0910508F442C08A016B017C01BFB6F8943F
S11304B08BE090E00E94F003EC010D831E8384E442
S11304C094E20E9485038C83882369F10E940902C7
S11304D0DC01CB018C0D9D1DAE1DBF1D8F83988744
S11304E0A987BA87C0900C04D0900D04E12CF12C9C
S11304F08C159D05AE05BF0530F020910C0430919C
S11305000D04232B51F4E0E0F4E0848795878C817B
S113051080934324828184608283BE018FE394E2CA
S11305200E94CB038C81BFBE01C080E0DF91CF91DC
S11305301F910F91FF90EF90DF90CF90BF9008959F
S1130540CF93DF93E0913F24F091402484E2EF3392
S1130550F807D9F0C0E0D4E08C859D8547815085AB
S113056061857285A0E0B0E0481759076A077B07E8
S113057028F44C875D878481809343240190F08123
S1130580E02D84E2EF33F80739F7DF91CF91089536
S11305901F93CF93DF930E942502EC01009751F142
S11305A01FB7F8940E94DC0380913F24909140246B
S11305B08F53944251F4E0E0F4E08281837F82839C
S11305C0148615861092432411C040910C04509156
S11305D00D0460E070E08F819885A985BA8548177D
S11305E059076A077B0711F40E94A002CE010E94FA
S11305F085041FBFDF91CF911F9108951F920F9221
S11306000FB60F92112408B60F9218BE09B60F92B6
S113061019BE0BB60F921BBE2F933F934F935F935C
S11306206F937F938F939F93AF93BF93EF93FF93B6
S1130630809143240E94250220914324DC011596D5
S1130640ED91FC911697822F1995809143240E9475
S1130650C802FF91EF91BF91AF919F918F917F91CC
S11306606F915F914F913F912F910F900BBE0F901F
S113067009BE0F9008BE0F900FBE0F901F901895E3
S1130680F894E0EAF0E08281807882830000000040
S1130690F89488ED84BF81E0809379000895CF9326
S11306A0DF9388E494E20E947F038FE090E00E944D
S11306B0F003EC0180934C2490934D2488E494E25D
S11306C00E9485038883E0914C24F0914D24128686
S11306D01186CF0101960E94C50380914C2490910C
S11306E04D2405960E94C503E0914C24F0914D24BD
S11306F01386148615861686DF91CF910895FC0122
S113070010821182128213820895CF93DF93EC0139
S1130710FC0190E021912F3F51F59F5F9430D1F778
S113072024C0622FAF01022E02C0559547950A944A
S1130730E2F740FD13C0AC0FBD1F21E030E0062EF0
S113074002C0220F331F0A94E2F7282B2C93990F2F
S1130750990F990F9F5F892F860F14C02F5F3F4F0A
S113076028303105F1F680E00DC080E00BC0A92FE0
S1130770B0E0FE01EA0FFB1F8081E82FF0E020E0EB
S113078030E0CFCFDF91CF910895FC018083918336
S1130790828393830895FC0182819381DB01129605
S11307A08D939C931397ED93FC93A281B3816D93E6
S11307B07C93628373830895FC01A281B381808159
S11307C091818D939C93A081B181828193811296B2
S11307D08D939C931397E283F383E083F1830895CD
S11307E0CF93DF938230910510F482E090E0E091A2
S11307F05024F091512420E030E0C0E0D0E0309764
S113080011F14081518148175907C0F04817590721
S113081061F482819381209719F08A839B832BC092
S1130820809350249093512426C02115310519F04A
S11308304217530718F49A01BE01DF01EF01028049
S1130840F381E02DDCCF2115310509F1281B390B8B
S11308502430310590F412968D919C911397611573
S1130860710521F0FB018283938304C0809350249B
S113087090935124FD01329644C0FD01E20FF31F11
S113088081939193225031092D933C933AC0209146
S11308904E2430914F24232B41F420910220309197
S11308A0032020934E2430934F2420910020309134
S11308B001202115310541F42DB73EB740910420A4
S11308C050910520241B350BE0914E24F0914F24C8
S11308D0E217F307A0F42E1B3F0B2817390778F013
S11308E0AC014E5F5F4F2417350748F04E0F5F1F72
S11308F040934E2450934F248193919302C0E0E09F
S1130900F0E0CF01DF91CF9108950F931F93CF9320
S1130910DF93009709F48CC0FC0132971282138292
S113092000915024109151240115110581F4208166
S11309303181820F931F20914E2430914F24281728
S1130940390779F5E0934E24F0934F2471C0D80110
S113095040E050E0AE17BF0750F412962D913C9141
S11309601397AD012115310509F1D901F3CF9D018B
S1130970DA012283338360817181860F971F821786
S1130980930769F4EC0128813981260F371F2E5F04
S11309903F4F208331838A819B8182839383452BBC
S11309A029F4E0935024F093512442C01296ED931D
S11309B0FC931397ED01499159919E01240F351F22
S11309C0E217F30771F480819181840F951F0296D9
S11309D08D939C9311978281938112968D939C930E
S11309E01397E0E0F0E0D80112968D919C91139753
S11309F0009719F0F8018C01F6CF8D919C91980124
S1130A002E5F3F4F820F931F20914E2430914F242D
S1130A102817390769F4309729F41092502410925A
S1130A20512402C01282138200934E2410934F2447
S1130A30DF91CF911F910F910895FB01DC010D907F
S1130A400020E9F7119701900D920020E1F7089535
S1130A50CF93DF93CDB7DEB7AE014A5F5F4FFA01A4
S1130A6061917191AF0180915424909155240E9419
S1130A706605DF91CF9108950F931F93CF93DF9372
S1130A80CDB7DEB72E97CDBFDEBF0E891F8986E0B6
S1130A908C8309831A838FEF9FE78D839E83AE0136
S1130AA0465E5F4F688D798DCE0101960E94660582
S1130AB02F813885F801E20FF31F10822E96CDBFE7
S1130AC0DEBFDF91CF911F910F9108952F923F9236
S1130AD04F925F926F927F928F929F92AF92BF924A
S1130AE0CF92DF92EF92FF920F931F93CF93DF93F6
S1130AF0CDB7DEB72C97CDBFDEBF7C016B018A0179
S1130B00FC0116821782838181FFBDC1CE0101964B
S1130B104C01F7019381F60193FD859193FF819137
S1130B206F01882309F4ABC1853239F493FD8591B3
S1130B3093FF81916F01853229F4B70190E00E94FF
S1130B407107E7CF512C312C20E02032A0F48B32F6
S1130B5069F030F4803259F0833269F420612CC09A
S1130B608D3239F0803339F4216026C0226024604C
S1130B7023C0286021C027FD27C030ED380F3A304C
S1130B8078F426FF06C0FAE05F9E300D1124532E40
S1130B9013C08AE0389E300D1124332E20620CC01D
S1130BA08E3221F426FD6BC1206406C08C3611F40C
S1130BB0206802C0883641F4F60193FD859193FFC5
S1130BC081916F018111C1CF982F9F7D95549330EE
S1130BD028F40C5F1F4FFFE3F9830DC0833631F017
S1130BE0833771F0833509F05BC022C0F80180813E
S1130BF089830E5F1F4F44244394512C540115C024
S1130C003801F2E06F0E711CF801A080B18026FF5C
S1130C1003C0652D70E002C06FEF7FEFC5012C8724
S1130C200E9466072C0183012C852F77222E17C082
S1130C303801F2E06F0E711CF801A080B18026FF2C
S1130C4003C0652D70E002C06FEF7FEFC5012C87F4
S1130C500E945B072C012C852068222E830123FC33
S1130C601BC0832D90E048165906B0F4B70180E20A
S1130C7090E00E9471073A94F4CFF50127FC859126
S1130C8027FE81915F01B70190E00E947107311046
S1130C903A94F1E04F1A51084114510471F7E5C038
S1130CA0843611F0893639F5F80127FF07C06081D1
S1130CB07181828193810C5F1F4F08C060817181B3
S1130CC0072E000C880B990B0E5F1F4F2F76722E88
S1130CD097FF09C090958095709561957F4F8F4FD0
S1130CE09F4F2068722E2AE030E0A4010E94A907D9
S1130CF0A82EA81844C0853729F42F7EB22E2AE0E6
S1130D0030E025C0F22FF97FBF2E8F36C1F018F4E2
S1130D10883579F0B4C0803719F0883721F0AFC036
S1130D202F2F2061B22EB4FE0DC08B2D8460B82EFF
S1130D3009C024FF0AC09F2F9660B92E06C028E080
S1130D4030E005C020E130E002C020E132E0F801EB
S1130D50B7FE07C060817181828193810C5F1F4F50
S1130D6006C06081718180E090E00E5F1F4FA40196
S1130D700E94A907A82EA818FB2DFF777F2E76FEC8
S1130D800BC0372D3E7FA51450F474FE0AC072FCCC
S1130D9008C0372D3E7E05C0BA2C372D03C0BA2CAF
S1130DA001C0B52C34FF0DC0FE01EA0DF11D808198
S1130DB0803311F4397E09C032FF06C0B394B39472
S1130DC004C0832F867809F0B39433FD13C030FF39
S1130DD006C05A2CB31418F4530C5B18B32CB31478
S1130DE068F4B70180E290E03C870E947107B394F5
S1130DF03C85F5CFB31410F43B1801C0312C34FFFB
S1130E0012C0B70180E390E03C870E9471073C85E3
S1130E1032FF17C031FD03C088E790E002C088E5C7
S1130E2090E0B7010CC0832F867859F031FF02C0DF
S1130E308BE201C080E237FD8DE2B70190E00E94B1
S1130E407107A51438F4B70180E390E00E9471079C
S1130E505A94F7CFAA94F401EA0DF11D8081B701E9
S1130E6090E00E947107A110F5CF332009F451CE10
S1130E70B70180E290E00E9471073A94F6CFF7013F
S1130E808681978102C08FEF9FEF2C96CDBFDEBF86
S1130E90DF91CF911F910F91FF90EF90DF90CF9052
S1130EA0BF90AF909F908F907F906F905F904F9086
S1130EB03F902F900895FC010590615070400110FF
S1130EC0D8F7809590958E0F9F1F0895FC0161506F
S1130ED0704001900110D8F7809590958E0F9F1F58
S1130EE008950F931F93CF93DF93FB01238121FD7B
S1130EF003C08FEF9FEF28C022FF16C046815781A1
S1130F00248135814217530744F4A081B1819D01A6
S1130F102F5F3F4F208331838C93268137812F5F4E
S1130F203F4F2683378310C0EB01092F182F00840D
S1130F30F185E02D1995892BE1F68E819F8101962B
S1130F408E839F83812F902FDF91CF911F910F91DB
S1130F500895FA01AA27283051F1203181F1E8944B
S1130F606F936E7F6E5F7F4F8F4F9F4FAF4FB1E098
S1130F703ED0B4E03CD0670F781F891F9A1FA11D93
S1130F80680F791F8A1F911DA11D6A0F711D811D94
S1130F90911DA11D20D009F468943F912AE0269F59
S1130FA011243019305D3193DEF6CF010895462FB8
S1130FB04770405D4193B3E00FD0C9F7F6CF462F99
S1130FC04F70405D4A3318F0495D31FD4052419302
S1130FD002D0A9F7EACFB4E0A695979587957795BF
S1130FE06795BA95C9F700976105710508959B0146
S1130FF0AC010A2E06945795479537952795BA95CF
S1131000C9F7620F731F841F951FA01D0895F894DC
S1051010FFCF0C
S11310120000582420005374617274200A000000F6
S113102200000000000000000000000000000000BA
S113103200000000000000000000000000000000AA
S1131042000000000000000000000000000000009A
S1131052000000000000000000000000000000008A
S11314120000000000002D3E2043616C6C62616399
S11314226B206174202569207769746820696420BF
S113143225690A004641494C4544004572726F725F
S10B144220696E20727463003E
S9030000FC
