Archive member included to satisfy reference by file (symbol)

c:/program files (x86)/atmel/studio/7.0/toolchain/avr8/avr8-gnu-toolchain/bin/../lib/gcc/avr/4.9.2/avrxmega7\libgcc.a(_exit.o)
                              C:/Program Files (x86)/Atmel/Studio/7.0/Packs/atmel/XMEGAA_DFP/1.0.38/gcc/dev/atxmega128a1u/avrxmega7/crtatxmega128a1u.o (exit)
c:/program files (x86)/atmel/studio/7.0/toolchain/avr8/avr8-gnu-toolchain/bin/../lib/gcc/avr/4.9.2/avrxmega7\libgcc.a(_copy_data.o)
                              main.o (__do_copy_data)
c:/program files (x86)/atmel/studio/7.0/toolchain/avr8/avr8-gnu-toolchain/bin/../lib/gcc/avr/4.9.2/avrxmega7\libgcc.a(_clear_bss.o)
                              main.o (__do_clear_bss)
c:/program files (x86)/atmel/studio/7.0/toolchain/avr8/avr8-gnu-toolchain/bin/../lib/gcc/avr/4.9.2/../../../../avr/lib/avrxmega7\libc.a(malloc.o)
                              system/drivers/RTC.o (malloc)
c:/program files (x86)/atmel/studio/7.0/toolchain/avr8/avr8-gnu-toolchain/bin/../lib/gcc/avr/4.9.2/../../../../avr/lib/avrxmega7\libc.a(strcat.o)
                              main.o (strcat)
c:/program files (x86)/atmel/studio/7.0/toolchain/avr8/avr8-gnu-toolchain/bin/../lib/gcc/avr/4.9.2/../../../../avr/lib/avrxmega7\libc.a(printf.o)
                              main.o (printf)
c:/program files (x86)/atmel/studio/7.0/toolchain/avr8/avr8-gnu-toolchain/bin/../lib/gcc/avr/4.9.2/../../../../avr/lib/avrxmega7\libc.a(sprintf.o)
                              main.o (sprintf)
c:/program files (x86)/atmel/studio/7.0/toolchain/avr8/avr8-gnu-toolchain/bin/../lib/gcc/avr/4.9.2/../../../../avr/lib/avrxmega7\libc.a(vfprintf_std.o)
                              c:/program files (x86)/atmel/studio/7.0/toolchain/avr8/avr8-gnu-toolchain/bin/../lib/gcc/avr/4.9.2/../../../../avr/lib/avrxmega7\libc.a(printf.o) (vfprintf)
c:/program files (x86)/atmel/studio/7.0/toolchain/avr8/avr8-gnu-toolchain/bin/../lib/gcc/avr/4.9.2/../../../../avr/lib/avrxmega7\libc.a(strnlen_P.o)
                              c:/program files (x86)/atmel/studio/7.0/toolchain/avr8/avr8-gnu-toolchain/bin/../lib/gcc/avr/4.9.2/../../../../avr/lib/avrxmega7\libc.a(vfprintf_std.o) (strnlen_P)
c:/program files (x86)/atmel/studio/7.0/toolchain/avr8/avr8-gnu-toolchain/bin/../lib/gcc/avr/4.9.2/../../../../avr/lib/avrxmega7\libc.a(strnlen.o)
                              c:/program files (x86)/atmel/studio/7.0/toolchain/avr8/avr8-gnu-toolchain/bin/../lib/gcc/avr/4.9.2/../../../../avr/lib/avrxmega7\libc.a(vfprintf_std.o) (strnlen)
c:/program files (x86)/atmel/studio/7.0/toolchain/avr8/avr8-gnu-toolchain/bin/../lib/gcc/avr/4.9.2/../../../../avr/lib/avrxmega7\libc.a(fputc.o)
                              c:/program files (x86)/atmel/studio/7.0/toolchain/avr8/avr8-gnu-toolchain/bin/../lib/gcc/avr/4.9.2/../../../../avr/lib/avrxmega7\libc.a(vfprintf_std.o) (fputc)
c:/program files (x86)/atmel/studio/7.0/toolchain/avr8/avr8-gnu-toolchain/bin/../lib/gcc/avr/4.9.2/../../../../avr/lib/avrxmega7\libc.a(iob.o)
                              c:/program files (x86)/atmel/studio/7.0/toolchain/avr8/avr8-gnu-toolchain/bin/../lib/gcc/avr/4.9.2/../../../../avr/lib/avrxmega7\libc.a(printf.o) (__iob)
c:/program files (x86)/atmel/studio/7.0/toolchain/avr8/avr8-gnu-toolchain/bin/../lib/gcc/avr/4.9.2/../../../../avr/lib/avrxmega7\libc.a(ultoa_invert.o)
                              c:/program files (x86)/atmel/studio/7.0/toolchain/avr8/avr8-gnu-toolchain/bin/../lib/gcc/avr/4.9.2/../../../../avr/lib/avrxmega7\libc.a(vfprintf_std.o) (__ultoa_invert)

Allocating common symbols
Common symbol       size              file

rtc_timers_head     0x4               system/drivers/RTC.o
timers              0x4               main.o
__brkval            0x2               c:/program files (x86)/atmel/studio/7.0/toolchain/avr8/avr8-gnu-toolchain/bin/../lib/gcc/avr/4.9.2/../../../../avr/lib/avrxmega7\libc.a(malloc.o)
rtc_current         0x1               system/drivers/RTC.o
__flp               0x2               c:/program files (x86)/atmel/studio/7.0/toolchain/avr8/avr8-gnu-toolchain/bin/../lib/gcc/avr/4.9.2/../../../../avr/lib/avrxmega7\libc.a(malloc.o)
sched_task_ids      0x4               system/Scheduler.o
rtc_ids             0x4               system/drivers/RTC.o
__iob               0x6               c:/program files (x86)/atmel/studio/7.0/toolchain/avr8/avr8-gnu-toolchain/bin/../lib/gcc/avr/4.9.2/../../../../avr/lib/avrxmega7\libc.a(iob.o)
sched_current_task  0x2               system/Scheduler.o

Discarded input sections

 .data          0x00000000        0x0 C:/Program Files (x86)/Atmel/Studio/7.0/Packs/atmel/XMEGAA_DFP/1.0.38/gcc/dev/atxmega128a1u/avrxmega7/crtatxmega128a1u.o
 .bss           0x00000000        0x0 C:/Program Files (x86)/Atmel/Studio/7.0/Packs/atmel/XMEGAA_DFP/1.0.38/gcc/dev/atxmega128a1u/avrxmega7/crtatxmega128a1u.o
 .text          0x00000000        0x0 main.o
 .data          0x00000000        0x0 main.o
 .bss           0x00000000        0x0 main.o
 .text          0x00000000        0x0 system/Boot.o
 .data          0x00000000        0x0 system/Boot.o
 .bss           0x00000000        0x0 system/Boot.o
 .text          0x00000000        0x0 system/drivers/CLK.o
 .data          0x00000000        0x0 system/drivers/CLK.o
 .bss           0x00000000        0x0 system/drivers/CLK.o
 .text          0x00000000        0x0 system/drivers/RTC.o
 .data          0x00000000        0x0 system/drivers/RTC.o
 .bss           0x00000000        0x0 system/drivers/RTC.o
 .text          0x00000000        0x0 system/Error.o
 .data          0x00000000        0x0 system/Error.o
 .bss           0x00000000        0x0 system/Error.o
 .text          0x00000000       0xea system/Native.o
Memory Configuration

Name             Origin             Length             Attributes
text             0x00000000         0x00100000         xr
data             0x00802000         0x0000ffa0         rw !x
eeprom           0x00810000         0x00010000         rw !x
fuse             0x00820000         0x00000400         rw !x
lock             0x00830000         0x00000400         rw !x
signature        0x00840000         0x00000400         rw !x
user_signatures  0x00850000         0x00000400         rw !x
*default*        0x00000000         0xffffffff

Linker script and memory map

LOAD C:/Program Files (x86)/Atmel/Studio/7.0/Packs/atmel/XMEGAA_DFP/1.0.38/gcc/dev/atxmega128a1u/avrxmega7/crtatxmega128a1u.o
LOAD main.o
LOAD system/Boot.o
LOAD system/drivers/CLK.o
LOAD system/drivers/RTC.o
LOAD system/Error.o
LOAD system/Native.o
LOAD system/Scheduler.o
LOAD system/util/IDs.o
LOAD system/util/LinkedList.o
LOAD system/util/RingBuffer.o
START GROUP
LOAD c:/program files (x86)/atmel/studio/7.0/toolchain/avr8/avr8-gnu-toolchain/bin/../lib/gcc/avr/4.9.2/../../../../avr/lib/avrxmega7\libm.a
END GROUP
START GROUP
LOAD c:/program files (x86)/atmel/studio/7.0/toolchain/avr8/avr8-gnu-toolchain/bin/../lib/gcc/avr/4.9.2/avrxmega7\libgcc.a
LOAD c:/program files (x86)/atmel/studio/7.0/toolchain/avr8/avr8-gnu-toolchain/bin/../lib/gcc/avr/4.9.2/../../../../avr/lib/avrxmega7\libm.a
LOAD c:/program files (x86)/atmel/studio/7.0/toolchain/avr8/avr8-gnu-toolchain/bin/../lib/gcc/avr/4.9.2/../../../../avr/lib/avrxmega7\libc.a
LOAD C:/Program Files (x86)/Atmel/Studio/7.0/Packs/atmel/XMEGAA_DFP/1.0.38/gcc/dev/atxmega128a1u/avrxmega7\libatxmega128a1u.a
END GROUP

.hash
 *(.hash)

.dynsym
 *(.dynsym)

.dynstr
 *(.dynstr)

.gnu.version
 *(.gnu.version)

.gnu.version_d
 *(.gnu.version_d)

.gnu.version_r
 *(.gnu.version_r)

.rel.init
 *(.rel.init)

.rela.init
 *(.rela.init)

.rel.text
 *(.rel.text)
 *(.rel.text.*)
 *(.rel.gnu.linkonce.t*)

.rela.text
 *(.rela.text)
 *(.rela.text.*)
 *(.rela.gnu.linkonce.t*)

.rel.fini
 *(.rel.fini)

.rela.fini
 *(.rela.fini)

.rel.rodata
 *(.rel.rodata)
 *(.rel.rodata.*)
 *(.rel.gnu.linkonce.r*)

.rela.rodata
 *(.rela.rodata)
 *(.rela.rodata.*)
 *(.rela.gnu.linkonce.r*)

.rel.data
 *(.rel.data)
 *(.rel.data.*)
 *(.rel.gnu.linkonce.d*)

.rela.data
 *(.rela.data)
 *(.rela.data.*)
 *(.rela.gnu.linkonce.d*)

.rel.ctors
 *(.rel.ctors)

.rela.ctors
 *(.rela.ctors)

.rel.dtors
 *(.rel.dtors)

.rela.dtors
 *(.rela.dtors)

.rel.got
 *(.rel.got)

.rela.got
 *(.rela.got)

.rel.bss
 *(.rel.bss)

.rela.bss
 *(.rela.bss)

.rel.plt
 *(.rel.plt)

.rela.plt
 *(.rela.plt)

.text           0x00000000     0x1012
 *(.vectors)
 .vectors       0x00000000      0x1fc C:/Program Files (x86)/Atmel/Studio/7.0/Packs/atmel/XMEGAA_DFP/1.0.38/gcc/dev/atxmega128a1u/avrxmega7/crtatxmega128a1u.o
                0x00000000                __vector_default
                0x00000000                __vectors
 *(.vectors)
 *(.progmem.gcc*)
                0x000001fc                . = ALIGN (0x2)
                0x000001fc                __trampolines_start = .
 *(.trampolines)
 .trampolines   0x000001fc        0x4 linker stubs
 *(.trampolines*)
                0x00000200                __trampolines_end = .
 *(.progmem*)
                0x00000200                . = ALIGN (0x2)
 *(.jumptables)
 *(.jumptables*)
 *(.lowtext)
 *(.lowtext*)
                0x00000200                __ctors_start = .
 *(.ctors)
                0x00000200                __ctors_end = .
                0x00000200                __dtors_start = .
 *(.dtors)
                0x00000200                __dtors_end = .
 SORT(*)(.ctors)
 SORT(*)(.dtors)
 *(.init0)
 .init0         0x00000200        0x0 C:/Program Files (x86)/Atmel/Studio/7.0/Packs/atmel/XMEGAA_DFP/1.0.38/gcc/dev/atxmega128a1u/avrxmega7/crtatxmega128a1u.o
                0x00000200                __init
 *(.init0)
 *(.init1)
 *(.init1)
 *(.init2)
 .init2         0x00000200       0x18 C:/Program Files (x86)/Atmel/Studio/7.0/Packs/atmel/XMEGAA_DFP/1.0.38/gcc/dev/atxmega128a1u/avrxmega7/crtatxmega128a1u.o
 *(.init2)
 *(.init3)
 *(.init3)
 *(.init4)
 .init4         0x00000218       0x1c c:/program files (x86)/atmel/studio/7.0/toolchain/avr8/avr8-gnu-toolchain/bin/../lib/gcc/avr/4.9.2/avrxmega7\libgcc.a(_copy_data.o)
                0x00000218                __do_copy_data
 .init4         0x00000234       0x10 c:/program files (x86)/atmel/studio/7.0/toolchain/avr8/avr8-gnu-toolchain/bin/../lib/gcc/avr/4.9.2/avrxmega7\libgcc.a(_clear_bss.o)
                0x00000234                __do_clear_bss
 *(.init4)
 *(.init5)
 *(.init5)
 *(.init6)
 *(.init6)
 *(.init7)
 *(.init7)
 *(.init8)
 *(.init8)
 *(.init9)
 .init9         0x00000244        0x8 C:/Program Files (x86)/Atmel/Studio/7.0/Packs/atmel/XMEGAA_DFP/1.0.38/gcc/dev/atxmega128a1u/avrxmega7/crtatxmega128a1u.o
 *(.init9)
 *(.text)
 .text          0x0000024c        0x4 C:/Program Files (x86)/Atmel/Studio/7.0/Packs/atmel/XMEGAA_DFP/1.0.38/gcc/dev/atxmega128a1u/avrxmega7/crtatxmega128a1u.o
                0x0000024c                __vector_38
                0x0000024c                __vector_104
                0x0000024c                __vector_22
                0x0000024c                __vector_63
                0x0000024c                __vector_28
                0x0000024c                __vector_67
                0x0000024c                __vector_1
                0x0000024c                __vector_119
                0x0000024c                __vector_32
                0x0000024c                __vector_75
                0x0000024c                __vector_71
                0x0000024c                __vector_91
                0x0000024c                __vector_34
                0x0000024c                __vector_62
                0x0000024c                __vector_77
                0x0000024c                __vector_102
                0x0000024c                __vector_24
                0x0000024c                __vector_12
                0x0000024c                __vector_55
                0x0000024c                __vector_69
                0x0000024c                __vector_81
                0x0000024c                __vector_90
                0x0000024c                __vector_46
                0x0000024c                __bad_interrupt
                0x0000024c                __vector_122
                0x0000024c                __vector_72
                0x0000024c                __vector_114
                0x0000024c                __vector_6
                0x0000024c                __vector_110
                0x0000024c                __vector_31
                0x0000024c                __vector_92
                0x0000024c                __vector_35
                0x0000024c                __vector_78
                0x0000024c                __vector_74
                0x0000024c                __vector_117
                0x0000024c                __vector_39
                0x0000024c                __vector_107
                0x0000024c                __vector_3
                0x0000024c                __vector_105
                0x0000024c                __vector_98
                0x0000024c                __vector_23
                0x0000024c                __vector_68
                0x0000024c                __vector_30
                0x0000024c                __vector_73
                0x0000024c                __vector_45
                0x0000024c                __vector_25
                0x0000024c                __vector_93
                0x0000024c                __vector_61
                0x0000024c                __vector_54
                0x0000024c                __vector_99
                0x0000024c                __vector_13
                0x0000024c                __vector_17
                0x0000024c                __vector_19
                0x0000024c                __vector_56
                0x0000024c                __vector_7
                0x0000024c                __vector_125
                0x0000024c                __vector_49
                0x0000024c                __vector_123
                0x0000024c                __vector_41
                0x0000024c                __vector_86
                0x0000024c                __vector_100
                0x0000024c                __vector_101
                0x0000024c                __vector_64
                0x0000024c                __vector_88
                0x0000024c                __vector_109
                0x0000024c                __vector_43
                0x0000024c                __vector_27
                0x0000024c                __vector_5
                0x0000024c                __vector_113
                0x0000024c                __vector_33
                0x0000024c                __vector_76
                0x0000024c                __vector_115
                0x0000024c                __vector_47
                0x0000024c                __vector_52
                0x0000024c                __vector_37
                0x0000024c                __vector_95
                0x0000024c                __vector_103
                0x0000024c                __vector_96
                0x0000024c                __vector_89
                0x0000024c                __vector_108
                0x0000024c                __vector_4
                0x0000024c                __vector_44
                0x0000024c                __vector_82
                0x0000024c                __vector_106
                0x0000024c                __vector_118
                0x0000024c                __vector_51
                0x0000024c                __vector_9
                0x0000024c                __vector_2
                0x0000024c                __vector_21
                0x0000024c                __vector_15
                0x0000024c                __vector_66
                0x0000024c                __vector_36
                0x0000024c                __vector_79
                0x0000024c                __vector_58
                0x0000024c                __vector_70
                0x0000024c                __vector_83
                0x0000024c                __vector_29
                0x0000024c                __vector_60
                0x0000024c                __vector_121
                0x0000024c                __vector_40
                0x0000024c                __vector_85
                0x0000024c                __vector_94
                0x0000024c                __vector_126
                0x0000024c                __vector_8
                0x0000024c                __vector_26
                0x0000024c                __vector_48
                0x0000024c                __vector_124
                0x0000024c                __vector_116
                0x0000024c                __vector_112
                0x0000024c                __vector_111
                0x0000024c                __vector_80
                0x0000024c                __vector_14
                0x0000024c                __vector_84
                0x0000024c                __vector_57
                0x0000024c                __vector_53
                0x0000024c                __vector_10
                0x0000024c                __vector_50
                0x0000024c                __vector_16
                0x0000024c                __vector_59
                0x0000024c                __vector_18
                0x0000024c                __vector_97
                0x0000024c                __vector_20
                0x0000024c                __vector_42
                0x0000024c                __vector_87
                0x0000024c                __vector_65
                0x0000024c                __vector_120
                0x00000250                . = ALIGN (0x2)
 *(.text.*)
 .text.main_rtc_callback
                0x00000250       0x82 main.o
                0x00000250                main_rtc_callback
 .text.main     0x000002d2       0x90 main.o
                0x000002d2                main
 .text.sys_boot
                0x00000362       0x14 system/Boot.o
                0x00000362                sys_boot
 .text.clk_init
                0x00000376       0x24 system/drivers/CLK.o
                0x00000376                clk_init
 .text.rtc_init
                0x0000039a       0x78 system/drivers/RTC.o
                0x0000039a                rtc_init
 .text.rtc_get_time
                0x00000412       0x38 system/drivers/RTC.o
                0x00000412                rtc_get_time
 .text.rtc_get_timer
                0x0000044a       0x3e system/drivers/RTC.o
                0x0000044a                rtc_get_timer
 .text.rtc_add_timer
                0x00000488       0xb8 system/drivers/RTC.o
                0x00000488                rtc_add_timer
 .text.rtc_update_comp
                0x00000540       0x50 system/drivers/RTC.o
                0x00000540                rtc_update_comp
 .text.rtc_stop_timer
                0x00000590       0x6c system/drivers/RTC.o
                0x00000590                rtc_stop_timer
 .text.__vector_11
                0x000005fc       0x84 system/drivers/RTC.o
                0x000005fc                __vector_11
 .text.sys_crash
                0x00000680       0x1e system/Error.o
                0x00000680                sys_crash
 .text.sched_init
                0x0000069e       0x60 system/Scheduler.o
                0x0000069e                sched_init
 .text.ids32_create
                0x000006fe        0xc system/util/IDs.o
                0x000006fe                ids32_create
 .text.ids32_aquire
                0x0000070a       0x80 system/util/IDs.o
                0x0000070a                ids32_aquire
 .text.ll_create
                0x0000078a        0xc system/util/LinkedList.o
                0x0000078a                ll_create
 .text.ll_add_before
                0x00000796       0x22 system/util/LinkedList.o
                0x00000796                ll_add_before
 .text.ll_remove
                0x000007b8       0x28 system/util/LinkedList.o
                0x000007b8                ll_remove
 .text.avr-libc
                0x000007e0      0x25a c:/program files (x86)/atmel/studio/7.0/toolchain/avr8/avr8-gnu-toolchain/bin/../lib/gcc/avr/4.9.2/../../../../avr/lib/avrxmega7\libc.a(malloc.o)
                0x000007e0                malloc
                0x0000090a                free
 .text.avr-libc
                0x00000a3a       0x16 c:/program files (x86)/atmel/studio/7.0/toolchain/avr8/avr8-gnu-toolchain/bin/../lib/gcc/avr/4.9.2/../../../../avr/lib/avrxmega7\libc.a(strcat.o)
                0x00000a3a                strcat
 .text.avr-libc
                0x00000a50       0x28 c:/program files (x86)/atmel/studio/7.0/toolchain/avr8/avr8-gnu-toolchain/bin/../lib/gcc/avr/4.9.2/../../../../avr/lib/avrxmega7\libc.a(printf.o)
                0x00000a50                printf
 .text.avr-libc
                0x00000a78       0x54 c:/program files (x86)/atmel/studio/7.0/toolchain/avr8/avr8-gnu-toolchain/bin/../lib/gcc/avr/4.9.2/../../../../avr/lib/avrxmega7\libc.a(sprintf.o)
                0x00000a78                sprintf
 .text.avr-libc
                0x00000acc      0x3ea c:/program files (x86)/atmel/studio/7.0/toolchain/avr8/avr8-gnu-toolchain/bin/../lib/gcc/avr/4.9.2/../../../../avr/lib/avrxmega7\libc.a(vfprintf_std.o)
                0x00000acc                vfprintf
 .text.avr-libc
                0x00000eb6       0x16 c:/program files (x86)/atmel/studio/7.0/toolchain/avr8/avr8-gnu-toolchain/bin/../lib/gcc/avr/4.9.2/../../../../avr/lib/avrxmega7\libc.a(strnlen_P.o)
                0x00000eb6                strnlen_P
 .text.avr-libc
                0x00000ecc       0x16 c:/program files (x86)/atmel/studio/7.0/toolchain/avr8/avr8-gnu-toolchain/bin/../lib/gcc/avr/4.9.2/../../../../avr/lib/avrxmega7\libc.a(strnlen.o)
                0x00000ecc                strnlen
 .text.avr-libc
                0x00000ee2       0x70 c:/program files (x86)/atmel/studio/7.0/toolchain/avr8/avr8-gnu-toolchain/bin/../lib/gcc/avr/4.9.2/../../../../avr/lib/avrxmega7\libc.a(fputc.o)
                0x00000ee2                fputc
 .text.avr-libc
                0x00000f52       0xbc c:/program files (x86)/atmel/studio/7.0/toolchain/avr8/avr8-gnu-toolchain/bin/../lib/gcc/avr/4.9.2/../../../../avr/lib/avrxmega7\libc.a(ultoa_invert.o)
                0x00000f52                __ultoa_invert
                0x0000100e                . = ALIGN (0x2)
 *(.fini9)
 .fini9         0x0000100e        0x0 c:/program files (x86)/atmel/studio/7.0/toolchain/avr8/avr8-gnu-toolchain/bin/../lib/gcc/avr/4.9.2/avrxmega7\libgcc.a(_exit.o)
                0x0000100e                _exit
                0x0000100e                exit
 *(.fini9)
 *(.fini8)
 *(.fini8)
 *(.fini7)
 *(.fini7)
 *(.fini6)
 *(.fini6)
 *(.fini5)
 *(.fini5)
 *(.fini4)
 *(.fini4)
 *(.fini3)
 *(.fini3)
 *(.fini2)
 *(.fini2)
 *(.fini1)
 *(.fini1)
 *(.fini0)
 .fini0         0x0000100e        0x4 c:/program files (x86)/atmel/studio/7.0/toolchain/avr8/avr8-gnu-toolchain/bin/../lib/gcc/avr/4.9.2/avrxmega7\libgcc.a(_exit.o)
 *(.fini0)
                0x00001012                _etext = .

.data           0x00802000      0x438 load address 0x00001012
                0x00802000                PROVIDE (__data_start, .)
 *(.data)
 .data          0x00802000        0x6 c:/program files (x86)/atmel/studio/7.0/toolchain/avr8/avr8-gnu-toolchain/bin/../lib/gcc/avr/4.9.2/../../../../avr/lib/avrxmega7\libc.a(malloc.o)
                0x00802000                __malloc_heap_end
                0x00802002                __malloc_heap_start
                0x00802004                __malloc_margin
 *(.data*)
 .data.log_msgs
                0x00802006      0x400 main.o
                0x00802006                log_msgs
 *(.rodata)
 *(.rodata*)
 .rodata.str1.1
                0x00802406       0x32 main.o
 *(.gnu.linkonce.d*)
                0x00802438                . = ALIGN (0x2)
                0x00802438                _edata = .
                0x00802438                PROVIDE (__data_end, .)

.bss            0x00802438       0x20
                0x00802438                PROVIDE (__bss_start, .)
 *(.bss)
 *(.bss*)
 .bss.cnt       0x00802438        0x1 main.o
                0x00802438                cnt
 .bss.done2     0x00802439        0x1 main.o
                0x00802439                done2
 .bss.done      0x0080243a        0x1 main.o
                0x0080243a                done
 *(COMMON)
 COMMON         0x0080243b        0x4 main.o
                0x0080243b                timers
 COMMON         0x0080243f        0x9 system/drivers/RTC.o
                0x0080243f                rtc_timers_head
                0x00802443                rtc_current
                0x00802444                rtc_ids
 COMMON         0x00802448        0x6 system/Scheduler.o
                0x00802448                sched_task_ids
                0x0080244c                sched_current_task
 COMMON         0x0080244e        0x4 c:/program files (x86)/atmel/studio/7.0/toolchain/avr8/avr8-gnu-toolchain/bin/../lib/gcc/avr/4.9.2/../../../../avr/lib/avrxmega7\libc.a(malloc.o)
                0x0080244e                __brkval
                0x00802450                __flp
 COMMON         0x00802452        0x6 c:/program files (x86)/atmel/studio/7.0/toolchain/avr8/avr8-gnu-toolchain/bin/../lib/gcc/avr/4.9.2/../../../../avr/lib/avrxmega7\libc.a(iob.o)
                0x00802452                __iob
                0x00802458                PROVIDE (__bss_end, .)
                0x00001012                __data_load_start = LOADADDR (.data)
                0x0000144a                __data_load_end = (__data_load_start + SIZEOF (.data))

.noinit         0x00802458        0x0
                0x00802458                PROVIDE (__noinit_start, .)
 *(.noinit*)
                0x00802458                PROVIDE (__noinit_end, .)
                0x00802458                _end = .
                0x00802458                PROVIDE (__heap_start, .)

.eeprom         0x00810000        0x0
 *(.eeprom*)
                0x00810000                __eeprom_end = .

.fuse
 *(.fuse)
 *(.lfuse)
 *(.hfuse)
 *(.efuse)

.lock
 *(.lock*)

.signature
 *(.signature*)

.user_signatures
 *(.user_signatures*)

.stab
 *(.stab)

.stabstr
 *(.stabstr)

.stab.excl
 *(.stab.excl)

.stab.exclstr
 *(.stab.exclstr)

.stab.index
 *(.stab.index)

.stab.indexstr
 *(.stab.indexstr)

.comment        0x00000000       0x5c
 *(.comment)
 .comment       0x00000000       0x30 main.o
                                 0x31 (size before relaxing)
 .comment       0x00000030       0x31 system/Boot.o
 .comment       0x00000030       0x31 system/drivers/CLK.o
 .comment       0x00000030       0x31 system/drivers/RTC.o
 .comment       0x00000030       0x31 system/Error.o
 .comment       0x00000030       0x31 system/Scheduler.o
 .comment       0x00000030       0x31 system/util/IDs.o
 .comment       0x00000030       0x31 system/util/LinkedList.o
 .comment       0x00000030       0x31 c:/program files (x86)/atmel/studio/7.0/toolchain/avr8/avr8-gnu-toolchain/bin/../lib/gcc/avr/4.9.2/../../../../avr/lib/avrxmega7\libc.a(malloc.o)
 .comment       0x00000030       0x31 c:/program files (x86)/atmel/studio/7.0/toolchain/avr8/avr8-gnu-toolchain/bin/../lib/gcc/avr/4.9.2/../../../../avr/lib/avrxmega7\libc.a(printf.o)
 .comment       0x00000030       0x31 c:/program files (x86)/atmel/studio/7.0/toolchain/avr8/avr8-gnu-toolchain/bin/../lib/gcc/avr/4.9.2/../../../../avr/lib/avrxmega7\libc.a(sprintf.o)
 .comment       0x00000030       0x2c c:/program files (x86)/atmel/studio/7.0/toolchain/avr8/avr8-gnu-toolchain/bin/../lib/gcc/avr/4.9.2/../../../../avr/lib/avrxmega7\libc.a(vfprintf_std.o)
                                 0x2d (size before relaxing)
 .comment       0x0000005c       0x31 c:/program files (x86)/atmel/studio/7.0/toolchain/avr8/avr8-gnu-toolchain/bin/../lib/gcc/avr/4.9.2/../../../../avr/lib/avrxmega7\libc.a(fputc.o)
 .comment       0x0000005c       0x31 c:/program files (x86)/atmel/studio/7.0/toolchain/avr8/avr8-gnu-toolchain/bin/../lib/gcc/avr/4.9.2/../../../../avr/lib/avrxmega7\libc.a(iob.o)

.note.gnu.avr.deviceinfo
                0x00000000       0x40
 .note.gnu.avr.deviceinfo
                0x00000000       0x40 C:/Program Files (x86)/Atmel/Studio/7.0/Packs/atmel/XMEGAA_DFP/1.0.38/gcc/dev/atxmega128a1u/avrxmega7/crtatxmega128a1u.o

.note.gnu.build-id
 *(.note.gnu.build-id)

.debug
 *(.debug)

.line
 *(.line)

.debug_srcinfo
 *(.debug_srcinfo)

.debug_sfnames
 *(.debug_sfnames)

.debug_aranges  0x00000000      0x1c8
 *(.debug_aranges)
 .debug_aranges
                0x00000000       0x28 main.o
 .debug_aranges
                0x00000028       0x20 system/Boot.o
 .debug_aranges
                0x00000048       0x20 system/drivers/CLK.o
 .debug_aranges
                0x00000068       0x50 system/drivers/RTC.o
 .debug_aranges
                0x000000b8       0x20 system/Error.o
 .debug_aranges
                0x000000d8       0x70 system/Scheduler.o
 .debug_aranges
                0x00000148       0x48 system/util/IDs.o
 .debug_aranges
                0x00000190       0x38 system/util/LinkedList.o

.debug_pubnames
 *(.debug_pubnames)

.debug_info     0x00000000     0x2926
 *(.debug_info .gnu.linkonce.wi.*)
 .debug_info    0x00000000      0x366 main.o
 .debug_info    0x00000366      0x203 system/Boot.o
 .debug_info    0x00000569      0x1f1 system/drivers/CLK.o
 .debug_info    0x0000075a     0x11c1 system/drivers/RTC.o
 .debug_info    0x0000191b      0x22f system/Error.o
 .debug_info    0x00001b4a      0x9fb system/Scheduler.o
 .debug_info    0x00002545      0x2ac system/util/IDs.o
 .debug_info    0x000027f1      0x135 system/util/LinkedList.o

.debug_abbrev   0x00000000      0xbaf
 *(.debug_abbrev)
 .debug_abbrev  0x00000000      0x184 main.o
 .debug_abbrev  0x00000184       0xcf system/Boot.o
 .debug_abbrev  0x00000253       0xb7 system/drivers/CLK.o
 .debug_abbrev  0x0000030a      0x336 system/drivers/RTC.o
 .debug_abbrev  0x00000640       0xd1 system/Error.o
 .debug_abbrev  0x00000711      0x2ff system/Scheduler.o
 .debug_abbrev  0x00000a10      0x105 system/util/IDs.o
 .debug_abbrev  0x00000b15       0x9a system/util/LinkedList.o

.debug_line     0x00000000      0xcd0
 *(.debug_line .debug_line.* .debug_line_end)
 .debug_line    0x00000000      0x116 main.o
 .debug_line    0x00000116      0x143 system/Boot.o
 .debug_line    0x00000259      0x113 system/drivers/CLK.o
 .debug_line    0x0000036c      0x30e system/drivers/RTC.o
 .debug_line    0x0000067a      0x127 system/Error.o
 .debug_line    0x000007a1      0x365 system/Scheduler.o
 .debug_line    0x00000b06      0x137 system/util/IDs.o
 .debug_line    0x00000c3d       0x93 system/util/LinkedList.o

.debug_frame    0x00000000      0x3f0
 *(.debug_frame)
 .debug_frame   0x00000000       0x64 main.o
 .debug_frame   0x00000064       0x24 system/Boot.o
 .debug_frame   0x00000088       0x24 system/drivers/CLK.o
 .debug_frame   0x000000ac      0x134 system/drivers/RTC.o
 .debug_frame   0x000001e0       0x24 system/Error.o
 .debug_frame   0x00000204      0x10c system/Scheduler.o
 .debug_frame   0x00000310       0x8c system/util/IDs.o
 .debug_frame   0x0000039c       0x54 system/util/LinkedList.o

.debug_str      0x00000000     0x1a1c
 *(.debug_str)
 .debug_str     0x00000000      0x1b7 main.o
                                0x1f7 (size before relaxing)
 .debug_str     0x000001b7      0x11b system/Boot.o
                                0x281 (size before relaxing)
 .debug_str     0x000002d2      0x1a2 system/drivers/CLK.o
                                0x31b (size before relaxing)
 .debug_str     0x00000474     0x134a system/drivers/RTC.o
                               0x1561 (size before relaxing)
 .debug_str     0x000017be       0x34 system/Error.o
                                0x2a4 (size before relaxing)
 .debug_str     0x000017f2      0x1a4 system/Scheduler.o
                                0x3d3 (size before relaxing)
 .debug_str     0x00001996       0x6a system/util/IDs.o
                                0x1f8 (size before relaxing)
 .debug_str     0x00001a00       0x1c system/util/LinkedList.o
                                0x15a (size before relaxing)

.debug_loc      0x00000000      0xe61
 *(.debug_loc)
 .debug_loc     0x00000000       0xf1 main.o
 .debug_loc     0x000000f1      0x450 system/drivers/RTC.o
 .debug_loc     0x00000541       0x26 system/Error.o
 .debug_loc     0x00000567      0x459 system/Scheduler.o
 .debug_loc     0x000009c0      0x429 system/util/IDs.o
 .debug_loc     0x00000de9       0x78 system/util/LinkedList.o

.debug_macinfo
 *(.debug_macinfo)

.debug_weaknames
 *(.debug_weaknames)

.debug_funcnames
 *(.debug_funcnames)

.debug_typenames
 *(.debug_typenames)

.debug_varnames
 *(.debug_varnames)

.debug_pubtypes
 *(.debug_pubtypes)

.debug_ranges   0x00000000      0x148
 *(.debug_ranges)
 .debug_ranges  0x00000000       0x18 main.o
 .debug_ranges  0x00000018       0x10 system/Boot.o
 .debug_ranges  0x00000028       0x10 system/drivers/CLK.o
 .debug_ranges  0x00000038       0x40 system/drivers/RTC.o
 .debug_ranges  0x00000078       0x10 system/Error.o
 .debug_ranges  0x00000088       0x60 system/Scheduler.o
 .debug_ranges  0x000000e8       0x38 system/util/IDs.o
 .debug_ranges  0x00000120       0x28 system/util/LinkedList.o

.debug_macro
 *(.debug_macro)
OUTPUT(Node.elf elf32-avr)
LOAD linker stubs
