
Node.elf:     file format elf32-avr

Sections:
Idx Name          Size      VMA       LMA       File off  Algn
  0 .text         00001012  00000000  00000000  00000094  2**1
                  CONTENTS, ALLOC, LOAD, READONLY, CODE
  1 .data         00000438  00802000  00001012  000010a6  2**0
                  CONTENTS, ALLOC, LOAD, DATA
  2 .bss          00000020  00802438  00802438  000014de  2**0
                  ALLOC
  3 .comment      0000005c  00000000  00000000  000014de  2**0
                  CONTENTS, READONLY
  4 .note.gnu.avr.deviceinfo 00000040  00000000  00000000  0000153c  2**2
                  CONTENTS, READONLY
  5 .debug_aranges 000001c8  00000000  00000000  0000157c  2**0
                  CONTENTS, READONLY, DEBUGGING
  6 .debug_info   00002926  00000000  00000000  00001744  2**0
                  CONTENTS, READONLY, DEBUGGING
  7 .debug_abbrev 00000baf  00000000  00000000  0000406a  2**0
                  CONTENTS, READONLY, DEBUGGING
  8 .debug_line   00000cd0  00000000  00000000  00004c19  2**0
                  CONTENTS, READONLY, DEBUGGING
  9 .debug_frame  000003f0  00000000  00000000  000058ec  2**2
                  CONTENTS, READONLY, DEBUGGING
 10 .debug_str    00001a1c  00000000  00000000  00005cdc  2**0
                  CONTENTS, READONLY, DEBUGGING
 11 .debug_loc    00000e61  00000000  00000000  000076f8  2**0
                  CONTENTS, READONLY, DEBUGGING
 12 .debug_ranges 00000148  00000000  00000000  00008559  2**0
                  CONTENTS, READONLY, DEBUGGING

Disassembly of section .text:

00000000 <__vectors>:
       0:	0c 94 00 01 	jmp	0x200	; 0x200 <__ctors_end>
       4:	0c 94 26 01 	jmp	0x24c	; 0x24c <__bad_interrupt>
       8:	0c 94 26 01 	jmp	0x24c	; 0x24c <__bad_interrupt>
       c:	0c 94 26 01 	jmp	0x24c	; 0x24c <__bad_interrupt>
      10:	0c 94 26 01 	jmp	0x24c	; 0x24c <__bad_interrupt>
      14:	0c 94 26 01 	jmp	0x24c	; 0x24c <__bad_interrupt>
      18:	0c 94 26 01 	jmp	0x24c	; 0x24c <__bad_interrupt>
      1c:	0c 94 26 01 	jmp	0x24c	; 0x24c <__bad_interrupt>
      20:	0c 94 26 01 	jmp	0x24c	; 0x24c <__bad_interrupt>
      24:	0c 94 26 01 	jmp	0x24c	; 0x24c <__bad_interrupt>
      28:	0c 94 26 01 	jmp	0x24c	; 0x24c <__bad_interrupt>
      2c:	0c 94 fe 02 	jmp	0x5fc	; 0x5fc <__vector_11>
      30:	0c 94 26 01 	jmp	0x24c	; 0x24c <__bad_interrupt>
      34:	0c 94 26 01 	jmp	0x24c	; 0x24c <__bad_interrupt>
      38:	0c 94 26 01 	jmp	0x24c	; 0x24c <__bad_interrupt>
      3c:	0c 94 26 01 	jmp	0x24c	; 0x24c <__bad_interrupt>
      40:	0c 94 26 01 	jmp	0x24c	; 0x24c <__bad_interrupt>
      44:	0c 94 26 01 	jmp	0x24c	; 0x24c <__bad_interrupt>
      48:	0c 94 26 01 	jmp	0x24c	; 0x24c <__bad_interrupt>
      4c:	0c 94 26 01 	jmp	0x24c	; 0x24c <__bad_interrupt>
      50:	0c 94 26 01 	jmp	0x24c	; 0x24c <__bad_interrupt>
      54:	0c 94 26 01 	jmp	0x24c	; 0x24c <__bad_interrupt>
      58:	0c 94 26 01 	jmp	0x24c	; 0x24c <__bad_interrupt>
      5c:	0c 94 26 01 	jmp	0x24c	; 0x24c <__bad_interrupt>
      60:	0c 94 26 01 	jmp	0x24c	; 0x24c <__bad_interrupt>
      64:	0c 94 26 01 	jmp	0x24c	; 0x24c <__bad_interrupt>
      68:	0c 94 26 01 	jmp	0x24c	; 0x24c <__bad_interrupt>
      6c:	0c 94 26 01 	jmp	0x24c	; 0x24c <__bad_interrupt>
      70:	0c 94 26 01 	jmp	0x24c	; 0x24c <__bad_interrupt>
      74:	0c 94 26 01 	jmp	0x24c	; 0x24c <__bad_interrupt>
      78:	0c 94 26 01 	jmp	0x24c	; 0x24c <__bad_interrupt>
      7c:	0c 94 26 01 	jmp	0x24c	; 0x24c <__bad_interrupt>
      80:	0c 94 26 01 	jmp	0x24c	; 0x24c <__bad_interrupt>
      84:	0c 94 26 01 	jmp	0x24c	; 0x24c <__bad_interrupt>
      88:	0c 94 26 01 	jmp	0x24c	; 0x24c <__bad_interrupt>
      8c:	0c 94 26 01 	jmp	0x24c	; 0x24c <__bad_interrupt>
      90:	0c 94 26 01 	jmp	0x24c	; 0x24c <__bad_interrupt>
      94:	0c 94 26 01 	jmp	0x24c	; 0x24c <__bad_interrupt>
      98:	0c 94 26 01 	jmp	0x24c	; 0x24c <__bad_interrupt>
      9c:	0c 94 26 01 	jmp	0x24c	; 0x24c <__bad_interrupt>
      a0:	0c 94 26 01 	jmp	0x24c	; 0x24c <__bad_interrupt>
      a4:	0c 94 26 01 	jmp	0x24c	; 0x24c <__bad_interrupt>
      a8:	0c 94 26 01 	jmp	0x24c	; 0x24c <__bad_interrupt>
      ac:	0c 94 26 01 	jmp	0x24c	; 0x24c <__bad_interrupt>
      b0:	0c 94 26 01 	jmp	0x24c	; 0x24c <__bad_interrupt>
      b4:	0c 94 26 01 	jmp	0x24c	; 0x24c <__bad_interrupt>
      b8:	0c 94 26 01 	jmp	0x24c	; 0x24c <__bad_interrupt>
      bc:	0c 94 26 01 	jmp	0x24c	; 0x24c <__bad_interrupt>
      c0:	0c 94 26 01 	jmp	0x24c	; 0x24c <__bad_interrupt>
      c4:	0c 94 26 01 	jmp	0x24c	; 0x24c <__bad_interrupt>
      c8:	0c 94 26 01 	jmp	0x24c	; 0x24c <__bad_interrupt>
      cc:	0c 94 26 01 	jmp	0x24c	; 0x24c <__bad_interrupt>
      d0:	0c 94 26 01 	jmp	0x24c	; 0x24c <__bad_interrupt>
      d4:	0c 94 26 01 	jmp	0x24c	; 0x24c <__bad_interrupt>
      d8:	0c 94 26 01 	jmp	0x24c	; 0x24c <__bad_interrupt>
      dc:	0c 94 26 01 	jmp	0x24c	; 0x24c <__bad_interrupt>
      e0:	0c 94 26 01 	jmp	0x24c	; 0x24c <__bad_interrupt>
      e4:	0c 94 26 01 	jmp	0x24c	; 0x24c <__bad_interrupt>
      e8:	0c 94 26 01 	jmp	0x24c	; 0x24c <__bad_interrupt>
      ec:	0c 94 26 01 	jmp	0x24c	; 0x24c <__bad_interrupt>
      f0:	0c 94 26 01 	jmp	0x24c	; 0x24c <__bad_interrupt>
      f4:	0c 94 26 01 	jmp	0x24c	; 0x24c <__bad_interrupt>
      f8:	0c 94 26 01 	jmp	0x24c	; 0x24c <__bad_interrupt>
      fc:	0c 94 26 01 	jmp	0x24c	; 0x24c <__bad_interrupt>
     100:	0c 94 26 01 	jmp	0x24c	; 0x24c <__bad_interrupt>
     104:	0c 94 26 01 	jmp	0x24c	; 0x24c <__bad_interrupt>
     108:	0c 94 26 01 	jmp	0x24c	; 0x24c <__bad_interrupt>
     10c:	0c 94 26 01 	jmp	0x24c	; 0x24c <__bad_interrupt>
     110:	0c 94 26 01 	jmp	0x24c	; 0x24c <__bad_interrupt>
     114:	0c 94 26 01 	jmp	0x24c	; 0x24c <__bad_interrupt>
     118:	0c 94 26 01 	jmp	0x24c	; 0x24c <__bad_interrupt>
     11c:	0c 94 26 01 	jmp	0x24c	; 0x24c <__bad_interrupt>
     120:	0c 94 26 01 	jmp	0x24c	; 0x24c <__bad_interrupt>
     124:	0c 94 26 01 	jmp	0x24c	; 0x24c <__bad_interrupt>
     128:	0c 94 26 01 	jmp	0x24c	; 0x24c <__bad_interrupt>
     12c:	0c 94 26 01 	jmp	0x24c	; 0x24c <__bad_interrupt>
     130:	0c 94 26 01 	jmp	0x24c	; 0x24c <__bad_interrupt>
     134:	0c 94 26 01 	jmp	0x24c	; 0x24c <__bad_interrupt>
     138:	0c 94 26 01 	jmp	0x24c	; 0x24c <__bad_interrupt>
     13c:	0c 94 26 01 	jmp	0x24c	; 0x24c <__bad_interrupt>
     140:	0c 94 26 01 	jmp	0x24c	; 0x24c <__bad_interrupt>
     144:	0c 94 26 01 	jmp	0x24c	; 0x24c <__bad_interrupt>
     148:	0c 94 26 01 	jmp	0x24c	; 0x24c <__bad_interrupt>
     14c:	0c 94 26 01 	jmp	0x24c	; 0x24c <__bad_interrupt>
     150:	0c 94 26 01 	jmp	0x24c	; 0x24c <__bad_interrupt>
     154:	0c 94 26 01 	jmp	0x24c	; 0x24c <__bad_interrupt>
     158:	0c 94 26 01 	jmp	0x24c	; 0x24c <__bad_interrupt>
     15c:	0c 94 26 01 	jmp	0x24c	; 0x24c <__bad_interrupt>
     160:	0c 94 26 01 	jmp	0x24c	; 0x24c <__bad_interrupt>
     164:	0c 94 26 01 	jmp	0x24c	; 0x24c <__bad_interrupt>
     168:	0c 94 26 01 	jmp	0x24c	; 0x24c <__bad_interrupt>
     16c:	0c 94 26 01 	jmp	0x24c	; 0x24c <__bad_interrupt>
     170:	0c 94 26 01 	jmp	0x24c	; 0x24c <__bad_interrupt>
     174:	0c 94 26 01 	jmp	0x24c	; 0x24c <__bad_interrupt>
     178:	0c 94 26 01 	jmp	0x24c	; 0x24c <__bad_interrupt>
     17c:	0c 94 26 01 	jmp	0x24c	; 0x24c <__bad_interrupt>
     180:	0c 94 26 01 	jmp	0x24c	; 0x24c <__bad_interrupt>
     184:	0c 94 26 01 	jmp	0x24c	; 0x24c <__bad_interrupt>
     188:	0c 94 26 01 	jmp	0x24c	; 0x24c <__bad_interrupt>
     18c:	0c 94 26 01 	jmp	0x24c	; 0x24c <__bad_interrupt>
     190:	0c 94 26 01 	jmp	0x24c	; 0x24c <__bad_interrupt>
     194:	0c 94 26 01 	jmp	0x24c	; 0x24c <__bad_interrupt>
     198:	0c 94 26 01 	jmp	0x24c	; 0x24c <__bad_interrupt>
     19c:	0c 94 26 01 	jmp	0x24c	; 0x24c <__bad_interrupt>
     1a0:	0c 94 26 01 	jmp	0x24c	; 0x24c <__bad_interrupt>
     1a4:	0c 94 26 01 	jmp	0x24c	; 0x24c <__bad_interrupt>
     1a8:	0c 94 26 01 	jmp	0x24c	; 0x24c <__bad_interrupt>
     1ac:	0c 94 26 01 	jmp	0x24c	; 0x24c <__bad_interrupt>
     1b0:	0c 94 26 01 	jmp	0x24c	; 0x24c <__bad_interrupt>
     1b4:	0c 94 26 01 	jmp	0x24c	; 0x24c <__bad_interrupt>
     1b8:	0c 94 26 01 	jmp	0x24c	; 0x24c <__bad_interrupt>
     1bc:	0c 94 26 01 	jmp	0x24c	; 0x24c <__bad_interrupt>
     1c0:	0c 94 26 01 	jmp	0x24c	; 0x24c <__bad_interrupt>
     1c4:	0c 94 26 01 	jmp	0x24c	; 0x24c <__bad_interrupt>
     1c8:	0c 94 26 01 	jmp	0x24c	; 0x24c <__bad_interrupt>
     1cc:	0c 94 26 01 	jmp	0x24c	; 0x24c <__bad_interrupt>
     1d0:	0c 94 26 01 	jmp	0x24c	; 0x24c <__bad_interrupt>
     1d4:	0c 94 26 01 	jmp	0x24c	; 0x24c <__bad_interrupt>
     1d8:	0c 94 26 01 	jmp	0x24c	; 0x24c <__bad_interrupt>
     1dc:	0c 94 26 01 	jmp	0x24c	; 0x24c <__bad_interrupt>
     1e0:	0c 94 26 01 	jmp	0x24c	; 0x24c <__bad_interrupt>
     1e4:	0c 94 26 01 	jmp	0x24c	; 0x24c <__bad_interrupt>
     1e8:	0c 94 26 01 	jmp	0x24c	; 0x24c <__bad_interrupt>
     1ec:	0c 94 26 01 	jmp	0x24c	; 0x24c <__bad_interrupt>
     1f0:	0c 94 26 01 	jmp	0x24c	; 0x24c <__bad_interrupt>
     1f4:	0c 94 26 01 	jmp	0x24c	; 0x24c <__bad_interrupt>
     1f8:	0c 94 26 01 	jmp	0x24c	; 0x24c <__bad_interrupt>

000001fc <__trampolines_start>:
     1fc:	0c 94 28 01 	jmp	0x250	; 0x250 <main_rtc_callback>

00000200 <__ctors_end>:
     200:	11 24       	eor	r1, r1
     202:	1f be       	out	0x3f, r1	; 63
     204:	cf ef       	ldi	r28, 0xFF	; 255
     206:	cd bf       	out	0x3d, r28	; 61
     208:	df e3       	ldi	r29, 0x3F	; 63
     20a:	de bf       	out	0x3e, r29	; 62
     20c:	00 e0       	ldi	r16, 0x00	; 0
     20e:	0c bf       	out	0x3c, r16	; 60
     210:	18 be       	out	0x38, r1	; 56
     212:	19 be       	out	0x39, r1	; 57
     214:	1a be       	out	0x3a, r1	; 58
     216:	1b be       	out	0x3b, r1	; 59

00000218 <__do_copy_data>:
     218:	14 e2       	ldi	r17, 0x24	; 36
     21a:	a0 e0       	ldi	r26, 0x00	; 0
     21c:	b0 e2       	ldi	r27, 0x20	; 32
     21e:	e2 e1       	ldi	r30, 0x12	; 18
     220:	f0 e1       	ldi	r31, 0x10	; 16
     222:	00 e0       	ldi	r16, 0x00	; 0
     224:	0b bf       	out	0x3b, r16	; 59
     226:	02 c0       	rjmp	.+4      	; 0x22c <__do_copy_data+0x14>
     228:	07 90       	elpm	r0, Z+
     22a:	0d 92       	st	X+, r0
     22c:	a8 33       	cpi	r26, 0x38	; 56
     22e:	b1 07       	cpc	r27, r17
     230:	d9 f7       	brne	.-10     	; 0x228 <__do_copy_data+0x10>
     232:	1b be       	out	0x3b, r1	; 59

00000234 <__do_clear_bss>:
     234:	24 e2       	ldi	r18, 0x24	; 36
     236:	a8 e3       	ldi	r26, 0x38	; 56
     238:	b4 e2       	ldi	r27, 0x24	; 36
     23a:	01 c0       	rjmp	.+2      	; 0x23e <.do_clear_bss_start>

0000023c <.do_clear_bss_loop>:
     23c:	1d 92       	st	X+, r1

0000023e <.do_clear_bss_start>:
     23e:	a8 35       	cpi	r26, 0x58	; 88
     240:	b2 07       	cpc	r27, r18
     242:	e1 f7       	brne	.-8      	; 0x23c <.do_clear_bss_loop>
     244:	0e 94 69 01 	call	0x2d2	; 0x2d2 <main>
     248:	0c 94 07 08 	jmp	0x100e	; 0x100e <_exit>

0000024c <__bad_interrupt>:
     24c:	0c 94 00 00 	jmp	0	; 0x0 <__vectors>

00000250 <main_rtc_callback>:
volatile char log_msgs[1024] = "Start \n";
volatile uint8_t done = 0;
volatile uint8_t done2 = 0;
volatile uint8_t cnt = 0;

void main_rtc_callback(uint8_t id) {
     250:	0f 93       	push	r16
     252:	1f 93       	push	r17
     254:	cf 93       	push	r28
     256:	df 93       	push	r29
     258:	cd b7       	in	r28, 0x3d	; 61
     25a:	de b7       	in	r29, 0x3e	; 62
     25c:	c0 58       	subi	r28, 0x80	; 128
     25e:	d1 09       	sbc	r29, r1
     260:	cd bf       	out	0x3d, r28	; 61
     262:	de bf       	out	0x3e, r29	; 62
     264:	18 2f       	mov	r17, r24
	char msg[128];
	sprintf(msg, "-> Callback at %i with id %i\n", rtc_get_time(), id);
     266:	0e 94 09 02 	call	0x412	; 0x412 <rtc_get_time>
     26a:	1f 92       	push	r1
     26c:	1f 93       	push	r17
     26e:	9f 93       	push	r25
     270:	8f 93       	push	r24
     272:	7f 93       	push	r23
     274:	6f 93       	push	r22
     276:	86 e0       	ldi	r24, 0x06	; 6
     278:	94 e2       	ldi	r25, 0x24	; 36
     27a:	9f 93       	push	r25
     27c:	8f 93       	push	r24
     27e:	8e 01       	movw	r16, r28
     280:	0f 5f       	subi	r16, 0xFF	; 255
     282:	1f 4f       	sbci	r17, 0xFF	; 255
     284:	1f 93       	push	r17
     286:	0f 93       	push	r16
     288:	0e 94 3c 05 	call	0xa78	; 0xa78 <sprintf>
	strcat(log_msgs, msg);
     28c:	b8 01       	movw	r22, r16
     28e:	86 e0       	ldi	r24, 0x06	; 6
     290:	90 e2       	ldi	r25, 0x20	; 32
     292:	0e 94 1d 05 	call	0xa3a	; 0xa3a <strcat>
	cnt++;
     296:	80 91 38 24 	lds	r24, 0x2438
     29a:	8f 5f       	subi	r24, 0xFF	; 255
     29c:	80 93 38 24 	sts	0x2438, r24
	if(cnt == 4) {
     2a0:	80 91 38 24 	lds	r24, 0x2438
     2a4:	cd bf       	out	0x3d, r28	; 61
     2a6:	de bf       	out	0x3e, r29	; 62
     2a8:	84 30       	cpi	r24, 0x04	; 4
     2aa:	19 f4       	brne	.+6      	; 0x2b2 <main_rtc_callback+0x62>
		done = 1;
     2ac:	81 e0       	ldi	r24, 0x01	; 1
     2ae:	80 93 3a 24 	sts	0x243A, r24
	}
	if(cnt > 4) {
     2b2:	80 91 38 24 	lds	r24, 0x2438
     2b6:	85 30       	cpi	r24, 0x05	; 5
     2b8:	18 f0       	brcs	.+6      	; 0x2c0 <main_rtc_callback+0x70>
		done2 = 1;
     2ba:	81 e0       	ldi	r24, 0x01	; 1
     2bc:	80 93 39 24 	sts	0x2439, r24
	}
}
     2c0:	c0 58       	subi	r28, 0x80	; 128
     2c2:	df 4f       	sbci	r29, 0xFF	; 255
     2c4:	cd bf       	out	0x3d, r28	; 61
     2c6:	de bf       	out	0x3e, r29	; 62
     2c8:	df 91       	pop	r29
     2ca:	cf 91       	pop	r28
     2cc:	1f 91       	pop	r17
     2ce:	0f 91       	pop	r16
     2d0:	08 95       	ret

000002d2 <main>:

int main(void)
{
	sys_boot();
     2d2:	0e 94 b1 01 	call	0x362	; 0x362 <sys_boot>

	timers[0] = rtc_add_timer(100, &main_rtc_callback);
     2d6:	48 e2       	ldi	r20, 0x28	; 40
     2d8:	51 e0       	ldi	r21, 0x01	; 1
     2da:	64 e6       	ldi	r22, 0x64	; 100
     2dc:	70 e0       	ldi	r23, 0x00	; 0
     2de:	80 e0       	ldi	r24, 0x00	; 0
     2e0:	90 e0       	ldi	r25, 0x00	; 0
     2e2:	0e 94 44 02 	call	0x488	; 0x488 <rtc_add_timer>
     2e6:	cb e3       	ldi	r28, 0x3B	; 59
     2e8:	d4 e2       	ldi	r29, 0x24	; 36
     2ea:	88 83       	st	Y, r24
	timers[1] = rtc_add_timer(200, &main_rtc_callback);
     2ec:	48 e2       	ldi	r20, 0x28	; 40
     2ee:	51 e0       	ldi	r21, 0x01	; 1
     2f0:	68 ec       	ldi	r22, 0xC8	; 200
     2f2:	70 e0       	ldi	r23, 0x00	; 0
     2f4:	80 e0       	ldi	r24, 0x00	; 0
     2f6:	90 e0       	ldi	r25, 0x00	; 0
     2f8:	0e 94 44 02 	call	0x488	; 0x488 <rtc_add_timer>
     2fc:	89 83       	std	Y+1, r24	; 0x01
	timers[2] = rtc_add_timer(50, &main_rtc_callback);
     2fe:	48 e2       	ldi	r20, 0x28	; 40
     300:	51 e0       	ldi	r21, 0x01	; 1
     302:	62 e3       	ldi	r22, 0x32	; 50
     304:	70 e0       	ldi	r23, 0x00	; 0
     306:	80 e0       	ldi	r24, 0x00	; 0
     308:	90 e0       	ldi	r25, 0x00	; 0
     30a:	0e 94 44 02 	call	0x488	; 0x488 <rtc_add_timer>
     30e:	8a 83       	std	Y+2, r24	; 0x02
	timers[3] = rtc_add_timer(1000, &main_rtc_callback);
     310:	48 e2       	ldi	r20, 0x28	; 40
     312:	51 e0       	ldi	r21, 0x01	; 1
     314:	68 ee       	ldi	r22, 0xE8	; 232
     316:	73 e0       	ldi	r23, 0x03	; 3
     318:	80 e0       	ldi	r24, 0x00	; 0
     31a:	90 e0       	ldi	r25, 0x00	; 0
     31c:	0e 94 44 02 	call	0x488	; 0x488 <rtc_add_timer>
     320:	8b 83       	std	Y+3, r24	; 0x03

	sei();
     322:	78 94       	sei

    while (1) 
    {
		if(done == 1) {
			printf(log_msgs);
     324:	c6 e0       	ldi	r28, 0x06	; 6
     326:	d0 e2       	ldi	r29, 0x20	; 32
			done = 0;
		}
		if(done2 == 1) {
			printf("FAILED");
     328:	04 e2       	ldi	r16, 0x24	; 36
     32a:	14 e2       	ldi	r17, 0x24	; 36

	sei();

    while (1) 
    {
		if(done == 1) {
     32c:	80 91 3a 24 	lds	r24, 0x243A
     330:	81 30       	cpi	r24, 0x01	; 1
     332:	41 f4       	brne	.+16     	; 0x344 <main+0x72>
			printf(log_msgs);
     334:	df 93       	push	r29
     336:	cf 93       	push	r28
     338:	0e 94 28 05 	call	0xa50	; 0xa50 <printf>
			done = 0;
     33c:	10 92 3a 24 	sts	0x243A, r1
     340:	0f 90       	pop	r0
     342:	0f 90       	pop	r0
		}
		if(done2 == 1) {
     344:	80 91 39 24 	lds	r24, 0x2439
     348:	81 30       	cpi	r24, 0x01	; 1
     34a:	81 f7       	brne	.-32     	; 0x32c <main+0x5a>
			printf("FAILED");
     34c:	1f 93       	push	r17
     34e:	0f 93       	push	r16
     350:	0e 94 28 05 	call	0xa50	; 0xa50 <printf>
			sys_crash("Error in rtc");
     354:	8b e2       	ldi	r24, 0x2B	; 43
     356:	94 e2       	ldi	r25, 0x24	; 36
     358:	0e 94 40 03 	call	0x680	; 0x680 <sys_crash>
     35c:	0f 90       	pop	r0
     35e:	0f 90       	pop	r0
     360:	e5 cf       	rjmp	.-54     	; 0x32c <main+0x5a>

00000362 <sys_boot>:
 #include "drivers/RTC.h"
 #include "drivers/PMIC.h"
 #include "Scheduler.h"

 void sys_boot() {
	clk_init();
     362:	0e 94 bb 01 	call	0x376	; 0x376 <clk_init>
	rtc_init();
     366:	0e 94 cd 01 	call	0x39a	; 0x39a <rtc_init>
	sched_init();
     36a:	0e 94 4f 03 	call	0x69e	; 0x69e <sched_init>

#include <avr/io.h>


static inline void pmic_init() {
	PMIC.CTRL = PMIC_RREN_bm | PMIC_LOLVLEN_bm | PMIC_MEDLVLEN_bm | PMIC_HILVLEN_bm;
     36e:	87 e8       	ldi	r24, 0x87	; 135
     370:	80 93 a2 00 	sts	0x00A2, r24
     374:	08 95       	ret

00000376 <clk_init>:
 */ 

 #include "CLK.h"

 void clk_init() {
	OSC.CTRL = CLK_ACTIVE_OSC;
     376:	86 e0       	ldi	r24, 0x06	; 6
     378:	80 93 50 00 	sts	0x0050, r24
	while((OSC.STATUS & CLK_ACTIVE_OSC) != CLK_ACTIVE_OSC) {}
     37c:	e0 e5       	ldi	r30, 0x50	; 80
     37e:	f0 e0       	ldi	r31, 0x00	; 0
     380:	81 81       	ldd	r24, Z+1	; 0x01
     382:	86 70       	andi	r24, 0x06	; 6
     384:	86 30       	cpi	r24, 0x06	; 6
     386:	e1 f7       	brne	.-8      	; 0x380 <clk_init+0xa>
	
	CCP = CCP_IOREG_gc;
     388:	88 ed       	ldi	r24, 0xD8	; 216
     38a:	84 bf       	out	0x34, r24	; 52
	CLK.CTRL = CLK_SYSCLK;
     38c:	e0 e4       	ldi	r30, 0x40	; 64
     38e:	f0 e0       	ldi	r31, 0x00	; 0
     390:	81 e0       	ldi	r24, 0x01	; 1
     392:	80 83       	st	Z, r24

	CLK.RTCCTRL = CLK_RTCCLK | CLK_RTCEN_bm;
     394:	85 e0       	ldi	r24, 0x05	; 5
     396:	83 83       	std	Z+3, r24	; 0x03
     398:	08 95       	ret

0000039a <rtc_init>:
 volatile ids32_t rtc_ids;
 volatile linked_list_t rtc_timers_head;
 volatile uint8_t rtc_current;


 void rtc_init() {
     39a:	cf 93       	push	r28
     39c:	df 93       	push	r29
     39e:	cd b7       	in	r28, 0x3d	; 61
     3a0:	de b7       	in	r29, 0x3e	; 62
     3a2:	c8 57       	subi	r28, 0x78	; 120
     3a4:	d1 09       	sbc	r29, r1
     3a6:	cd bf       	out	0x3d, r28	; 61
     3a8:	de bf       	out	0x3e, r29	; 62
	ids32_create(&rtc_ids);
     3aa:	84 e4       	ldi	r24, 0x44	; 68
     3ac:	94 e2       	ldi	r25, 0x24	; 36
     3ae:	0e 94 7f 03 	call	0x6fe	; 0x6fe <ids32_create>
	ll_create(&rtc_timers_head);
     3b2:	8f e3       	ldi	r24, 0x3F	; 63
     3b4:	94 e2       	ldi	r25, 0x24	; 36
     3b6:	0e 94 c5 03 	call	0x78a	; 0x78a <ll_create>

	RTC.PER = 0xFFFF;
     3ba:	20 e0       	ldi	r18, 0x00	; 0
     3bc:	34 e0       	ldi	r19, 0x04	; 4
     3be:	4f ef       	ldi	r20, 0xFF	; 255
     3c0:	5f ef       	ldi	r21, 0xFF	; 255
     3c2:	f9 01       	movw	r30, r18
     3c4:	42 87       	std	Z+10, r20	; 0x0a
     3c6:	53 87       	std	Z+11, r21	; 0x0b

	EVSYS.CH0MUX = EVSYS_CHMUX_RTC_OVF_gc;
     3c8:	88 e0       	ldi	r24, 0x08	; 8
     3ca:	80 93 80 01 	sts	0x0180, r24
     3ce:	8c e3       	ldi	r24, 0x3C	; 60
     3d0:	e0 e4       	ldi	r30, 0x40	; 64
     3d2:	f8 e0       	ldi	r31, 0x08	; 8
     3d4:	de 01       	movw	r26, r28
     3d6:	dd 96       	adiw	r26, 0x3d	; 61
     3d8:	01 90       	ld	r0, Z+
     3da:	0d 92       	st	X+, r0
     3dc:	8a 95       	dec	r24
     3de:	e1 f7       	brne	.-8      	; 0x3d8 <rtc_init+0x3e>
#include <inttypes.h>
#include <avr/io.h>


static inline void tc1_set_clk(volatile TC1_t tc, TC_CLKSEL_t clk) {
	tc.CTRLA = (tc.CTRLA & (~TC0_CLKSEL_gm)) | clk;
     3e0:	8d ad       	ldd	r24, Y+61	; 0x3d
     3e2:	80 7f       	andi	r24, 0xF0	; 240
     3e4:	88 60       	ori	r24, 0x08	; 8
     3e6:	8d af       	std	Y+61, r24	; 0x3d
     3e8:	8c e3       	ldi	r24, 0x3C	; 60
     3ea:	e0 e4       	ldi	r30, 0x40	; 64
     3ec:	f8 e0       	ldi	r31, 0x08	; 8
     3ee:	de 01       	movw	r26, r28
     3f0:	11 96       	adiw	r26, 0x01	; 1
     3f2:	01 90       	ld	r0, Z+
     3f4:	0d 92       	st	X+, r0
     3f6:	8a 95       	dec	r24
     3f8:	e1 f7       	brne	.-8      	; 0x3f2 <rtc_init+0x58>
}

static inline void tc1_set_top(volatile TC1_t tc, uint16_t top) {
	tc.PER = top;
     3fa:	4f a3       	std	Y+39, r20	; 0x27
     3fc:	58 a7       	std	Y+40, r21	; 0x28

	tc1_set_clk(RTC_OV_TC, TC_CLKSEL_EVCH0_gc);
	tc1_set_top(RTC_OV_TC, 0xFFFF);

	RTC.CTRL = RTC_PRESCALER_DIV1_gc;
     3fe:	81 e0       	ldi	r24, 0x01	; 1
     400:	f9 01       	movw	r30, r18
     402:	80 83       	st	Z, r24
 }
     404:	c8 58       	subi	r28, 0x88	; 136
     406:	df 4f       	sbci	r29, 0xFF	; 255
     408:	cd bf       	out	0x3d, r28	; 61
     40a:	de bf       	out	0x3e, r29	; 62
     40c:	df 91       	pop	r29
     40e:	cf 91       	pop	r28
     410:	08 95       	ret

00000412 <rtc_get_time>:

 uint32_t rtc_get_time() {
     412:	0f 93       	push	r16
     414:	1f 93       	push	r17
	return ((uint32_t) RTC.CNT) | (((uint32_t) RTC_OV_TC.CNT) << 16);
     416:	80 91 08 04 	lds	r24, 0x0408
     41a:	90 91 09 04 	lds	r25, 0x0409
     41e:	40 91 60 08 	lds	r20, 0x0860
     422:	50 91 61 08 	lds	r21, 0x0861
     426:	60 e0       	ldi	r22, 0x00	; 0
     428:	70 e0       	ldi	r23, 0x00	; 0
     42a:	ba 01       	movw	r22, r20
     42c:	55 27       	eor	r21, r21
     42e:	44 27       	eor	r20, r20
     430:	a0 e0       	ldi	r26, 0x00	; 0
     432:	b0 e0       	ldi	r27, 0x00	; 0
     434:	8a 01       	movw	r16, r20
     436:	9b 01       	movw	r18, r22
     438:	08 2b       	or	r16, r24
     43a:	19 2b       	or	r17, r25
     43c:	2a 2b       	or	r18, r26
     43e:	3b 2b       	or	r19, r27
     440:	c9 01       	movw	r24, r18
     442:	b8 01       	movw	r22, r16
 }
     444:	1f 91       	pop	r17
     446:	0f 91       	pop	r16
     448:	08 95       	ret

0000044a <rtc_get_timer>:

 struct rtc_timer_struct *rtc_get_timer(uint8_t id) {
	linked_list_t *elem = rtc_timers_head.next;
     44a:	e0 91 3f 24 	lds	r30, 0x243F
     44e:	f0 91 40 24 	lds	r31, 0x2440
	while((elem != &rtc_timers_head) && (ll_get_elem(elem, struct rtc_timer_struct, list)->id != id)) {
     452:	94 e2       	ldi	r25, 0x24	; 36
     454:	ef 33       	cpi	r30, 0x3F	; 63
     456:	f9 07       	cpc	r31, r25
     458:	71 f0       	breq	.+28     	; 0x476 <rtc_get_timer+0x2c>
     45a:	94 81       	ldd	r25, Z+4	; 0x04
     45c:	98 17       	cp	r25, r24
     45e:	89 f0       	breq	.+34     	; 0x482 <rtc_get_timer+0x38>
		elem = elem->next;
     460:	01 90       	ld	r0, Z+
     462:	f0 81       	ld	r31, Z
     464:	e0 2d       	mov	r30, r0
	return ((uint32_t) RTC.CNT) | (((uint32_t) RTC_OV_TC.CNT) << 16);
 }

 struct rtc_timer_struct *rtc_get_timer(uint8_t id) {
	linked_list_t *elem = rtc_timers_head.next;
	while((elem != &rtc_timers_head) && (ll_get_elem(elem, struct rtc_timer_struct, list)->id != id)) {
     466:	94 e2       	ldi	r25, 0x24	; 36
     468:	ef 33       	cpi	r30, 0x3F	; 63
     46a:	f9 07       	cpc	r31, r25
     46c:	39 f0       	breq	.+14     	; 0x47c <rtc_get_timer+0x32>
     46e:	94 81       	ldd	r25, Z+4	; 0x04
     470:	98 13       	cpse	r25, r24
     472:	f6 cf       	rjmp	.-20     	; 0x460 <rtc_get_timer+0x16>
     474:	06 c0       	rjmp	.+12     	; 0x482 <rtc_get_timer+0x38>
		elem = elem->next;
	}
	if(elem == &rtc_timers_head) {
		return NULL;
     476:	80 e0       	ldi	r24, 0x00	; 0
     478:	90 e0       	ldi	r25, 0x00	; 0
     47a:	08 95       	ret
     47c:	80 e0       	ldi	r24, 0x00	; 0
     47e:	90 e0       	ldi	r25, 0x00	; 0
     480:	08 95       	ret
	}
	return ll_get_elem(elem, struct rtc_timer_struct, list);
     482:	8e 2f       	mov	r24, r30
     484:	9f 2f       	mov	r25, r31
 }
     486:	08 95       	ret

00000488 <rtc_add_timer>:

 uint8_t rtc_add_timer(uint32_t time, rtc_callback_t callback) {
     488:	bf 92       	push	r11
     48a:	cf 92       	push	r12
     48c:	df 92       	push	r13
     48e:	ef 92       	push	r14
     490:	ff 92       	push	r15
     492:	0f 93       	push	r16
     494:	1f 93       	push	r17
     496:	cf 93       	push	r28
     498:	df 93       	push	r29
	if(time > 10) {
     49a:	6b 30       	cpi	r22, 0x0B	; 11
     49c:	71 05       	cpc	r23, r1
     49e:	81 05       	cpc	r24, r1
     4a0:	91 05       	cpc	r25, r1
     4a2:	08 f4       	brcc	.+2      	; 0x4a6 <rtc_add_timer+0x1e>
     4a4:	42 c0       	rjmp	.+132    	; 0x52a <rtc_add_timer+0xa2>
     4a6:	8a 01       	movw	r16, r20
     4a8:	6b 01       	movw	r12, r22
     4aa:	7c 01       	movw	r14, r24
		ATOMIC_BLOCK(ATOMIC_RESTORESTATE) {
     4ac:	bf b6       	in	r11, 0x3f	; 63
    return 1;
}

static __inline__ uint8_t __iCliRetVal(void)
{
    cli();
     4ae:	f8 94       	cli
			struct rtc_timer_struct *timer = malloc(sizeof(struct rtc_timer_struct));
     4b0:	8b e0       	ldi	r24, 0x0B	; 11
     4b2:	90 e0       	ldi	r25, 0x00	; 0
     4b4:	0e 94 f0 03 	call	0x7e0	; 0x7e0 <malloc>
     4b8:	ec 01       	movw	r28, r24
			timer->callback = callback;
     4ba:	0d 83       	std	Y+5, r16	; 0x05
     4bc:	1e 83       	std	Y+6, r17	; 0x06
			timer->id = ids32_aquire(&rtc_ids);
     4be:	84 e4       	ldi	r24, 0x44	; 68
     4c0:	94 e2       	ldi	r25, 0x24	; 36
     4c2:	0e 94 85 03 	call	0x70a	; 0x70a <ids32_aquire>
     4c6:	8c 83       	std	Y+4, r24	; 0x04
			if(timer->id == 0) {
     4c8:	88 23       	and	r24, r24
     4ca:	69 f1       	breq	.+90     	; 0x526 <rtc_add_timer+0x9e>
				return 0;
			}
			time += rtc_get_time();
     4cc:	0e 94 09 02 	call	0x412	; 0x412 <rtc_get_time>
     4d0:	dc 01       	movw	r26, r24
     4d2:	cb 01       	movw	r24, r22
     4d4:	8c 0d       	add	r24, r12
     4d6:	9d 1d       	adc	r25, r13
     4d8:	ae 1d       	adc	r26, r14
     4da:	bf 1d       	adc	r27, r15
			timer->time = time;
     4dc:	8f 83       	std	Y+7, r24	; 0x07
     4de:	98 87       	std	Y+8, r25	; 0x08
     4e0:	a9 87       	std	Y+9, r26	; 0x09
     4e2:	ba 87       	std	Y+10, r27	; 0x0a
			if(time < RTC.COMP || RTC.COMP == 0) {
     4e4:	c0 90 0c 04 	lds	r12, 0x040C
     4e8:	d0 90 0d 04 	lds	r13, 0x040D
     4ec:	e1 2c       	mov	r14, r1
     4ee:	f1 2c       	mov	r15, r1
     4f0:	8c 15       	cp	r24, r12
     4f2:	9d 05       	cpc	r25, r13
     4f4:	ae 05       	cpc	r26, r14
     4f6:	bf 05       	cpc	r27, r15
     4f8:	30 f0       	brcs	.+12     	; 0x506 <rtc_add_timer+0x7e>
     4fa:	20 91 0c 04 	lds	r18, 0x040C
     4fe:	30 91 0d 04 	lds	r19, 0x040D
     502:	23 2b       	or	r18, r19
     504:	51 f4       	brne	.+20     	; 0x51a <rtc_add_timer+0x92>
				RTC.COMP = time;
     506:	e0 e0       	ldi	r30, 0x00	; 0
     508:	f4 e0       	ldi	r31, 0x04	; 4
     50a:	84 87       	std	Z+12, r24	; 0x0c
     50c:	95 87       	std	Z+13, r25	; 0x0d
				rtc_current = timer->id;
     50e:	8c 81       	ldd	r24, Y+4	; 0x04
     510:	80 93 43 24 	sts	0x2443, r24
				RTC.INTCTRL |= RTC_COMPINTLVL_LO_gc;
     514:	82 81       	ldd	r24, Z+2	; 0x02
     516:	84 60       	ori	r24, 0x04	; 4
     518:	82 83       	std	Z+2, r24	; 0x02
			}
			ll_add_before(&rtc_timers_head, &(timer->list));
     51a:	be 01       	movw	r22, r28
     51c:	8f e3       	ldi	r24, 0x3F	; 63
     51e:	94 e2       	ldi	r25, 0x24	; 36
     520:	0e 94 cb 03 	call	0x796	; 0x796 <ll_add_before>
			return timer->id;
     524:	8c 81       	ldd	r24, Y+4	; 0x04
    (void)__s;
}

static __inline__ void __iRestore(const  uint8_t *__s)
{
    SREG = *__s;
     526:	bf be       	out	0x3f, r11	; 63
    __asm__ volatile ("" ::: "memory");
     528:	01 c0       	rjmp	.+2      	; 0x52c <rtc_add_timer+0xa4>
		}
	}
	return 0;
     52a:	80 e0       	ldi	r24, 0x00	; 0
 }
     52c:	df 91       	pop	r29
     52e:	cf 91       	pop	r28
     530:	1f 91       	pop	r17
     532:	0f 91       	pop	r16
     534:	ff 90       	pop	r15
     536:	ef 90       	pop	r14
     538:	df 90       	pop	r13
     53a:	cf 90       	pop	r12
     53c:	bf 90       	pop	r11
     53e:	08 95       	ret

00000540 <rtc_update_comp>:

 void rtc_update_comp() {
     540:	cf 93       	push	r28
     542:	df 93       	push	r29
	linked_list_t *elem = rtc_timers_head.next;
     544:	e0 91 3f 24 	lds	r30, 0x243F
     548:	f0 91 40 24 	lds	r31, 0x2440
	while(elem != &rtc_timers_head) {
     54c:	84 e2       	ldi	r24, 0x24	; 36
     54e:	ef 33       	cpi	r30, 0x3F	; 63
     550:	f8 07       	cpc	r31, r24
     552:	d9 f0       	breq	.+54     	; 0x58a <rtc_update_comp+0x4a>
		if(RTC.COMP > ll_get_elem(elem, struct rtc_timer_struct, list)->time) {
     554:	c0 e0       	ldi	r28, 0x00	; 0
     556:	d4 e0       	ldi	r29, 0x04	; 4
     558:	8c 85       	ldd	r24, Y+12	; 0x0c
     55a:	9d 85       	ldd	r25, Y+13	; 0x0d
     55c:	47 81       	ldd	r20, Z+7	; 0x07
     55e:	50 85       	ldd	r21, Z+8	; 0x08
     560:	61 85       	ldd	r22, Z+9	; 0x09
     562:	72 85       	ldd	r23, Z+10	; 0x0a
     564:	a0 e0       	ldi	r26, 0x00	; 0
     566:	b0 e0       	ldi	r27, 0x00	; 0
     568:	48 17       	cp	r20, r24
     56a:	59 07       	cpc	r21, r25
     56c:	6a 07       	cpc	r22, r26
     56e:	7b 07       	cpc	r23, r27
     570:	28 f4       	brcc	.+10     	; 0x57c <rtc_update_comp+0x3c>
			RTC.COMP = ll_get_elem(elem, struct rtc_timer_struct, list)->time;
     572:	4c 87       	std	Y+12, r20	; 0x0c
     574:	5d 87       	std	Y+13, r21	; 0x0d
			rtc_current = ll_get_elem(elem, struct rtc_timer_struct, list)->id;
     576:	84 81       	ldd	r24, Z+4	; 0x04
     578:	80 93 43 24 	sts	0x2443, r24
		}
		elem = elem->next;
     57c:	01 90       	ld	r0, Z+
     57e:	f0 81       	ld	r31, Z
     580:	e0 2d       	mov	r30, r0
	return 0;
 }

 void rtc_update_comp() {
	linked_list_t *elem = rtc_timers_head.next;
	while(elem != &rtc_timers_head) {
     582:	84 e2       	ldi	r24, 0x24	; 36
     584:	ef 33       	cpi	r30, 0x3F	; 63
     586:	f8 07       	cpc	r31, r24
     588:	39 f7       	brne	.-50     	; 0x558 <rtc_update_comp+0x18>
			RTC.COMP = ll_get_elem(elem, struct rtc_timer_struct, list)->time;
			rtc_current = ll_get_elem(elem, struct rtc_timer_struct, list)->id;
		}
		elem = elem->next;
	}
 } 	
     58a:	df 91       	pop	r29
     58c:	cf 91       	pop	r28
     58e:	08 95       	ret

00000590 <rtc_stop_timer>:

 void rtc_stop_timer(uint8_t id) {
     590:	1f 93       	push	r17
     592:	cf 93       	push	r28
     594:	df 93       	push	r29
	struct rtc_timer_struct *timer = rtc_get_timer(id);
     596:	0e 94 25 02 	call	0x44a	; 0x44a <rtc_get_timer>
     59a:	ec 01       	movw	r28, r24
	if(timer == NULL) {
     59c:	00 97       	sbiw	r24, 0x00	; 0
     59e:	51 f1       	breq	.+84     	; 0x5f4 <rtc_stop_timer+0x64>
		return;
	}
	ATOMIC_BLOCK(ATOMIC_RESTORESTATE) {
     5a0:	1f b7       	in	r17, 0x3f	; 63
    return 1;
}

static __inline__ uint8_t __iCliRetVal(void)
{
    cli();
     5a2:	f8 94       	cli
		ll_remove(&(timer->list));
     5a4:	0e 94 dc 03 	call	0x7b8	; 0x7b8 <ll_remove>
		if(rtc_timers_head.next == &rtc_timers_head) {
     5a8:	80 91 3f 24 	lds	r24, 0x243F
     5ac:	90 91 40 24 	lds	r25, 0x2440
     5b0:	8f 53       	subi	r24, 0x3F	; 63
     5b2:	94 42       	sbci	r25, 0x24	; 36
     5b4:	51 f4       	brne	.+20     	; 0x5ca <rtc_stop_timer+0x3a>
			RTC.INTCTRL &= ~(RTC_COMPINTLVL_gm);
     5b6:	e0 e0       	ldi	r30, 0x00	; 0
     5b8:	f4 e0       	ldi	r31, 0x04	; 4
     5ba:	82 81       	ldd	r24, Z+2	; 0x02
     5bc:	83 7f       	andi	r24, 0xF3	; 243
     5be:	82 83       	std	Z+2, r24	; 0x02
			RTC.COMP = 0;
     5c0:	14 86       	std	Z+12, r1	; 0x0c
     5c2:	15 86       	std	Z+13, r1	; 0x0d
			rtc_current = 0;
     5c4:	10 92 43 24 	sts	0x2443, r1
     5c8:	11 c0       	rjmp	.+34     	; 0x5ec <rtc_stop_timer+0x5c>
		} else if(RTC.COMP == timer->time) {
     5ca:	40 91 0c 04 	lds	r20, 0x040C
     5ce:	50 91 0d 04 	lds	r21, 0x040D
     5d2:	60 e0       	ldi	r22, 0x00	; 0
     5d4:	70 e0       	ldi	r23, 0x00	; 0
     5d6:	8f 81       	ldd	r24, Y+7	; 0x07
     5d8:	98 85       	ldd	r25, Y+8	; 0x08
     5da:	a9 85       	ldd	r26, Y+9	; 0x09
     5dc:	ba 85       	ldd	r27, Y+10	; 0x0a
     5de:	48 17       	cp	r20, r24
     5e0:	59 07       	cpc	r21, r25
     5e2:	6a 07       	cpc	r22, r26
     5e4:	7b 07       	cpc	r23, r27
     5e6:	11 f4       	brne	.+4      	; 0x5ec <rtc_stop_timer+0x5c>
			rtc_update_comp();
     5e8:	0e 94 a0 02 	call	0x540	; 0x540 <rtc_update_comp>
		}
		free(timer);
     5ec:	ce 01       	movw	r24, r28
     5ee:	0e 94 85 04 	call	0x90a	; 0x90a <free>
    (void)__s;
}

static __inline__ void __iRestore(const  uint8_t *__s)
{
    SREG = *__s;
     5f2:	1f bf       	out	0x3f, r17	; 63
	}
 }
     5f4:	df 91       	pop	r29
     5f6:	cf 91       	pop	r28
     5f8:	1f 91       	pop	r17
     5fa:	08 95       	ret

000005fc <__vector_11>:

 ISR(RTC_COMP_vect) {
     5fc:	1f 92       	push	r1
     5fe:	0f 92       	push	r0
     600:	0f b6       	in	r0, 0x3f	; 63
     602:	0f 92       	push	r0
     604:	11 24       	eor	r1, r1
     606:	08 b6       	in	r0, 0x38	; 56
     608:	0f 92       	push	r0
     60a:	18 be       	out	0x38, r1	; 56
     60c:	09 b6       	in	r0, 0x39	; 57
     60e:	0f 92       	push	r0
     610:	19 be       	out	0x39, r1	; 57
     612:	0b b6       	in	r0, 0x3b	; 59
     614:	0f 92       	push	r0
     616:	1b be       	out	0x3b, r1	; 59
     618:	2f 93       	push	r18
     61a:	3f 93       	push	r19
     61c:	4f 93       	push	r20
     61e:	5f 93       	push	r21
     620:	6f 93       	push	r22
     622:	7f 93       	push	r23
     624:	8f 93       	push	r24
     626:	9f 93       	push	r25
     628:	af 93       	push	r26
     62a:	bf 93       	push	r27
     62c:	ef 93       	push	r30
     62e:	ff 93       	push	r31
	struct rtc_timer_struct *timer = rtc_get_timer(rtc_current);
     630:	80 91 43 24 	lds	r24, 0x2443
     634:	0e 94 25 02 	call	0x44a	; 0x44a <rtc_get_timer>
	timer->callback(rtc_current);
     638:	20 91 43 24 	lds	r18, 0x2443
     63c:	dc 01       	movw	r26, r24
     63e:	15 96       	adiw	r26, 0x05	; 5
     640:	ed 91       	ld	r30, X+
     642:	fc 91       	ld	r31, X
     644:	16 97       	sbiw	r26, 0x06	; 6
     646:	82 2f       	mov	r24, r18
     648:	19 95       	eicall
	rtc_stop_timer(rtc_current);
     64a:	80 91 43 24 	lds	r24, 0x2443
     64e:	0e 94 c8 02 	call	0x590	; 0x590 <rtc_stop_timer>
     652:	ff 91       	pop	r31
     654:	ef 91       	pop	r30
     656:	bf 91       	pop	r27
     658:	af 91       	pop	r26
     65a:	9f 91       	pop	r25
     65c:	8f 91       	pop	r24
     65e:	7f 91       	pop	r23
     660:	6f 91       	pop	r22
     662:	5f 91       	pop	r21
     664:	4f 91       	pop	r20
     666:	3f 91       	pop	r19
     668:	2f 91       	pop	r18
     66a:	0f 90       	pop	r0
     66c:	0b be       	out	0x3b, r0	; 59
     66e:	0f 90       	pop	r0
     670:	09 be       	out	0x39, r0	; 57
     672:	0f 90       	pop	r0
     674:	08 be       	out	0x38, r0	; 56
     676:	0f 90       	pop	r0
     678:	0f be       	out	0x3f, r0	; 63
     67a:	0f 90       	pop	r0
     67c:	1f 90       	pop	r1
     67e:	18 95       	reti

00000680 <sys_crash>:
 #include "Error.h"
 #include "System.h"
 #include "drivers/PMIC.h"

 void sys_crash(char *msg) {
	cli();
     680:	f8 94       	cli
}

static inline void pmic_disable_all() {
	PMIC.CTRL &= PMIC_RREN_bm;
     682:	e0 ea       	ldi	r30, 0xA0	; 160
     684:	f0 e0       	ldi	r31, 0x00	; 0
     686:	82 81       	ldd	r24, Z+2	; 0x02
     688:	80 78       	andi	r24, 0x80	; 128
     68a:	82 83       	std	Z+2, r24	; 0x02
	asm volatile("nop\nnop\n");
     68c:	00 00       	nop
     68e:	00 00       	nop
	pmic_disable_all();
	//error_enter_safe_state();
	//error_init_error_mode();
	//error_write_error(msg);
	cli();
     690:	f8 94       	cli
	CCP = CCP_IOREG_gc;
     692:	88 ed       	ldi	r24, 0xD8	; 216
     694:	84 bf       	out	0x34, r24	; 52
	RST.CTRL = RST_SWRST_bm;
     696:	81 e0       	ldi	r24, 0x01	; 1
     698:	80 93 79 00 	sts	0x0079, r24
     69c:	08 95       	ret

0000069e <sched_init>:
		return sched_current_task->id;
	}
	return 0;
 }

 void sched_init() {
     69e:	cf 93       	push	r28
     6a0:	df 93       	push	r29
	ids32_create(&sched_task_ids);
     6a2:	88 e4       	ldi	r24, 0x48	; 72
     6a4:	94 e2       	ldi	r25, 0x24	; 36
     6a6:	0e 94 7f 03 	call	0x6fe	; 0x6fe <ids32_create>
	sched_current_task = malloc(sizeof(struct task_struct));
     6aa:	8f e0       	ldi	r24, 0x0F	; 15
     6ac:	90 e0       	ldi	r25, 0x00	; 0
     6ae:	0e 94 f0 03 	call	0x7e0	; 0x7e0 <malloc>
     6b2:	ec 01       	movw	r28, r24
     6b4:	80 93 4c 24 	sts	0x244C, r24
     6b8:	90 93 4d 24 	sts	0x244D, r25
	sched_current_task->id = ids32_aquire(&sched_task_ids);
     6bc:	88 e4       	ldi	r24, 0x48	; 72
     6be:	94 e2       	ldi	r25, 0x24	; 36
     6c0:	0e 94 85 03 	call	0x70a	; 0x70a <ids32_aquire>
     6c4:	88 83       	st	Y, r24
	sched_current_task->flags = 0;
     6c6:	e0 91 4c 24 	lds	r30, 0x244C
     6ca:	f0 91 4d 24 	lds	r31, 0x244D
     6ce:	12 86       	std	Z+10, r1	; 0x0a
	sched_current_task->status = ACTIVE;
     6d0:	11 86       	std	Z+9, r1	; 0x09
	ll_create(&sched_current_task->task_list);
     6d2:	cf 01       	movw	r24, r30
     6d4:	01 96       	adiw	r24, 0x01	; 1
     6d6:	0e 94 c5 03 	call	0x78a	; 0x78a <ll_create>
	ll_create(&sched_current_task->messages);
     6da:	80 91 4c 24 	lds	r24, 0x244C
     6de:	90 91 4d 24 	lds	r25, 0x244D
     6e2:	05 96       	adiw	r24, 0x05	; 5
     6e4:	0e 94 c5 03 	call	0x78a	; 0x78a <ll_create>
	sched_current_task->stack_head = NULL;
     6e8:	e0 91 4c 24 	lds	r30, 0x244C
     6ec:	f0 91 4d 24 	lds	r31, 0x244D
     6f0:	13 86       	std	Z+11, r1	; 0x0b
     6f2:	14 86       	std	Z+12, r1	; 0x0c
	sched_current_task->stack_pointer = NULL;
     6f4:	15 86       	std	Z+13, r1	; 0x0d
     6f6:	16 86       	std	Z+14, r1	; 0x0e
 }
     6f8:	df 91       	pop	r29
     6fa:	cf 91       	pop	r28
     6fc:	08 95       	ret

000006fe <ids32_create>:
 *  Author: Lorenzo Rai
 */ 

 #include "IDs.h"

 void ids32_create(ids32_t *ids) {
     6fe:	fc 01       	movw	r30, r24
	ids->bitmap[0] = 0;
     700:	10 82       	st	Z, r1
	ids->bitmap[1] = 0;
     702:	11 82       	std	Z+1, r1	; 0x01
	ids->bitmap[2] = 0;
     704:	12 82       	std	Z+2, r1	; 0x02
	ids->bitmap[3] = 0;
     706:	13 82       	std	Z+3, r1	; 0x03
     708:	08 95       	ret

0000070a <ids32_aquire>:
 }

 uint8_t ids32_aquire(ids32_t *ids) {
     70a:	cf 93       	push	r28
     70c:	df 93       	push	r29
     70e:	ec 01       	movw	r28, r24
     710:	fc 01       	movw	r30, r24
	uint8_t exit = 1;
	uint8_t i = 0;
     712:	90 e0       	ldi	r25, 0x00	; 0
	do {
		if(ids->bitmap[i] != 0xFF) {
     714:	21 91       	ld	r18, Z+
     716:	2f 3f       	cpi	r18, 0xFF	; 255
     718:	51 f5       	brne	.+84     	; 0x76e <ids32_aquire+0x64>
			exit = 0;
		} else {
			i++;
     71a:	9f 5f       	subi	r25, 0xFF	; 255
			if(i > 3) {
     71c:	94 30       	cpi	r25, 0x04	; 4
     71e:	d1 f7       	brne	.-12     	; 0x714 <ids32_aquire+0xa>
     720:	24 c0       	rjmp	.+72     	; 0x76a <ids32_aquire+0x60>
     722:	62 2f       	mov	r22, r18
		}
	} while(exit);
	exit = 1;
	uint8_t i2 = 0;
	do {
		if((ids->bitmap[i] & (1 << i2)) == 0) {
     724:	af 01       	movw	r20, r30
     726:	02 2e       	mov	r0, r18
     728:	02 c0       	rjmp	.+4      	; 0x72e <ids32_aquire+0x24>
     72a:	55 95       	asr	r21
     72c:	47 95       	ror	r20
     72e:	0a 94       	dec	r0
     730:	e2 f7       	brpl	.-8      	; 0x72a <ids32_aquire+0x20>
     732:	40 fd       	sbrc	r20, 0
     734:	13 c0       	rjmp	.+38     	; 0x75c <ids32_aquire+0x52>
			ids->bitmap[i] |= (1 << i2);
     736:	ac 0f       	add	r26, r28
     738:	bd 1f       	adc	r27, r29
     73a:	21 e0       	ldi	r18, 0x01	; 1
     73c:	30 e0       	ldi	r19, 0x00	; 0
     73e:	06 2e       	mov	r0, r22
     740:	02 c0       	rjmp	.+4      	; 0x746 <ids32_aquire+0x3c>
     742:	22 0f       	add	r18, r18
     744:	33 1f       	adc	r19, r19
     746:	0a 94       	dec	r0
     748:	e2 f7       	brpl	.-8      	; 0x742 <ids32_aquire+0x38>
     74a:	28 2b       	or	r18, r24
     74c:	2c 93       	st	X, r18
				//ERROR
				return 0;
			}
		}
	} while(exit);
	return i * 8 + i2 + 1;
     74e:	99 0f       	add	r25, r25
     750:	99 0f       	add	r25, r25
     752:	99 0f       	add	r25, r25
     754:	9f 5f       	subi	r25, 0xFF	; 255
     756:	89 2f       	mov	r24, r25
     758:	86 0f       	add	r24, r22
     75a:	14 c0       	rjmp	.+40     	; 0x784 <ids32_aquire+0x7a>
     75c:	2f 5f       	subi	r18, 0xFF	; 255
     75e:	3f 4f       	sbci	r19, 0xFF	; 255
		if((ids->bitmap[i] & (1 << i2)) == 0) {
			ids->bitmap[i] |= (1 << i2);
			exit = 0;
		} else {
			i2++;
			if(i2 > 7) {
     760:	28 30       	cpi	r18, 0x08	; 8
     762:	31 05       	cpc	r19, r1
     764:	f1 f6       	brne	.-68     	; 0x722 <ids32_aquire+0x18>
				//ERROR
				return 0;
     766:	80 e0       	ldi	r24, 0x00	; 0
     768:	0d c0       	rjmp	.+26     	; 0x784 <ids32_aquire+0x7a>
		if(ids->bitmap[i] != 0xFF) {
			exit = 0;
		} else {
			i++;
			if(i > 3) {
				return 0;
     76a:	80 e0       	ldi	r24, 0x00	; 0
     76c:	0b c0       	rjmp	.+22     	; 0x784 <ids32_aquire+0x7a>
		}
	} while(exit);
	exit = 1;
	uint8_t i2 = 0;
	do {
		if((ids->bitmap[i] & (1 << i2)) == 0) {
     76e:	a9 2f       	mov	r26, r25
     770:	b0 e0       	ldi	r27, 0x00	; 0
     772:	fe 01       	movw	r30, r28
     774:	ea 0f       	add	r30, r26
     776:	fb 1f       	adc	r31, r27
     778:	80 81       	ld	r24, Z
     77a:	e8 2f       	mov	r30, r24
     77c:	f0 e0       	ldi	r31, 0x00	; 0
     77e:	20 e0       	ldi	r18, 0x00	; 0
     780:	30 e0       	ldi	r19, 0x00	; 0
     782:	cf cf       	rjmp	.-98     	; 0x722 <ids32_aquire+0x18>
				return 0;
			}
		}
	} while(exit);
	return i * 8 + i2 + 1;
 }
     784:	df 91       	pop	r29
     786:	cf 91       	pop	r28
     788:	08 95       	ret

0000078a <ll_create>:
 */ 

 #include "LinkedList.h"

 void ll_create(linked_list_t *list) {
	list->next = list;
     78a:	fc 01       	movw	r30, r24
     78c:	80 83       	st	Z, r24
     78e:	91 83       	std	Z+1, r25	; 0x01
	list->prev = list;
     790:	82 83       	std	Z+2, r24	; 0x02
     792:	93 83       	std	Z+3, r25	; 0x03
     794:	08 95       	ret

00000796 <ll_add_before>:
	elem->prev = list;
	list->next->prev = elem;
	list->next = elem;
 }

 void ll_add_before(linked_list_t *list, linked_list_t *elem) {
     796:	fc 01       	movw	r30, r24
	elem->prev = list->prev;
     798:	82 81       	ldd	r24, Z+2	; 0x02
     79a:	93 81       	ldd	r25, Z+3	; 0x03
     79c:	db 01       	movw	r26, r22
     79e:	12 96       	adiw	r26, 0x02	; 2
     7a0:	8d 93       	st	X+, r24
     7a2:	9c 93       	st	X, r25
     7a4:	13 97       	sbiw	r26, 0x03	; 3
	elem->next = list;
     7a6:	ed 93       	st	X+, r30
     7a8:	fc 93       	st	X, r31
	list->prev->next = elem;
     7aa:	a2 81       	ldd	r26, Z+2	; 0x02
     7ac:	b3 81       	ldd	r27, Z+3	; 0x03
     7ae:	6d 93       	st	X+, r22
     7b0:	7c 93       	st	X, r23
	list->prev = elem;
     7b2:	62 83       	std	Z+2, r22	; 0x02
     7b4:	73 83       	std	Z+3, r23	; 0x03
     7b6:	08 95       	ret

000007b8 <ll_remove>:
 }

 void ll_remove(linked_list_t *elem) {
     7b8:	fc 01       	movw	r30, r24
	elem->prev->next = elem->next;
     7ba:	a2 81       	ldd	r26, Z+2	; 0x02
     7bc:	b3 81       	ldd	r27, Z+3	; 0x03
     7be:	80 81       	ld	r24, Z
     7c0:	91 81       	ldd	r25, Z+1	; 0x01
     7c2:	8d 93       	st	X+, r24
     7c4:	9c 93       	st	X, r25
	elem->next->prev = elem->prev;
     7c6:	a0 81       	ld	r26, Z
     7c8:	b1 81       	ldd	r27, Z+1	; 0x01
     7ca:	82 81       	ldd	r24, Z+2	; 0x02
     7cc:	93 81       	ldd	r25, Z+3	; 0x03
     7ce:	12 96       	adiw	r26, 0x02	; 2
     7d0:	8d 93       	st	X+, r24
     7d2:	9c 93       	st	X, r25
     7d4:	13 97       	sbiw	r26, 0x03	; 3
	elem->prev = elem;
     7d6:	e2 83       	std	Z+2, r30	; 0x02
     7d8:	f3 83       	std	Z+3, r31	; 0x03
	elem->next = elem;
     7da:	e0 83       	st	Z, r30
     7dc:	f1 83       	std	Z+1, r31	; 0x01
     7de:	08 95       	ret

000007e0 <malloc>:
     7e0:	cf 93       	push	r28
     7e2:	df 93       	push	r29
     7e4:	82 30       	cpi	r24, 0x02	; 2
     7e6:	91 05       	cpc	r25, r1
     7e8:	10 f4       	brcc	.+4      	; 0x7ee <malloc+0xe>
     7ea:	82 e0       	ldi	r24, 0x02	; 2
     7ec:	90 e0       	ldi	r25, 0x00	; 0
     7ee:	e0 91 50 24 	lds	r30, 0x2450
     7f2:	f0 91 51 24 	lds	r31, 0x2451
     7f6:	20 e0       	ldi	r18, 0x00	; 0
     7f8:	30 e0       	ldi	r19, 0x00	; 0
     7fa:	c0 e0       	ldi	r28, 0x00	; 0
     7fc:	d0 e0       	ldi	r29, 0x00	; 0
     7fe:	30 97       	sbiw	r30, 0x00	; 0
     800:	11 f1       	breq	.+68     	; 0x846 <malloc+0x66>
     802:	40 81       	ld	r20, Z
     804:	51 81       	ldd	r21, Z+1	; 0x01
     806:	48 17       	cp	r20, r24
     808:	59 07       	cpc	r21, r25
     80a:	c0 f0       	brcs	.+48     	; 0x83c <malloc+0x5c>
     80c:	48 17       	cp	r20, r24
     80e:	59 07       	cpc	r21, r25
     810:	61 f4       	brne	.+24     	; 0x82a <malloc+0x4a>
     812:	82 81       	ldd	r24, Z+2	; 0x02
     814:	93 81       	ldd	r25, Z+3	; 0x03
     816:	20 97       	sbiw	r28, 0x00	; 0
     818:	19 f0       	breq	.+6      	; 0x820 <malloc+0x40>
     81a:	8a 83       	std	Y+2, r24	; 0x02
     81c:	9b 83       	std	Y+3, r25	; 0x03
     81e:	2b c0       	rjmp	.+86     	; 0x876 <malloc+0x96>
     820:	80 93 50 24 	sts	0x2450, r24
     824:	90 93 51 24 	sts	0x2451, r25
     828:	26 c0       	rjmp	.+76     	; 0x876 <malloc+0x96>
     82a:	21 15       	cp	r18, r1
     82c:	31 05       	cpc	r19, r1
     82e:	19 f0       	breq	.+6      	; 0x836 <malloc+0x56>
     830:	42 17       	cp	r20, r18
     832:	53 07       	cpc	r21, r19
     834:	18 f4       	brcc	.+6      	; 0x83c <malloc+0x5c>
     836:	9a 01       	movw	r18, r20
     838:	be 01       	movw	r22, r28
     83a:	df 01       	movw	r26, r30
     83c:	ef 01       	movw	r28, r30
     83e:	02 80       	ldd	r0, Z+2	; 0x02
     840:	f3 81       	ldd	r31, Z+3	; 0x03
     842:	e0 2d       	mov	r30, r0
     844:	dc cf       	rjmp	.-72     	; 0x7fe <malloc+0x1e>
     846:	21 15       	cp	r18, r1
     848:	31 05       	cpc	r19, r1
     84a:	09 f1       	breq	.+66     	; 0x88e <malloc+0xae>
     84c:	28 1b       	sub	r18, r24
     84e:	39 0b       	sbc	r19, r25
     850:	24 30       	cpi	r18, 0x04	; 4
     852:	31 05       	cpc	r19, r1
     854:	90 f4       	brcc	.+36     	; 0x87a <malloc+0x9a>
     856:	12 96       	adiw	r26, 0x02	; 2
     858:	8d 91       	ld	r24, X+
     85a:	9c 91       	ld	r25, X
     85c:	13 97       	sbiw	r26, 0x03	; 3
     85e:	61 15       	cp	r22, r1
     860:	71 05       	cpc	r23, r1
     862:	21 f0       	breq	.+8      	; 0x86c <malloc+0x8c>
     864:	fb 01       	movw	r30, r22
     866:	82 83       	std	Z+2, r24	; 0x02
     868:	93 83       	std	Z+3, r25	; 0x03
     86a:	04 c0       	rjmp	.+8      	; 0x874 <malloc+0x94>
     86c:	80 93 50 24 	sts	0x2450, r24
     870:	90 93 51 24 	sts	0x2451, r25
     874:	fd 01       	movw	r30, r26
     876:	32 96       	adiw	r30, 0x02	; 2
     878:	44 c0       	rjmp	.+136    	; 0x902 <malloc+0x122>
     87a:	fd 01       	movw	r30, r26
     87c:	e2 0f       	add	r30, r18
     87e:	f3 1f       	adc	r31, r19
     880:	81 93       	st	Z+, r24
     882:	91 93       	st	Z+, r25
     884:	22 50       	subi	r18, 0x02	; 2
     886:	31 09       	sbc	r19, r1
     888:	2d 93       	st	X+, r18
     88a:	3c 93       	st	X, r19
     88c:	3a c0       	rjmp	.+116    	; 0x902 <malloc+0x122>
     88e:	20 91 4e 24 	lds	r18, 0x244E
     892:	30 91 4f 24 	lds	r19, 0x244F
     896:	23 2b       	or	r18, r19
     898:	41 f4       	brne	.+16     	; 0x8aa <malloc+0xca>
     89a:	20 91 02 20 	lds	r18, 0x2002
     89e:	30 91 03 20 	lds	r19, 0x2003
     8a2:	20 93 4e 24 	sts	0x244E, r18
     8a6:	30 93 4f 24 	sts	0x244F, r19
     8aa:	20 91 00 20 	lds	r18, 0x2000
     8ae:	30 91 01 20 	lds	r19, 0x2001
     8b2:	21 15       	cp	r18, r1
     8b4:	31 05       	cpc	r19, r1
     8b6:	41 f4       	brne	.+16     	; 0x8c8 <malloc+0xe8>
     8b8:	2d b7       	in	r18, 0x3d	; 61
     8ba:	3e b7       	in	r19, 0x3e	; 62
     8bc:	40 91 04 20 	lds	r20, 0x2004
     8c0:	50 91 05 20 	lds	r21, 0x2005
     8c4:	24 1b       	sub	r18, r20
     8c6:	35 0b       	sbc	r19, r21
     8c8:	e0 91 4e 24 	lds	r30, 0x244E
     8cc:	f0 91 4f 24 	lds	r31, 0x244F
     8d0:	e2 17       	cp	r30, r18
     8d2:	f3 07       	cpc	r31, r19
     8d4:	a0 f4       	brcc	.+40     	; 0x8fe <malloc+0x11e>
     8d6:	2e 1b       	sub	r18, r30
     8d8:	3f 0b       	sbc	r19, r31
     8da:	28 17       	cp	r18, r24
     8dc:	39 07       	cpc	r19, r25
     8de:	78 f0       	brcs	.+30     	; 0x8fe <malloc+0x11e>
     8e0:	ac 01       	movw	r20, r24
     8e2:	4e 5f       	subi	r20, 0xFE	; 254
     8e4:	5f 4f       	sbci	r21, 0xFF	; 255
     8e6:	24 17       	cp	r18, r20
     8e8:	35 07       	cpc	r19, r21
     8ea:	48 f0       	brcs	.+18     	; 0x8fe <malloc+0x11e>
     8ec:	4e 0f       	add	r20, r30
     8ee:	5f 1f       	adc	r21, r31
     8f0:	40 93 4e 24 	sts	0x244E, r20
     8f4:	50 93 4f 24 	sts	0x244F, r21
     8f8:	81 93       	st	Z+, r24
     8fa:	91 93       	st	Z+, r25
     8fc:	02 c0       	rjmp	.+4      	; 0x902 <malloc+0x122>
     8fe:	e0 e0       	ldi	r30, 0x00	; 0
     900:	f0 e0       	ldi	r31, 0x00	; 0
     902:	cf 01       	movw	r24, r30
     904:	df 91       	pop	r29
     906:	cf 91       	pop	r28
     908:	08 95       	ret

0000090a <free>:
     90a:	0f 93       	push	r16
     90c:	1f 93       	push	r17
     90e:	cf 93       	push	r28
     910:	df 93       	push	r29
     912:	00 97       	sbiw	r24, 0x00	; 0
     914:	09 f4       	brne	.+2      	; 0x918 <free+0xe>
     916:	8c c0       	rjmp	.+280    	; 0xa30 <free+0x126>
     918:	fc 01       	movw	r30, r24
     91a:	32 97       	sbiw	r30, 0x02	; 2
     91c:	12 82       	std	Z+2, r1	; 0x02
     91e:	13 82       	std	Z+3, r1	; 0x03
     920:	00 91 50 24 	lds	r16, 0x2450
     924:	10 91 51 24 	lds	r17, 0x2451
     928:	01 15       	cp	r16, r1
     92a:	11 05       	cpc	r17, r1
     92c:	81 f4       	brne	.+32     	; 0x94e <free+0x44>
     92e:	20 81       	ld	r18, Z
     930:	31 81       	ldd	r19, Z+1	; 0x01
     932:	82 0f       	add	r24, r18
     934:	93 1f       	adc	r25, r19
     936:	20 91 4e 24 	lds	r18, 0x244E
     93a:	30 91 4f 24 	lds	r19, 0x244F
     93e:	28 17       	cp	r18, r24
     940:	39 07       	cpc	r19, r25
     942:	79 f5       	brne	.+94     	; 0x9a2 <free+0x98>
     944:	e0 93 4e 24 	sts	0x244E, r30
     948:	f0 93 4f 24 	sts	0x244F, r31
     94c:	71 c0       	rjmp	.+226    	; 0xa30 <free+0x126>
     94e:	d8 01       	movw	r26, r16
     950:	40 e0       	ldi	r20, 0x00	; 0
     952:	50 e0       	ldi	r21, 0x00	; 0
     954:	ae 17       	cp	r26, r30
     956:	bf 07       	cpc	r27, r31
     958:	50 f4       	brcc	.+20     	; 0x96e <free+0x64>
     95a:	12 96       	adiw	r26, 0x02	; 2
     95c:	2d 91       	ld	r18, X+
     95e:	3c 91       	ld	r19, X
     960:	13 97       	sbiw	r26, 0x03	; 3
     962:	ad 01       	movw	r20, r26
     964:	21 15       	cp	r18, r1
     966:	31 05       	cpc	r19, r1
     968:	09 f1       	breq	.+66     	; 0x9ac <free+0xa2>
     96a:	d9 01       	movw	r26, r18
     96c:	f3 cf       	rjmp	.-26     	; 0x954 <free+0x4a>
     96e:	9d 01       	movw	r18, r26
     970:	da 01       	movw	r26, r20
     972:	22 83       	std	Z+2, r18	; 0x02
     974:	33 83       	std	Z+3, r19	; 0x03
     976:	60 81       	ld	r22, Z
     978:	71 81       	ldd	r23, Z+1	; 0x01
     97a:	86 0f       	add	r24, r22
     97c:	97 1f       	adc	r25, r23
     97e:	82 17       	cp	r24, r18
     980:	93 07       	cpc	r25, r19
     982:	69 f4       	brne	.+26     	; 0x99e <free+0x94>
     984:	ec 01       	movw	r28, r24
     986:	28 81       	ld	r18, Y
     988:	39 81       	ldd	r19, Y+1	; 0x01
     98a:	26 0f       	add	r18, r22
     98c:	37 1f       	adc	r19, r23
     98e:	2e 5f       	subi	r18, 0xFE	; 254
     990:	3f 4f       	sbci	r19, 0xFF	; 255
     992:	20 83       	st	Z, r18
     994:	31 83       	std	Z+1, r19	; 0x01
     996:	8a 81       	ldd	r24, Y+2	; 0x02
     998:	9b 81       	ldd	r25, Y+3	; 0x03
     99a:	82 83       	std	Z+2, r24	; 0x02
     99c:	93 83       	std	Z+3, r25	; 0x03
     99e:	45 2b       	or	r20, r21
     9a0:	29 f4       	brne	.+10     	; 0x9ac <free+0xa2>
     9a2:	e0 93 50 24 	sts	0x2450, r30
     9a6:	f0 93 51 24 	sts	0x2451, r31
     9aa:	42 c0       	rjmp	.+132    	; 0xa30 <free+0x126>
     9ac:	12 96       	adiw	r26, 0x02	; 2
     9ae:	ed 93       	st	X+, r30
     9b0:	fc 93       	st	X, r31
     9b2:	13 97       	sbiw	r26, 0x03	; 3
     9b4:	ed 01       	movw	r28, r26
     9b6:	49 91       	ld	r20, Y+
     9b8:	59 91       	ld	r21, Y+
     9ba:	9e 01       	movw	r18, r28
     9bc:	24 0f       	add	r18, r20
     9be:	35 1f       	adc	r19, r21
     9c0:	e2 17       	cp	r30, r18
     9c2:	f3 07       	cpc	r31, r19
     9c4:	71 f4       	brne	.+28     	; 0x9e2 <free+0xd8>
     9c6:	80 81       	ld	r24, Z
     9c8:	91 81       	ldd	r25, Z+1	; 0x01
     9ca:	84 0f       	add	r24, r20
     9cc:	95 1f       	adc	r25, r21
     9ce:	02 96       	adiw	r24, 0x02	; 2
     9d0:	8d 93       	st	X+, r24
     9d2:	9c 93       	st	X, r25
     9d4:	11 97       	sbiw	r26, 0x01	; 1
     9d6:	82 81       	ldd	r24, Z+2	; 0x02
     9d8:	93 81       	ldd	r25, Z+3	; 0x03
     9da:	12 96       	adiw	r26, 0x02	; 2
     9dc:	8d 93       	st	X+, r24
     9de:	9c 93       	st	X, r25
     9e0:	13 97       	sbiw	r26, 0x03	; 3
     9e2:	e0 e0       	ldi	r30, 0x00	; 0
     9e4:	f0 e0       	ldi	r31, 0x00	; 0
     9e6:	d8 01       	movw	r26, r16
     9e8:	12 96       	adiw	r26, 0x02	; 2
     9ea:	8d 91       	ld	r24, X+
     9ec:	9c 91       	ld	r25, X
     9ee:	13 97       	sbiw	r26, 0x03	; 3
     9f0:	00 97       	sbiw	r24, 0x00	; 0
     9f2:	19 f0       	breq	.+6      	; 0x9fa <free+0xf0>
     9f4:	f8 01       	movw	r30, r16
     9f6:	8c 01       	movw	r16, r24
     9f8:	f6 cf       	rjmp	.-20     	; 0x9e6 <free+0xdc>
     9fa:	8d 91       	ld	r24, X+
     9fc:	9c 91       	ld	r25, X
     9fe:	98 01       	movw	r18, r16
     a00:	2e 5f       	subi	r18, 0xFE	; 254
     a02:	3f 4f       	sbci	r19, 0xFF	; 255
     a04:	82 0f       	add	r24, r18
     a06:	93 1f       	adc	r25, r19
     a08:	20 91 4e 24 	lds	r18, 0x244E
     a0c:	30 91 4f 24 	lds	r19, 0x244F
     a10:	28 17       	cp	r18, r24
     a12:	39 07       	cpc	r19, r25
     a14:	69 f4       	brne	.+26     	; 0xa30 <free+0x126>
     a16:	30 97       	sbiw	r30, 0x00	; 0
     a18:	29 f4       	brne	.+10     	; 0xa24 <free+0x11a>
     a1a:	10 92 50 24 	sts	0x2450, r1
     a1e:	10 92 51 24 	sts	0x2451, r1
     a22:	02 c0       	rjmp	.+4      	; 0xa28 <free+0x11e>
     a24:	12 82       	std	Z+2, r1	; 0x02
     a26:	13 82       	std	Z+3, r1	; 0x03
     a28:	00 93 4e 24 	sts	0x244E, r16
     a2c:	10 93 4f 24 	sts	0x244F, r17
     a30:	df 91       	pop	r29
     a32:	cf 91       	pop	r28
     a34:	1f 91       	pop	r17
     a36:	0f 91       	pop	r16
     a38:	08 95       	ret

00000a3a <strcat>:
     a3a:	fb 01       	movw	r30, r22
     a3c:	dc 01       	movw	r26, r24
     a3e:	0d 90       	ld	r0, X+
     a40:	00 20       	and	r0, r0
     a42:	e9 f7       	brne	.-6      	; 0xa3e <strcat+0x4>
     a44:	11 97       	sbiw	r26, 0x01	; 1
     a46:	01 90       	ld	r0, Z+
     a48:	0d 92       	st	X+, r0
     a4a:	00 20       	and	r0, r0
     a4c:	e1 f7       	brne	.-8      	; 0xa46 <strcat+0xc>
     a4e:	08 95       	ret

00000a50 <printf>:
     a50:	cf 93       	push	r28
     a52:	df 93       	push	r29
     a54:	cd b7       	in	r28, 0x3d	; 61
     a56:	de b7       	in	r29, 0x3e	; 62
     a58:	ae 01       	movw	r20, r28
     a5a:	4a 5f       	subi	r20, 0xFA	; 250
     a5c:	5f 4f       	sbci	r21, 0xFF	; 255
     a5e:	fa 01       	movw	r30, r20
     a60:	61 91       	ld	r22, Z+
     a62:	71 91       	ld	r23, Z+
     a64:	af 01       	movw	r20, r30
     a66:	80 91 54 24 	lds	r24, 0x2454
     a6a:	90 91 55 24 	lds	r25, 0x2455
     a6e:	0e 94 66 05 	call	0xacc	; 0xacc <vfprintf>
     a72:	df 91       	pop	r29
     a74:	cf 91       	pop	r28
     a76:	08 95       	ret

00000a78 <sprintf>:
     a78:	0f 93       	push	r16
     a7a:	1f 93       	push	r17
     a7c:	cf 93       	push	r28
     a7e:	df 93       	push	r29
     a80:	cd b7       	in	r28, 0x3d	; 61
     a82:	de b7       	in	r29, 0x3e	; 62
     a84:	2e 97       	sbiw	r28, 0x0e	; 14
     a86:	cd bf       	out	0x3d, r28	; 61
     a88:	de bf       	out	0x3e, r29	; 62
     a8a:	0e 89       	ldd	r16, Y+22	; 0x16
     a8c:	1f 89       	ldd	r17, Y+23	; 0x17
     a8e:	86 e0       	ldi	r24, 0x06	; 6
     a90:	8c 83       	std	Y+4, r24	; 0x04
     a92:	09 83       	std	Y+1, r16	; 0x01
     a94:	1a 83       	std	Y+2, r17	; 0x02
     a96:	8f ef       	ldi	r24, 0xFF	; 255
     a98:	9f e7       	ldi	r25, 0x7F	; 127
     a9a:	8d 83       	std	Y+5, r24	; 0x05
     a9c:	9e 83       	std	Y+6, r25	; 0x06
     a9e:	ae 01       	movw	r20, r28
     aa0:	46 5e       	subi	r20, 0xE6	; 230
     aa2:	5f 4f       	sbci	r21, 0xFF	; 255
     aa4:	68 8d       	ldd	r22, Y+24	; 0x18
     aa6:	79 8d       	ldd	r23, Y+25	; 0x19
     aa8:	ce 01       	movw	r24, r28
     aaa:	01 96       	adiw	r24, 0x01	; 1
     aac:	0e 94 66 05 	call	0xacc	; 0xacc <vfprintf>
     ab0:	2f 81       	ldd	r18, Y+7	; 0x07
     ab2:	38 85       	ldd	r19, Y+8	; 0x08
     ab4:	f8 01       	movw	r30, r16
     ab6:	e2 0f       	add	r30, r18
     ab8:	f3 1f       	adc	r31, r19
     aba:	10 82       	st	Z, r1
     abc:	2e 96       	adiw	r28, 0x0e	; 14
     abe:	cd bf       	out	0x3d, r28	; 61
     ac0:	de bf       	out	0x3e, r29	; 62
     ac2:	df 91       	pop	r29
     ac4:	cf 91       	pop	r28
     ac6:	1f 91       	pop	r17
     ac8:	0f 91       	pop	r16
     aca:	08 95       	ret

00000acc <vfprintf>:
     acc:	2f 92       	push	r2
     ace:	3f 92       	push	r3
     ad0:	4f 92       	push	r4
     ad2:	5f 92       	push	r5
     ad4:	6f 92       	push	r6
     ad6:	7f 92       	push	r7
     ad8:	8f 92       	push	r8
     ada:	9f 92       	push	r9
     adc:	af 92       	push	r10
     ade:	bf 92       	push	r11
     ae0:	cf 92       	push	r12
     ae2:	df 92       	push	r13
     ae4:	ef 92       	push	r14
     ae6:	ff 92       	push	r15
     ae8:	0f 93       	push	r16
     aea:	1f 93       	push	r17
     aec:	cf 93       	push	r28
     aee:	df 93       	push	r29
     af0:	cd b7       	in	r28, 0x3d	; 61
     af2:	de b7       	in	r29, 0x3e	; 62
     af4:	2c 97       	sbiw	r28, 0x0c	; 12
     af6:	cd bf       	out	0x3d, r28	; 61
     af8:	de bf       	out	0x3e, r29	; 62
     afa:	7c 01       	movw	r14, r24
     afc:	6b 01       	movw	r12, r22
     afe:	8a 01       	movw	r16, r20
     b00:	fc 01       	movw	r30, r24
     b02:	16 82       	std	Z+6, r1	; 0x06
     b04:	17 82       	std	Z+7, r1	; 0x07
     b06:	83 81       	ldd	r24, Z+3	; 0x03
     b08:	81 ff       	sbrs	r24, 1
     b0a:	bd c1       	rjmp	.+890    	; 0xe86 <vfprintf+0x3ba>
     b0c:	ce 01       	movw	r24, r28
     b0e:	01 96       	adiw	r24, 0x01	; 1
     b10:	4c 01       	movw	r8, r24
     b12:	f7 01       	movw	r30, r14
     b14:	93 81       	ldd	r25, Z+3	; 0x03
     b16:	f6 01       	movw	r30, r12
     b18:	93 fd       	sbrc	r25, 3
     b1a:	85 91       	lpm	r24, Z+
     b1c:	93 ff       	sbrs	r25, 3
     b1e:	81 91       	ld	r24, Z+
     b20:	6f 01       	movw	r12, r30
     b22:	88 23       	and	r24, r24
     b24:	09 f4       	brne	.+2      	; 0xb28 <vfprintf+0x5c>
     b26:	ab c1       	rjmp	.+854    	; 0xe7e <vfprintf+0x3b2>
     b28:	85 32       	cpi	r24, 0x25	; 37
     b2a:	39 f4       	brne	.+14     	; 0xb3a <vfprintf+0x6e>
     b2c:	93 fd       	sbrc	r25, 3
     b2e:	85 91       	lpm	r24, Z+
     b30:	93 ff       	sbrs	r25, 3
     b32:	81 91       	ld	r24, Z+
     b34:	6f 01       	movw	r12, r30
     b36:	85 32       	cpi	r24, 0x25	; 37
     b38:	29 f4       	brne	.+10     	; 0xb44 <vfprintf+0x78>
     b3a:	b7 01       	movw	r22, r14
     b3c:	90 e0       	ldi	r25, 0x00	; 0
     b3e:	0e 94 71 07 	call	0xee2	; 0xee2 <fputc>
     b42:	e7 cf       	rjmp	.-50     	; 0xb12 <vfprintf+0x46>
     b44:	51 2c       	mov	r5, r1
     b46:	31 2c       	mov	r3, r1
     b48:	20 e0       	ldi	r18, 0x00	; 0
     b4a:	20 32       	cpi	r18, 0x20	; 32
     b4c:	a0 f4       	brcc	.+40     	; 0xb76 <vfprintf+0xaa>
     b4e:	8b 32       	cpi	r24, 0x2B	; 43
     b50:	69 f0       	breq	.+26     	; 0xb6c <vfprintf+0xa0>
     b52:	30 f4       	brcc	.+12     	; 0xb60 <vfprintf+0x94>
     b54:	80 32       	cpi	r24, 0x20	; 32
     b56:	59 f0       	breq	.+22     	; 0xb6e <vfprintf+0xa2>
     b58:	83 32       	cpi	r24, 0x23	; 35
     b5a:	69 f4       	brne	.+26     	; 0xb76 <vfprintf+0xaa>
     b5c:	20 61       	ori	r18, 0x10	; 16
     b5e:	2c c0       	rjmp	.+88     	; 0xbb8 <vfprintf+0xec>
     b60:	8d 32       	cpi	r24, 0x2D	; 45
     b62:	39 f0       	breq	.+14     	; 0xb72 <vfprintf+0xa6>
     b64:	80 33       	cpi	r24, 0x30	; 48
     b66:	39 f4       	brne	.+14     	; 0xb76 <vfprintf+0xaa>
     b68:	21 60       	ori	r18, 0x01	; 1
     b6a:	26 c0       	rjmp	.+76     	; 0xbb8 <vfprintf+0xec>
     b6c:	22 60       	ori	r18, 0x02	; 2
     b6e:	24 60       	ori	r18, 0x04	; 4
     b70:	23 c0       	rjmp	.+70     	; 0xbb8 <vfprintf+0xec>
     b72:	28 60       	ori	r18, 0x08	; 8
     b74:	21 c0       	rjmp	.+66     	; 0xbb8 <vfprintf+0xec>
     b76:	27 fd       	sbrc	r18, 7
     b78:	27 c0       	rjmp	.+78     	; 0xbc8 <vfprintf+0xfc>
     b7a:	30 ed       	ldi	r19, 0xD0	; 208
     b7c:	38 0f       	add	r19, r24
     b7e:	3a 30       	cpi	r19, 0x0A	; 10
     b80:	78 f4       	brcc	.+30     	; 0xba0 <vfprintf+0xd4>
     b82:	26 ff       	sbrs	r18, 6
     b84:	06 c0       	rjmp	.+12     	; 0xb92 <vfprintf+0xc6>
     b86:	fa e0       	ldi	r31, 0x0A	; 10
     b88:	5f 9e       	mul	r5, r31
     b8a:	30 0d       	add	r19, r0
     b8c:	11 24       	eor	r1, r1
     b8e:	53 2e       	mov	r5, r19
     b90:	13 c0       	rjmp	.+38     	; 0xbb8 <vfprintf+0xec>
     b92:	8a e0       	ldi	r24, 0x0A	; 10
     b94:	38 9e       	mul	r3, r24
     b96:	30 0d       	add	r19, r0
     b98:	11 24       	eor	r1, r1
     b9a:	33 2e       	mov	r3, r19
     b9c:	20 62       	ori	r18, 0x20	; 32
     b9e:	0c c0       	rjmp	.+24     	; 0xbb8 <vfprintf+0xec>
     ba0:	8e 32       	cpi	r24, 0x2E	; 46
     ba2:	21 f4       	brne	.+8      	; 0xbac <vfprintf+0xe0>
     ba4:	26 fd       	sbrc	r18, 6
     ba6:	6b c1       	rjmp	.+726    	; 0xe7e <vfprintf+0x3b2>
     ba8:	20 64       	ori	r18, 0x40	; 64
     baa:	06 c0       	rjmp	.+12     	; 0xbb8 <vfprintf+0xec>
     bac:	8c 36       	cpi	r24, 0x6C	; 108
     bae:	11 f4       	brne	.+4      	; 0xbb4 <vfprintf+0xe8>
     bb0:	20 68       	ori	r18, 0x80	; 128
     bb2:	02 c0       	rjmp	.+4      	; 0xbb8 <vfprintf+0xec>
     bb4:	88 36       	cpi	r24, 0x68	; 104
     bb6:	41 f4       	brne	.+16     	; 0xbc8 <vfprintf+0xfc>
     bb8:	f6 01       	movw	r30, r12
     bba:	93 fd       	sbrc	r25, 3
     bbc:	85 91       	lpm	r24, Z+
     bbe:	93 ff       	sbrs	r25, 3
     bc0:	81 91       	ld	r24, Z+
     bc2:	6f 01       	movw	r12, r30
     bc4:	81 11       	cpse	r24, r1
     bc6:	c1 cf       	rjmp	.-126    	; 0xb4a <vfprintf+0x7e>
     bc8:	98 2f       	mov	r25, r24
     bca:	9f 7d       	andi	r25, 0xDF	; 223
     bcc:	95 54       	subi	r25, 0x45	; 69
     bce:	93 30       	cpi	r25, 0x03	; 3
     bd0:	28 f4       	brcc	.+10     	; 0xbdc <vfprintf+0x110>
     bd2:	0c 5f       	subi	r16, 0xFC	; 252
     bd4:	1f 4f       	sbci	r17, 0xFF	; 255
     bd6:	ff e3       	ldi	r31, 0x3F	; 63
     bd8:	f9 83       	std	Y+1, r31	; 0x01
     bda:	0d c0       	rjmp	.+26     	; 0xbf6 <vfprintf+0x12a>
     bdc:	83 36       	cpi	r24, 0x63	; 99
     bde:	31 f0       	breq	.+12     	; 0xbec <vfprintf+0x120>
     be0:	83 37       	cpi	r24, 0x73	; 115
     be2:	71 f0       	breq	.+28     	; 0xc00 <vfprintf+0x134>
     be4:	83 35       	cpi	r24, 0x53	; 83
     be6:	09 f0       	breq	.+2      	; 0xbea <vfprintf+0x11e>
     be8:	5b c0       	rjmp	.+182    	; 0xca0 <vfprintf+0x1d4>
     bea:	22 c0       	rjmp	.+68     	; 0xc30 <vfprintf+0x164>
     bec:	f8 01       	movw	r30, r16
     bee:	80 81       	ld	r24, Z
     bf0:	89 83       	std	Y+1, r24	; 0x01
     bf2:	0e 5f       	subi	r16, 0xFE	; 254
     bf4:	1f 4f       	sbci	r17, 0xFF	; 255
     bf6:	44 24       	eor	r4, r4
     bf8:	43 94       	inc	r4
     bfa:	51 2c       	mov	r5, r1
     bfc:	54 01       	movw	r10, r8
     bfe:	15 c0       	rjmp	.+42     	; 0xc2a <vfprintf+0x15e>
     c00:	38 01       	movw	r6, r16
     c02:	f2 e0       	ldi	r31, 0x02	; 2
     c04:	6f 0e       	add	r6, r31
     c06:	71 1c       	adc	r7, r1
     c08:	f8 01       	movw	r30, r16
     c0a:	a0 80       	ld	r10, Z
     c0c:	b1 80       	ldd	r11, Z+1	; 0x01
     c0e:	26 ff       	sbrs	r18, 6
     c10:	03 c0       	rjmp	.+6      	; 0xc18 <vfprintf+0x14c>
     c12:	65 2d       	mov	r22, r5
     c14:	70 e0       	ldi	r23, 0x00	; 0
     c16:	02 c0       	rjmp	.+4      	; 0xc1c <vfprintf+0x150>
     c18:	6f ef       	ldi	r22, 0xFF	; 255
     c1a:	7f ef       	ldi	r23, 0xFF	; 255
     c1c:	c5 01       	movw	r24, r10
     c1e:	2c 87       	std	Y+12, r18	; 0x0c
     c20:	0e 94 66 07 	call	0xecc	; 0xecc <strnlen>
     c24:	2c 01       	movw	r4, r24
     c26:	83 01       	movw	r16, r6
     c28:	2c 85       	ldd	r18, Y+12	; 0x0c
     c2a:	2f 77       	andi	r18, 0x7F	; 127
     c2c:	22 2e       	mov	r2, r18
     c2e:	17 c0       	rjmp	.+46     	; 0xc5e <vfprintf+0x192>
     c30:	38 01       	movw	r6, r16
     c32:	f2 e0       	ldi	r31, 0x02	; 2
     c34:	6f 0e       	add	r6, r31
     c36:	71 1c       	adc	r7, r1
     c38:	f8 01       	movw	r30, r16
     c3a:	a0 80       	ld	r10, Z
     c3c:	b1 80       	ldd	r11, Z+1	; 0x01
     c3e:	26 ff       	sbrs	r18, 6
     c40:	03 c0       	rjmp	.+6      	; 0xc48 <vfprintf+0x17c>
     c42:	65 2d       	mov	r22, r5
     c44:	70 e0       	ldi	r23, 0x00	; 0
     c46:	02 c0       	rjmp	.+4      	; 0xc4c <vfprintf+0x180>
     c48:	6f ef       	ldi	r22, 0xFF	; 255
     c4a:	7f ef       	ldi	r23, 0xFF	; 255
     c4c:	c5 01       	movw	r24, r10
     c4e:	2c 87       	std	Y+12, r18	; 0x0c
     c50:	0e 94 5b 07 	call	0xeb6	; 0xeb6 <strnlen_P>
     c54:	2c 01       	movw	r4, r24
     c56:	2c 85       	ldd	r18, Y+12	; 0x0c
     c58:	20 68       	ori	r18, 0x80	; 128
     c5a:	22 2e       	mov	r2, r18
     c5c:	83 01       	movw	r16, r6
     c5e:	23 fc       	sbrc	r2, 3
     c60:	1b c0       	rjmp	.+54     	; 0xc98 <vfprintf+0x1cc>
     c62:	83 2d       	mov	r24, r3
     c64:	90 e0       	ldi	r25, 0x00	; 0
     c66:	48 16       	cp	r4, r24
     c68:	59 06       	cpc	r5, r25
     c6a:	b0 f4       	brcc	.+44     	; 0xc98 <vfprintf+0x1cc>
     c6c:	b7 01       	movw	r22, r14
     c6e:	80 e2       	ldi	r24, 0x20	; 32
     c70:	90 e0       	ldi	r25, 0x00	; 0
     c72:	0e 94 71 07 	call	0xee2	; 0xee2 <fputc>
     c76:	3a 94       	dec	r3
     c78:	f4 cf       	rjmp	.-24     	; 0xc62 <vfprintf+0x196>
     c7a:	f5 01       	movw	r30, r10
     c7c:	27 fc       	sbrc	r2, 7
     c7e:	85 91       	lpm	r24, Z+
     c80:	27 fe       	sbrs	r2, 7
     c82:	81 91       	ld	r24, Z+
     c84:	5f 01       	movw	r10, r30
     c86:	b7 01       	movw	r22, r14
     c88:	90 e0       	ldi	r25, 0x00	; 0
     c8a:	0e 94 71 07 	call	0xee2	; 0xee2 <fputc>
     c8e:	31 10       	cpse	r3, r1
     c90:	3a 94       	dec	r3
     c92:	f1 e0       	ldi	r31, 0x01	; 1
     c94:	4f 1a       	sub	r4, r31
     c96:	51 08       	sbc	r5, r1
     c98:	41 14       	cp	r4, r1
     c9a:	51 04       	cpc	r5, r1
     c9c:	71 f7       	brne	.-36     	; 0xc7a <vfprintf+0x1ae>
     c9e:	e5 c0       	rjmp	.+458    	; 0xe6a <vfprintf+0x39e>
     ca0:	84 36       	cpi	r24, 0x64	; 100
     ca2:	11 f0       	breq	.+4      	; 0xca8 <vfprintf+0x1dc>
     ca4:	89 36       	cpi	r24, 0x69	; 105
     ca6:	39 f5       	brne	.+78     	; 0xcf6 <vfprintf+0x22a>
     ca8:	f8 01       	movw	r30, r16
     caa:	27 ff       	sbrs	r18, 7
     cac:	07 c0       	rjmp	.+14     	; 0xcbc <vfprintf+0x1f0>
     cae:	60 81       	ld	r22, Z
     cb0:	71 81       	ldd	r23, Z+1	; 0x01
     cb2:	82 81       	ldd	r24, Z+2	; 0x02
     cb4:	93 81       	ldd	r25, Z+3	; 0x03
     cb6:	0c 5f       	subi	r16, 0xFC	; 252
     cb8:	1f 4f       	sbci	r17, 0xFF	; 255
     cba:	08 c0       	rjmp	.+16     	; 0xccc <vfprintf+0x200>
     cbc:	60 81       	ld	r22, Z
     cbe:	71 81       	ldd	r23, Z+1	; 0x01
     cc0:	07 2e       	mov	r0, r23
     cc2:	00 0c       	add	r0, r0
     cc4:	88 0b       	sbc	r24, r24
     cc6:	99 0b       	sbc	r25, r25
     cc8:	0e 5f       	subi	r16, 0xFE	; 254
     cca:	1f 4f       	sbci	r17, 0xFF	; 255
     ccc:	2f 76       	andi	r18, 0x6F	; 111
     cce:	72 2e       	mov	r7, r18
     cd0:	97 ff       	sbrs	r25, 7
     cd2:	09 c0       	rjmp	.+18     	; 0xce6 <vfprintf+0x21a>
     cd4:	90 95       	com	r25
     cd6:	80 95       	com	r24
     cd8:	70 95       	com	r23
     cda:	61 95       	neg	r22
     cdc:	7f 4f       	sbci	r23, 0xFF	; 255
     cde:	8f 4f       	sbci	r24, 0xFF	; 255
     ce0:	9f 4f       	sbci	r25, 0xFF	; 255
     ce2:	20 68       	ori	r18, 0x80	; 128
     ce4:	72 2e       	mov	r7, r18
     ce6:	2a e0       	ldi	r18, 0x0A	; 10
     ce8:	30 e0       	ldi	r19, 0x00	; 0
     cea:	a4 01       	movw	r20, r8
     cec:	0e 94 a9 07 	call	0xf52	; 0xf52 <__ultoa_invert>
     cf0:	a8 2e       	mov	r10, r24
     cf2:	a8 18       	sub	r10, r8
     cf4:	44 c0       	rjmp	.+136    	; 0xd7e <vfprintf+0x2b2>
     cf6:	85 37       	cpi	r24, 0x75	; 117
     cf8:	29 f4       	brne	.+10     	; 0xd04 <vfprintf+0x238>
     cfa:	2f 7e       	andi	r18, 0xEF	; 239
     cfc:	b2 2e       	mov	r11, r18
     cfe:	2a e0       	ldi	r18, 0x0A	; 10
     d00:	30 e0       	ldi	r19, 0x00	; 0
     d02:	25 c0       	rjmp	.+74     	; 0xd4e <vfprintf+0x282>
     d04:	f2 2f       	mov	r31, r18
     d06:	f9 7f       	andi	r31, 0xF9	; 249
     d08:	bf 2e       	mov	r11, r31
     d0a:	8f 36       	cpi	r24, 0x6F	; 111
     d0c:	c1 f0       	breq	.+48     	; 0xd3e <vfprintf+0x272>
     d0e:	18 f4       	brcc	.+6      	; 0xd16 <vfprintf+0x24a>
     d10:	88 35       	cpi	r24, 0x58	; 88
     d12:	79 f0       	breq	.+30     	; 0xd32 <vfprintf+0x266>
     d14:	b4 c0       	rjmp	.+360    	; 0xe7e <vfprintf+0x3b2>
     d16:	80 37       	cpi	r24, 0x70	; 112
     d18:	19 f0       	breq	.+6      	; 0xd20 <vfprintf+0x254>
     d1a:	88 37       	cpi	r24, 0x78	; 120
     d1c:	21 f0       	breq	.+8      	; 0xd26 <vfprintf+0x25a>
     d1e:	af c0       	rjmp	.+350    	; 0xe7e <vfprintf+0x3b2>
     d20:	2f 2f       	mov	r18, r31
     d22:	20 61       	ori	r18, 0x10	; 16
     d24:	b2 2e       	mov	r11, r18
     d26:	b4 fe       	sbrs	r11, 4
     d28:	0d c0       	rjmp	.+26     	; 0xd44 <vfprintf+0x278>
     d2a:	8b 2d       	mov	r24, r11
     d2c:	84 60       	ori	r24, 0x04	; 4
     d2e:	b8 2e       	mov	r11, r24
     d30:	09 c0       	rjmp	.+18     	; 0xd44 <vfprintf+0x278>
     d32:	24 ff       	sbrs	r18, 4
     d34:	0a c0       	rjmp	.+20     	; 0xd4a <vfprintf+0x27e>
     d36:	9f 2f       	mov	r25, r31
     d38:	96 60       	ori	r25, 0x06	; 6
     d3a:	b9 2e       	mov	r11, r25
     d3c:	06 c0       	rjmp	.+12     	; 0xd4a <vfprintf+0x27e>
     d3e:	28 e0       	ldi	r18, 0x08	; 8
     d40:	30 e0       	ldi	r19, 0x00	; 0
     d42:	05 c0       	rjmp	.+10     	; 0xd4e <vfprintf+0x282>
     d44:	20 e1       	ldi	r18, 0x10	; 16
     d46:	30 e0       	ldi	r19, 0x00	; 0
     d48:	02 c0       	rjmp	.+4      	; 0xd4e <vfprintf+0x282>
     d4a:	20 e1       	ldi	r18, 0x10	; 16
     d4c:	32 e0       	ldi	r19, 0x02	; 2
     d4e:	f8 01       	movw	r30, r16
     d50:	b7 fe       	sbrs	r11, 7
     d52:	07 c0       	rjmp	.+14     	; 0xd62 <vfprintf+0x296>
     d54:	60 81       	ld	r22, Z
     d56:	71 81       	ldd	r23, Z+1	; 0x01
     d58:	82 81       	ldd	r24, Z+2	; 0x02
     d5a:	93 81       	ldd	r25, Z+3	; 0x03
     d5c:	0c 5f       	subi	r16, 0xFC	; 252
     d5e:	1f 4f       	sbci	r17, 0xFF	; 255
     d60:	06 c0       	rjmp	.+12     	; 0xd6e <vfprintf+0x2a2>
     d62:	60 81       	ld	r22, Z
     d64:	71 81       	ldd	r23, Z+1	; 0x01
     d66:	80 e0       	ldi	r24, 0x00	; 0
     d68:	90 e0       	ldi	r25, 0x00	; 0
     d6a:	0e 5f       	subi	r16, 0xFE	; 254
     d6c:	1f 4f       	sbci	r17, 0xFF	; 255
     d6e:	a4 01       	movw	r20, r8
     d70:	0e 94 a9 07 	call	0xf52	; 0xf52 <__ultoa_invert>
     d74:	a8 2e       	mov	r10, r24
     d76:	a8 18       	sub	r10, r8
     d78:	fb 2d       	mov	r31, r11
     d7a:	ff 77       	andi	r31, 0x7F	; 127
     d7c:	7f 2e       	mov	r7, r31
     d7e:	76 fe       	sbrs	r7, 6
     d80:	0b c0       	rjmp	.+22     	; 0xd98 <vfprintf+0x2cc>
     d82:	37 2d       	mov	r19, r7
     d84:	3e 7f       	andi	r19, 0xFE	; 254
     d86:	a5 14       	cp	r10, r5
     d88:	50 f4       	brcc	.+20     	; 0xd9e <vfprintf+0x2d2>
     d8a:	74 fe       	sbrs	r7, 4
     d8c:	0a c0       	rjmp	.+20     	; 0xda2 <vfprintf+0x2d6>
     d8e:	72 fc       	sbrc	r7, 2
     d90:	08 c0       	rjmp	.+16     	; 0xda2 <vfprintf+0x2d6>
     d92:	37 2d       	mov	r19, r7
     d94:	3e 7e       	andi	r19, 0xEE	; 238
     d96:	05 c0       	rjmp	.+10     	; 0xda2 <vfprintf+0x2d6>
     d98:	ba 2c       	mov	r11, r10
     d9a:	37 2d       	mov	r19, r7
     d9c:	03 c0       	rjmp	.+6      	; 0xda4 <vfprintf+0x2d8>
     d9e:	ba 2c       	mov	r11, r10
     da0:	01 c0       	rjmp	.+2      	; 0xda4 <vfprintf+0x2d8>
     da2:	b5 2c       	mov	r11, r5
     da4:	34 ff       	sbrs	r19, 4
     da6:	0d c0       	rjmp	.+26     	; 0xdc2 <vfprintf+0x2f6>
     da8:	fe 01       	movw	r30, r28
     daa:	ea 0d       	add	r30, r10
     dac:	f1 1d       	adc	r31, r1
     dae:	80 81       	ld	r24, Z
     db0:	80 33       	cpi	r24, 0x30	; 48
     db2:	11 f4       	brne	.+4      	; 0xdb8 <vfprintf+0x2ec>
     db4:	39 7e       	andi	r19, 0xE9	; 233
     db6:	09 c0       	rjmp	.+18     	; 0xdca <vfprintf+0x2fe>
     db8:	32 ff       	sbrs	r19, 2
     dba:	06 c0       	rjmp	.+12     	; 0xdc8 <vfprintf+0x2fc>
     dbc:	b3 94       	inc	r11
     dbe:	b3 94       	inc	r11
     dc0:	04 c0       	rjmp	.+8      	; 0xdca <vfprintf+0x2fe>
     dc2:	83 2f       	mov	r24, r19
     dc4:	86 78       	andi	r24, 0x86	; 134
     dc6:	09 f0       	breq	.+2      	; 0xdca <vfprintf+0x2fe>
     dc8:	b3 94       	inc	r11
     dca:	33 fd       	sbrc	r19, 3
     dcc:	13 c0       	rjmp	.+38     	; 0xdf4 <vfprintf+0x328>
     dce:	30 ff       	sbrs	r19, 0
     dd0:	06 c0       	rjmp	.+12     	; 0xdde <vfprintf+0x312>
     dd2:	5a 2c       	mov	r5, r10
     dd4:	b3 14       	cp	r11, r3
     dd6:	18 f4       	brcc	.+6      	; 0xdde <vfprintf+0x312>
     dd8:	53 0c       	add	r5, r3
     dda:	5b 18       	sub	r5, r11
     ddc:	b3 2c       	mov	r11, r3
     dde:	b3 14       	cp	r11, r3
     de0:	68 f4       	brcc	.+26     	; 0xdfc <vfprintf+0x330>
     de2:	b7 01       	movw	r22, r14
     de4:	80 e2       	ldi	r24, 0x20	; 32
     de6:	90 e0       	ldi	r25, 0x00	; 0
     de8:	3c 87       	std	Y+12, r19	; 0x0c
     dea:	0e 94 71 07 	call	0xee2	; 0xee2 <fputc>
     dee:	b3 94       	inc	r11
     df0:	3c 85       	ldd	r19, Y+12	; 0x0c
     df2:	f5 cf       	rjmp	.-22     	; 0xdde <vfprintf+0x312>
     df4:	b3 14       	cp	r11, r3
     df6:	10 f4       	brcc	.+4      	; 0xdfc <vfprintf+0x330>
     df8:	3b 18       	sub	r3, r11
     dfa:	01 c0       	rjmp	.+2      	; 0xdfe <vfprintf+0x332>
     dfc:	31 2c       	mov	r3, r1
     dfe:	34 ff       	sbrs	r19, 4
     e00:	12 c0       	rjmp	.+36     	; 0xe26 <vfprintf+0x35a>
     e02:	b7 01       	movw	r22, r14
     e04:	80 e3       	ldi	r24, 0x30	; 48
     e06:	90 e0       	ldi	r25, 0x00	; 0
     e08:	3c 87       	std	Y+12, r19	; 0x0c
     e0a:	0e 94 71 07 	call	0xee2	; 0xee2 <fputc>
     e0e:	3c 85       	ldd	r19, Y+12	; 0x0c
     e10:	32 ff       	sbrs	r19, 2
     e12:	17 c0       	rjmp	.+46     	; 0xe42 <vfprintf+0x376>
     e14:	31 fd       	sbrc	r19, 1
     e16:	03 c0       	rjmp	.+6      	; 0xe1e <vfprintf+0x352>
     e18:	88 e7       	ldi	r24, 0x78	; 120
     e1a:	90 e0       	ldi	r25, 0x00	; 0
     e1c:	02 c0       	rjmp	.+4      	; 0xe22 <vfprintf+0x356>
     e1e:	88 e5       	ldi	r24, 0x58	; 88
     e20:	90 e0       	ldi	r25, 0x00	; 0
     e22:	b7 01       	movw	r22, r14
     e24:	0c c0       	rjmp	.+24     	; 0xe3e <vfprintf+0x372>
     e26:	83 2f       	mov	r24, r19
     e28:	86 78       	andi	r24, 0x86	; 134
     e2a:	59 f0       	breq	.+22     	; 0xe42 <vfprintf+0x376>
     e2c:	31 ff       	sbrs	r19, 1
     e2e:	02 c0       	rjmp	.+4      	; 0xe34 <vfprintf+0x368>
     e30:	8b e2       	ldi	r24, 0x2B	; 43
     e32:	01 c0       	rjmp	.+2      	; 0xe36 <vfprintf+0x36a>
     e34:	80 e2       	ldi	r24, 0x20	; 32
     e36:	37 fd       	sbrc	r19, 7
     e38:	8d e2       	ldi	r24, 0x2D	; 45
     e3a:	b7 01       	movw	r22, r14
     e3c:	90 e0       	ldi	r25, 0x00	; 0
     e3e:	0e 94 71 07 	call	0xee2	; 0xee2 <fputc>
     e42:	a5 14       	cp	r10, r5
     e44:	38 f4       	brcc	.+14     	; 0xe54 <vfprintf+0x388>
     e46:	b7 01       	movw	r22, r14
     e48:	80 e3       	ldi	r24, 0x30	; 48
     e4a:	90 e0       	ldi	r25, 0x00	; 0
     e4c:	0e 94 71 07 	call	0xee2	; 0xee2 <fputc>
     e50:	5a 94       	dec	r5
     e52:	f7 cf       	rjmp	.-18     	; 0xe42 <vfprintf+0x376>
     e54:	aa 94       	dec	r10
     e56:	f4 01       	movw	r30, r8
     e58:	ea 0d       	add	r30, r10
     e5a:	f1 1d       	adc	r31, r1
     e5c:	80 81       	ld	r24, Z
     e5e:	b7 01       	movw	r22, r14
     e60:	90 e0       	ldi	r25, 0x00	; 0
     e62:	0e 94 71 07 	call	0xee2	; 0xee2 <fputc>
     e66:	a1 10       	cpse	r10, r1
     e68:	f5 cf       	rjmp	.-22     	; 0xe54 <vfprintf+0x388>
     e6a:	33 20       	and	r3, r3
     e6c:	09 f4       	brne	.+2      	; 0xe70 <vfprintf+0x3a4>
     e6e:	51 ce       	rjmp	.-862    	; 0xb12 <vfprintf+0x46>
     e70:	b7 01       	movw	r22, r14
     e72:	80 e2       	ldi	r24, 0x20	; 32
     e74:	90 e0       	ldi	r25, 0x00	; 0
     e76:	0e 94 71 07 	call	0xee2	; 0xee2 <fputc>
     e7a:	3a 94       	dec	r3
     e7c:	f6 cf       	rjmp	.-20     	; 0xe6a <vfprintf+0x39e>
     e7e:	f7 01       	movw	r30, r14
     e80:	86 81       	ldd	r24, Z+6	; 0x06
     e82:	97 81       	ldd	r25, Z+7	; 0x07
     e84:	02 c0       	rjmp	.+4      	; 0xe8a <vfprintf+0x3be>
     e86:	8f ef       	ldi	r24, 0xFF	; 255
     e88:	9f ef       	ldi	r25, 0xFF	; 255
     e8a:	2c 96       	adiw	r28, 0x0c	; 12
     e8c:	cd bf       	out	0x3d, r28	; 61
     e8e:	de bf       	out	0x3e, r29	; 62
     e90:	df 91       	pop	r29
     e92:	cf 91       	pop	r28
     e94:	1f 91       	pop	r17
     e96:	0f 91       	pop	r16
     e98:	ff 90       	pop	r15
     e9a:	ef 90       	pop	r14
     e9c:	df 90       	pop	r13
     e9e:	cf 90       	pop	r12
     ea0:	bf 90       	pop	r11
     ea2:	af 90       	pop	r10
     ea4:	9f 90       	pop	r9
     ea6:	8f 90       	pop	r8
     ea8:	7f 90       	pop	r7
     eaa:	6f 90       	pop	r6
     eac:	5f 90       	pop	r5
     eae:	4f 90       	pop	r4
     eb0:	3f 90       	pop	r3
     eb2:	2f 90       	pop	r2
     eb4:	08 95       	ret

00000eb6 <strnlen_P>:
     eb6:	fc 01       	movw	r30, r24
     eb8:	05 90       	lpm	r0, Z+
     eba:	61 50       	subi	r22, 0x01	; 1
     ebc:	70 40       	sbci	r23, 0x00	; 0
     ebe:	01 10       	cpse	r0, r1
     ec0:	d8 f7       	brcc	.-10     	; 0xeb8 <strnlen_P+0x2>
     ec2:	80 95       	com	r24
     ec4:	90 95       	com	r25
     ec6:	8e 0f       	add	r24, r30
     ec8:	9f 1f       	adc	r25, r31
     eca:	08 95       	ret

00000ecc <strnlen>:
     ecc:	fc 01       	movw	r30, r24
     ece:	61 50       	subi	r22, 0x01	; 1
     ed0:	70 40       	sbci	r23, 0x00	; 0
     ed2:	01 90       	ld	r0, Z+
     ed4:	01 10       	cpse	r0, r1
     ed6:	d8 f7       	brcc	.-10     	; 0xece <strnlen+0x2>
     ed8:	80 95       	com	r24
     eda:	90 95       	com	r25
     edc:	8e 0f       	add	r24, r30
     ede:	9f 1f       	adc	r25, r31
     ee0:	08 95       	ret

00000ee2 <fputc>:
     ee2:	0f 93       	push	r16
     ee4:	1f 93       	push	r17
     ee6:	cf 93       	push	r28
     ee8:	df 93       	push	r29
     eea:	fb 01       	movw	r30, r22
     eec:	23 81       	ldd	r18, Z+3	; 0x03
     eee:	21 fd       	sbrc	r18, 1
     ef0:	03 c0       	rjmp	.+6      	; 0xef8 <fputc+0x16>
     ef2:	8f ef       	ldi	r24, 0xFF	; 255
     ef4:	9f ef       	ldi	r25, 0xFF	; 255
     ef6:	28 c0       	rjmp	.+80     	; 0xf48 <fputc+0x66>
     ef8:	22 ff       	sbrs	r18, 2
     efa:	16 c0       	rjmp	.+44     	; 0xf28 <fputc+0x46>
     efc:	46 81       	ldd	r20, Z+6	; 0x06
     efe:	57 81       	ldd	r21, Z+7	; 0x07
     f00:	24 81       	ldd	r18, Z+4	; 0x04
     f02:	35 81       	ldd	r19, Z+5	; 0x05
     f04:	42 17       	cp	r20, r18
     f06:	53 07       	cpc	r21, r19
     f08:	44 f4       	brge	.+16     	; 0xf1a <fputc+0x38>
     f0a:	a0 81       	ld	r26, Z
     f0c:	b1 81       	ldd	r27, Z+1	; 0x01
     f0e:	9d 01       	movw	r18, r26
     f10:	2f 5f       	subi	r18, 0xFF	; 255
     f12:	3f 4f       	sbci	r19, 0xFF	; 255
     f14:	20 83       	st	Z, r18
     f16:	31 83       	std	Z+1, r19	; 0x01
     f18:	8c 93       	st	X, r24
     f1a:	26 81       	ldd	r18, Z+6	; 0x06
     f1c:	37 81       	ldd	r19, Z+7	; 0x07
     f1e:	2f 5f       	subi	r18, 0xFF	; 255
     f20:	3f 4f       	sbci	r19, 0xFF	; 255
     f22:	26 83       	std	Z+6, r18	; 0x06
     f24:	37 83       	std	Z+7, r19	; 0x07
     f26:	10 c0       	rjmp	.+32     	; 0xf48 <fputc+0x66>
     f28:	eb 01       	movw	r28, r22
     f2a:	09 2f       	mov	r16, r25
     f2c:	18 2f       	mov	r17, r24
     f2e:	00 84       	ldd	r0, Z+8	; 0x08
     f30:	f1 85       	ldd	r31, Z+9	; 0x09
     f32:	e0 2d       	mov	r30, r0
     f34:	19 95       	eicall
     f36:	89 2b       	or	r24, r25
     f38:	e1 f6       	brne	.-72     	; 0xef2 <fputc+0x10>
     f3a:	8e 81       	ldd	r24, Y+6	; 0x06
     f3c:	9f 81       	ldd	r25, Y+7	; 0x07
     f3e:	01 96       	adiw	r24, 0x01	; 1
     f40:	8e 83       	std	Y+6, r24	; 0x06
     f42:	9f 83       	std	Y+7, r25	; 0x07
     f44:	81 2f       	mov	r24, r17
     f46:	90 2f       	mov	r25, r16
     f48:	df 91       	pop	r29
     f4a:	cf 91       	pop	r28
     f4c:	1f 91       	pop	r17
     f4e:	0f 91       	pop	r16
     f50:	08 95       	ret

00000f52 <__ultoa_invert>:
     f52:	fa 01       	movw	r30, r20
     f54:	aa 27       	eor	r26, r26
     f56:	28 30       	cpi	r18, 0x08	; 8
     f58:	51 f1       	breq	.+84     	; 0xfae <__ultoa_invert+0x5c>
     f5a:	20 31       	cpi	r18, 0x10	; 16
     f5c:	81 f1       	breq	.+96     	; 0xfbe <__ultoa_invert+0x6c>
     f5e:	e8 94       	clt
     f60:	6f 93       	push	r22
     f62:	6e 7f       	andi	r22, 0xFE	; 254
     f64:	6e 5f       	subi	r22, 0xFE	; 254
     f66:	7f 4f       	sbci	r23, 0xFF	; 255
     f68:	8f 4f       	sbci	r24, 0xFF	; 255
     f6a:	9f 4f       	sbci	r25, 0xFF	; 255
     f6c:	af 4f       	sbci	r26, 0xFF	; 255
     f6e:	b1 e0       	ldi	r27, 0x01	; 1
     f70:	3e d0       	rcall	.+124    	; 0xfee <__ultoa_invert+0x9c>
     f72:	b4 e0       	ldi	r27, 0x04	; 4
     f74:	3c d0       	rcall	.+120    	; 0xfee <__ultoa_invert+0x9c>
     f76:	67 0f       	add	r22, r23
     f78:	78 1f       	adc	r23, r24
     f7a:	89 1f       	adc	r24, r25
     f7c:	9a 1f       	adc	r25, r26
     f7e:	a1 1d       	adc	r26, r1
     f80:	68 0f       	add	r22, r24
     f82:	79 1f       	adc	r23, r25
     f84:	8a 1f       	adc	r24, r26
     f86:	91 1d       	adc	r25, r1
     f88:	a1 1d       	adc	r26, r1
     f8a:	6a 0f       	add	r22, r26
     f8c:	71 1d       	adc	r23, r1
     f8e:	81 1d       	adc	r24, r1
     f90:	91 1d       	adc	r25, r1
     f92:	a1 1d       	adc	r26, r1
     f94:	20 d0       	rcall	.+64     	; 0xfd6 <__ultoa_invert+0x84>
     f96:	09 f4       	brne	.+2      	; 0xf9a <__ultoa_invert+0x48>
     f98:	68 94       	set
     f9a:	3f 91       	pop	r19
     f9c:	2a e0       	ldi	r18, 0x0A	; 10
     f9e:	26 9f       	mul	r18, r22
     fa0:	11 24       	eor	r1, r1
     fa2:	30 19       	sub	r19, r0
     fa4:	30 5d       	subi	r19, 0xD0	; 208
     fa6:	31 93       	st	Z+, r19
     fa8:	de f6       	brtc	.-74     	; 0xf60 <__ultoa_invert+0xe>
     faa:	cf 01       	movw	r24, r30
     fac:	08 95       	ret
     fae:	46 2f       	mov	r20, r22
     fb0:	47 70       	andi	r20, 0x07	; 7
     fb2:	40 5d       	subi	r20, 0xD0	; 208
     fb4:	41 93       	st	Z+, r20
     fb6:	b3 e0       	ldi	r27, 0x03	; 3
     fb8:	0f d0       	rcall	.+30     	; 0xfd8 <__ultoa_invert+0x86>
     fba:	c9 f7       	brne	.-14     	; 0xfae <__ultoa_invert+0x5c>
     fbc:	f6 cf       	rjmp	.-20     	; 0xfaa <__ultoa_invert+0x58>
     fbe:	46 2f       	mov	r20, r22
     fc0:	4f 70       	andi	r20, 0x0F	; 15
     fc2:	40 5d       	subi	r20, 0xD0	; 208
     fc4:	4a 33       	cpi	r20, 0x3A	; 58
     fc6:	18 f0       	brcs	.+6      	; 0xfce <__ultoa_invert+0x7c>
     fc8:	49 5d       	subi	r20, 0xD9	; 217
     fca:	31 fd       	sbrc	r19, 1
     fcc:	40 52       	subi	r20, 0x20	; 32
     fce:	41 93       	st	Z+, r20
     fd0:	02 d0       	rcall	.+4      	; 0xfd6 <__ultoa_invert+0x84>
     fd2:	a9 f7       	brne	.-22     	; 0xfbe <__ultoa_invert+0x6c>
     fd4:	ea cf       	rjmp	.-44     	; 0xfaa <__ultoa_invert+0x58>
     fd6:	b4 e0       	ldi	r27, 0x04	; 4
     fd8:	a6 95       	lsr	r26
     fda:	97 95       	ror	r25
     fdc:	87 95       	ror	r24
     fde:	77 95       	ror	r23
     fe0:	67 95       	ror	r22
     fe2:	ba 95       	dec	r27
     fe4:	c9 f7       	brne	.-14     	; 0xfd8 <__ultoa_invert+0x86>
     fe6:	00 97       	sbiw	r24, 0x00	; 0
     fe8:	61 05       	cpc	r22, r1
     fea:	71 05       	cpc	r23, r1
     fec:	08 95       	ret
     fee:	9b 01       	movw	r18, r22
     ff0:	ac 01       	movw	r20, r24
     ff2:	0a 2e       	mov	r0, r26
     ff4:	06 94       	lsr	r0
     ff6:	57 95       	ror	r21
     ff8:	47 95       	ror	r20
     ffa:	37 95       	ror	r19
     ffc:	27 95       	ror	r18
     ffe:	ba 95       	dec	r27
    1000:	c9 f7       	brne	.-14     	; 0xff4 <__ultoa_invert+0xa2>
    1002:	62 0f       	add	r22, r18
    1004:	73 1f       	adc	r23, r19
    1006:	84 1f       	adc	r24, r20
    1008:	95 1f       	adc	r25, r21
    100a:	a0 1d       	adc	r26, r0
    100c:	08 95       	ret

0000100e <_exit>:
    100e:	f8 94       	cli

00001010 <__stop_program>:
    1010:	ff cf       	rjmp	.-2      	; 0x1010 <__stop_program>
