Archive member included to satisfy reference by file (symbol)

c:/program files (x86)/atmel/studio/7.0/toolchain/avr8/avr8-gnu-toolchain/bin/../lib/gcc/avr/4.9.2/../../../../avr/lib/avrxmega7\libm.a(addsf3.o)
                              src/edge/controller.o (__subsf3)
c:/program files (x86)/atmel/studio/7.0/toolchain/avr8/avr8-gnu-toolchain/bin/../lib/gcc/avr/4.9.2/../../../../avr/lib/avrxmega7\libm.a(addsf3x.o)
                              c:/program files (x86)/atmel/studio/7.0/toolchain/avr8/avr8-gnu-toolchain/bin/../lib/gcc/avr/4.9.2/../../../../avr/lib/avrxmega7\libm.a(addsf3.o) (__addsf3x)
c:/program files (x86)/atmel/studio/7.0/toolchain/avr8/avr8-gnu-toolchain/bin/../lib/gcc/avr/4.9.2/../../../../avr/lib/avrxmega7\libm.a(cmpsf2.o)
                              src/edge/history.o (__eqsf2)
c:/program files (x86)/atmel/studio/7.0/toolchain/avr8/avr8-gnu-toolchain/bin/../lib/gcc/avr/4.9.2/../../../../avr/lib/avrxmega7\libm.a(divsf3.o)
                              src/edge/controller.o (__divsf3)
c:/program files (x86)/atmel/studio/7.0/toolchain/avr8/avr8-gnu-toolchain/bin/../lib/gcc/avr/4.9.2/../../../../avr/lib/avrxmega7\libm.a(divsf3x.o)
                              c:/program files (x86)/atmel/studio/7.0/toolchain/avr8/avr8-gnu-toolchain/bin/../lib/gcc/avr/4.9.2/../../../../avr/lib/avrxmega7\libm.a(divsf3.o) (__divsf3x)
c:/program files (x86)/atmel/studio/7.0/toolchain/avr8/avr8-gnu-toolchain/bin/../lib/gcc/avr/4.9.2/../../../../avr/lib/avrxmega7\libm.a(fixunssfsi.o)
                              src/edge/history.o (__fixunssfsi)
c:/program files (x86)/atmel/studio/7.0/toolchain/avr8/avr8-gnu-toolchain/bin/../lib/gcc/avr/4.9.2/../../../../avr/lib/avrxmega7\libm.a(floatsisf.o)
                              src/edge/controller.o (__floatunsisf)
c:/program files (x86)/atmel/studio/7.0/toolchain/avr8/avr8-gnu-toolchain/bin/../lib/gcc/avr/4.9.2/../../../../avr/lib/avrxmega7\libm.a(fmod.o)
                              src/edge/history.o (fmod)
c:/program files (x86)/atmel/studio/7.0/toolchain/avr8/avr8-gnu-toolchain/bin/../lib/gcc/avr/4.9.2/../../../../avr/lib/avrxmega7\libm.a(fp_cmp.o)
                              c:/program files (x86)/atmel/studio/7.0/toolchain/avr8/avr8-gnu-toolchain/bin/../lib/gcc/avr/4.9.2/../../../../avr/lib/avrxmega7\libm.a(cmpsf2.o) (__fp_cmp)
c:/program files (x86)/atmel/studio/7.0/toolchain/avr8/avr8-gnu-toolchain/bin/../lib/gcc/avr/4.9.2/../../../../avr/lib/avrxmega7\libm.a(fp_inf.o)
                              c:/program files (x86)/atmel/studio/7.0/toolchain/avr8/avr8-gnu-toolchain/bin/../lib/gcc/avr/4.9.2/../../../../avr/lib/avrxmega7\libm.a(addsf3x.o) (__fp_inf)
c:/program files (x86)/atmel/studio/7.0/toolchain/avr8/avr8-gnu-toolchain/bin/../lib/gcc/avr/4.9.2/../../../../avr/lib/avrxmega7\libm.a(fp_mpack.o)
                              c:/program files (x86)/atmel/studio/7.0/toolchain/avr8/avr8-gnu-toolchain/bin/../lib/gcc/avr/4.9.2/../../../../avr/lib/avrxmega7\libm.a(fmod.o) (__fp_mpack)
c:/program files (x86)/atmel/studio/7.0/toolchain/avr8/avr8-gnu-toolchain/bin/../lib/gcc/avr/4.9.2/../../../../avr/lib/avrxmega7\libm.a(fp_nan.o)
                              c:/program files (x86)/atmel/studio/7.0/toolchain/avr8/avr8-gnu-toolchain/bin/../lib/gcc/avr/4.9.2/../../../../avr/lib/avrxmega7\libm.a(addsf3x.o) (__fp_nan)
c:/program files (x86)/atmel/studio/7.0/toolchain/avr8/avr8-gnu-toolchain/bin/../lib/gcc/avr/4.9.2/../../../../avr/lib/avrxmega7\libm.a(fp_pscA.o)
                              c:/program files (x86)/atmel/studio/7.0/toolchain/avr8/avr8-gnu-toolchain/bin/../lib/gcc/avr/4.9.2/../../../../avr/lib/avrxmega7\libm.a(addsf3x.o) (__fp_pscA)
c:/program files (x86)/atmel/studio/7.0/toolchain/avr8/avr8-gnu-toolchain/bin/../lib/gcc/avr/4.9.2/../../../../avr/lib/avrxmega7\libm.a(fp_pscB.o)
                              c:/program files (x86)/atmel/studio/7.0/toolchain/avr8/avr8-gnu-toolchain/bin/../lib/gcc/avr/4.9.2/../../../../avr/lib/avrxmega7\libm.a(addsf3x.o) (__fp_pscB)
c:/program files (x86)/atmel/studio/7.0/toolchain/avr8/avr8-gnu-toolchain/bin/../lib/gcc/avr/4.9.2/../../../../avr/lib/avrxmega7\libm.a(fp_round.o)
                              c:/program files (x86)/atmel/studio/7.0/toolchain/avr8/avr8-gnu-toolchain/bin/../lib/gcc/avr/4.9.2/../../../../avr/lib/avrxmega7\libm.a(addsf3.o) (__fp_round)
c:/program files (x86)/atmel/studio/7.0/toolchain/avr8/avr8-gnu-toolchain/bin/../lib/gcc/avr/4.9.2/../../../../avr/lib/avrxmega7\libm.a(fp_split3.o)
                              c:/program files (x86)/atmel/studio/7.0/toolchain/avr8/avr8-gnu-toolchain/bin/../lib/gcc/avr/4.9.2/../../../../avr/lib/avrxmega7\libm.a(addsf3x.o) (__fp_split3)
c:/program files (x86)/atmel/studio/7.0/toolchain/avr8/avr8-gnu-toolchain/bin/../lib/gcc/avr/4.9.2/../../../../avr/lib/avrxmega7\libm.a(fp_zero.o)
                              c:/program files (x86)/atmel/studio/7.0/toolchain/avr8/avr8-gnu-toolchain/bin/../lib/gcc/avr/4.9.2/../../../../avr/lib/avrxmega7\libm.a(addsf3x.o) (__fp_zero)
c:/program files (x86)/atmel/studio/7.0/toolchain/avr8/avr8-gnu-toolchain/bin/../lib/gcc/avr/4.9.2/../../../../avr/lib/avrxmega7\libm.a(gesf2.o)
                              src/edge/controller.o (__gtsf2)
c:/program files (x86)/atmel/studio/7.0/toolchain/avr8/avr8-gnu-toolchain/bin/../lib/gcc/avr/4.9.2/../../../../avr/lib/avrxmega7\libm.a(mulsf3.o)
                              src/edge/controller.o (__mulsf3)
c:/program files (x86)/atmel/studio/7.0/toolchain/avr8/avr8-gnu-toolchain/bin/../lib/gcc/avr/4.9.2/../../../../avr/lib/avrxmega7\libm.a(mulsf3x.o)
                              c:/program files (x86)/atmel/studio/7.0/toolchain/avr8/avr8-gnu-toolchain/bin/../lib/gcc/avr/4.9.2/../../../../avr/lib/avrxmega7\libm.a(mulsf3.o) (__mulsf3x)
c:/program files (x86)/atmel/studio/7.0/toolchain/avr8/avr8-gnu-toolchain/bin/../lib/gcc/avr/4.9.2/../../../../avr/lib/avrxmega7\libm.a(round.o)
                              src/edge/history.o (round)
c:/program files (x86)/atmel/studio/7.0/toolchain/avr8/avr8-gnu-toolchain/bin/../lib/gcc/avr/4.9.2/../../../../avr/lib/avrxmega7\libm.a(fp_mintl.o)
                              c:/program files (x86)/atmel/studio/7.0/toolchain/avr8/avr8-gnu-toolchain/bin/../lib/gcc/avr/4.9.2/../../../../avr/lib/avrxmega7\libm.a(round.o) (__fp_mintl)
D:\Dev\Matura\Software\MaturaSoftware\Common Lib\Debug\lib_common_128a1u.a(linked_list.o)
                              src/edge/controller.o (ll_init)
D:\Dev\Matura\Software\MaturaSoftware\Common Lib\Debug\lib_common_128a1u.a(ring_buffer.o)
                              src/edge/comm_driver.o (rb_init)
D:\Dev\Matura\Software\MaturaSoftware\Common Lib\Debug\lib_common_128a1u.a(tba.o)
                              src/edge/comm_driver.o (tba_init_packet)
D:\Dev\Matura\Software\MaturaSoftware\Common Lib\Debug\lib_common_128a1u.a(error.o)
                              src/edge/comm_driver.o (error_push)
c:/program files (x86)/atmel/studio/7.0/toolchain/avr8/avr8-gnu-toolchain/bin/../lib/gcc/avr/4.9.2/avrxmega7\libgcc.a(_divmodhi4.o)
                              src/edge/controller.o (__divmodhi4)
c:/program files (x86)/atmel/studio/7.0/toolchain/avr8/avr8-gnu-toolchain/bin/../lib/gcc/avr/4.9.2/avrxmega7\libgcc.a(_udivmodsi4.o)
                              src/edge/history.o (__udivmodsi4)
c:/program files (x86)/atmel/studio/7.0/toolchain/avr8/avr8-gnu-toolchain/bin/../lib/gcc/avr/4.9.2/avrxmega7\libgcc.a(_exit.o)
                              C:/Program Files (x86)/Atmel/Studio/7.0/Packs/atmel/XMEGAA_DFP/1.0.39/gcc/dev/atxmega128a1u/avrxmega7/crtatxmega128a1u.o (exit)
c:/program files (x86)/atmel/studio/7.0/toolchain/avr8/avr8-gnu-toolchain/bin/../lib/gcc/avr/4.9.2/avrxmega7\libgcc.a(_copy_data.o)
                              src/edge/controller.o (__do_copy_data)
c:/program files (x86)/atmel/studio/7.0/toolchain/avr8/avr8-gnu-toolchain/bin/../lib/gcc/avr/4.9.2/avrxmega7\libgcc.a(_clear_bss.o)
                              src/ASF/xmega/drivers/rtc/rtc.o (__do_clear_bss)
c:/program files (x86)/atmel/studio/7.0/toolchain/avr8/avr8-gnu-toolchain/bin/../lib/gcc/avr/4.9.2/avrxmega7\libgcc.a(_udivmodhi4.o)
                              c:/program files (x86)/atmel/studio/7.0/toolchain/avr8/avr8-gnu-toolchain/bin/../lib/gcc/avr/4.9.2/avrxmega7\libgcc.a(_divmodhi4.o) (__udivmodhi4)
c:/program files (x86)/atmel/studio/7.0/toolchain/avr8/avr8-gnu-toolchain/bin/../lib/gcc/avr/4.9.2/../../../../avr/lib/avrxmega7\libc.a(malloc.o)
                              src/edge/controller.o (malloc)
c:/program files (x86)/atmel/studio/7.0/toolchain/avr8/avr8-gnu-toolchain/bin/../lib/gcc/avr/4.9.2/../../../../avr/lib/avrxmega7\libc.a(rand.o)
                              src/edge/controller.o (rand)
c:/program files (x86)/atmel/studio/7.0/toolchain/avr8/avr8-gnu-toolchain/bin/../lib/gcc/avr/4.9.2/../../../../avr/lib/avrxmega7\libc.a(realloc.o)
                              src/edge/history.o (realloc)
c:/program files (x86)/atmel/studio/7.0/toolchain/avr8/avr8-gnu-toolchain/bin/../lib/gcc/avr/4.9.2/../../../../avr/lib/avrxmega7\libc.a(memcpy.o)
                              src/ASF/xmega/drivers/nvm/nvm.o (memcpy)
C:/Program Files (x86)/Atmel/Studio/7.0/Packs/atmel/XMEGAA_DFP/1.0.39/gcc/dev/atxmega128a1u/avrxmega7\libatxmega128a1u.a(eerd_byte.o)
                              src/main.o (eeprom_read_byte)
C:/Program Files (x86)/Atmel/Studio/7.0/Packs/atmel/XMEGAA_DFP/1.0.39/gcc/dev/atxmega128a1u/avrxmega7\libatxmega128a1u.a(eewr_block.o)
                              src/logger.o (eeprom_write_block)
C:/Program Files (x86)/Atmel/Studio/7.0/Packs/atmel/XMEGAA_DFP/1.0.39/gcc/dev/atxmega128a1u/avrxmega7\libatxmega128a1u.a(eewr_byte.o)
                              src/logger.o (eeprom_write_byte)
C:/Program Files (x86)/Atmel/Studio/7.0/Packs/atmel/XMEGAA_DFP/1.0.39/gcc/dev/atxmega128a1u/avrxmega7\libatxmega128a1u.a(eewr_dword.o)
                              src/logger.o (eeprom_write_dword)
C:/Program Files (x86)/Atmel/Studio/7.0/Packs/atmel/XMEGAA_DFP/1.0.39/gcc/dev/atxmega128a1u/avrxmega7\libatxmega128a1u.a(eewr_word.o)
                              C:/Program Files (x86)/Atmel/Studio/7.0/Packs/atmel/XMEGAA_DFP/1.0.39/gcc/dev/atxmega128a1u/avrxmega7\libatxmega128a1u.a(eewr_dword.o) (eeprom_write_word)
c:/program files (x86)/atmel/studio/7.0/toolchain/avr8/avr8-gnu-toolchain/bin/../lib/gcc/avr/4.9.2/avrxmega7\libgcc.a(_divmodsi4.o)
                              c:/program files (x86)/atmel/studio/7.0/toolchain/avr8/avr8-gnu-toolchain/bin/../lib/gcc/avr/4.9.2/../../../../avr/lib/avrxmega7\libc.a(rand.o) (__divmodsi4)
c:/program files (x86)/atmel/studio/7.0/toolchain/avr8/avr8-gnu-toolchain/bin/../lib/gcc/avr/4.9.2/avrxmega7\libgcc.a(_negsi2.o)
                              c:/program files (x86)/atmel/studio/7.0/toolchain/avr8/avr8-gnu-toolchain/bin/../lib/gcc/avr/4.9.2/avrxmega7\libgcc.a(_divmodsi4.o) (__negsi2)
c:/program files (x86)/atmel/studio/7.0/toolchain/avr8/avr8-gnu-toolchain/bin/../lib/gcc/avr/4.9.2/avrxmega7\libgcc.a(_muluhisi3.o)
                              c:/program files (x86)/atmel/studio/7.0/toolchain/avr8/avr8-gnu-toolchain/bin/../lib/gcc/avr/4.9.2/../../../../avr/lib/avrxmega7\libc.a(rand.o) (__muluhisi3)
c:/program files (x86)/atmel/studio/7.0/toolchain/avr8/avr8-gnu-toolchain/bin/../lib/gcc/avr/4.9.2/avrxmega7\libgcc.a(_mulshisi3.o)
                              c:/program files (x86)/atmel/studio/7.0/toolchain/avr8/avr8-gnu-toolchain/bin/../lib/gcc/avr/4.9.2/../../../../avr/lib/avrxmega7\libc.a(rand.o) (__mulohisi3)
c:/program files (x86)/atmel/studio/7.0/toolchain/avr8/avr8-gnu-toolchain/bin/../lib/gcc/avr/4.9.2/avrxmega7\libgcc.a(_umulhisi3.o)
                              c:/program files (x86)/atmel/studio/7.0/toolchain/avr8/avr8-gnu-toolchain/bin/../lib/gcc/avr/4.9.2/avrxmega7\libgcc.a(_muluhisi3.o) (__umulhisi3)

Allocating common symbols
Common symbol       size              file

timer_events        0x4               src/timer.o
rtc_data            0x8               src/ASF/xmega/drivers/rtc/rtc.o
sen_current_data    0x2               src/sensors/sensors.o
edge3               0x2               src/main.o
edge2               0x2               src/main.o
sen_idata1          0xc               src/sensors/sensors.o
adcb_callback       0x2               src/ASF/xmega/drivers/adc/adc.o
__brkval            0x2               c:/program files (x86)/atmel/studio/7.0/toolchain/avr8/avr8-gnu-toolchain/bin/../lib/gcc/avr/4.9.2/../../../../avr/lib/avrxmega7\libc.a(malloc.o)
sen_vdata1          0x10              src/sensors/sensors.o
sen_voltage_buffer  0x2               src/sensors/sensors.o
sen_idata2          0xc               src/sensors/sensors.o
dtime_time          0x4               src/daytime.o
sleepmgr_locks      0x6               src/ASF/common/services/sleepmgr/xmega/sleepmgr.o
sen_current_buffer  0x2               src/sensors/sensors.o
edge1               0x2               src/main.o
sen_vdata2          0x10              src/sensors/sensors.o
__flp               0x2               c:/program files (x86)/atmel/studio/7.0/toolchain/avr8/avr8-gnu-toolchain/bin/../lib/gcc/avr/4.9.2/../../../../avr/lib/avrxmega7\libc.a(malloc.o)
sen_voltage_data    0x2               src/sensors/sensors.o
error_no            0x1               D:\Dev\Matura\Software\MaturaSoftware\Common Lib\Debug\lib_common_128a1u.a(error.o)
dtime_timer_interval
                    0x4               src/daytime.o
adca_callback       0x2               src/ASF/xmega/drivers/adc/adc.o

Discarded input sections

 .data          0x00000000        0x0 C:/Program Files (x86)/Atmel/Studio/7.0/Packs/atmel/XMEGAA_DFP/1.0.39/gcc/dev/atxmega128a1u/avrxmega7/crtatxmega128a1u.o
 .bss           0x00000000        0x0 C:/Program Files (x86)/Atmel/Studio/7.0/Packs/atmel/XMEGAA_DFP/1.0.39/gcc/dev/atxmega128a1u/avrxmega7/crtatxmega128a1u.o
 .group         0x00000000        0x8 src/ASF/xmega/drivers/rtc/rtc.o
 .group         0x00000000        0x8 src/ASF/xmega/drivers/rtc/rtc.o
 .group         0x00000000        0x8 src/ASF/xmega/drivers/rtc/rtc.o
 .group         0x00000000        0x8 src/ASF/xmega/drivers/rtc/rtc.o
 .group         0x00000000        0x8 src/ASF/xmega/drivers/rtc/rtc.o
 .group         0x00000000        0x8 src/ASF/xmega/drivers/rtc/rtc.o
 .group         0x00000000        0x8 src/ASF/xmega/drivers/rtc/rtc.o
 .group         0x00000000        0x8 src/ASF/xmega/drivers/rtc/rtc.o
 .group         0x00000000        0x8 src/ASF/xmega/drivers/rtc/rtc.o
 .group         0x00000000        0x8 src/ASF/xmega/drivers/rtc/rtc.o
 .group         0x00000000        0x8 src/ASF/xmega/drivers/rtc/rtc.o
 .group         0x00000000        0x8 src/ASF/xmega/drivers/rtc/rtc.o
 .group         0x00000000        0x8 src/ASF/xmega/drivers/rtc/rtc.o
 .group         0x00000000        0x8 src/ASF/xmega/drivers/rtc/rtc.o
 .group         0x00000000        0x8 src/ASF/xmega/drivers/rtc/rtc.o
 .group         0x00000000        0x8 src/ASF/xmega/drivers/rtc/rtc.o
Memory Configuration

Name             Origin             Length             Attributes
text             0x00000000         0x00100000         xr
data             0x00802000         0x0000ffa0         rw !x
eeprom           0x00810000         0x00010000         rw !x
fuse             0x00820000         0x00000400         rw !x
lock             0x00830000         0x00000400         rw !x
signature        0x00840000         0x00000400         rw !x
user_signatures  0x00850000         0x00000400         rw !x
*default*        0x00000000         0xffffffff

Linker script and memory map

LOAD C:/Program Files (x86)/Atmel/Studio/7.0/Packs/atmel/XMEGAA_DFP/1.0.39/gcc/dev/atxmega128a1u/avrxmega7/crtatxmega128a1u.o
LOAD src/ASF/xmega/drivers/rtc/rtc.o
LOAD src/daytime.o
LOAD src/edge/comm_driver.o
LOAD src/edge/controller.o
LOAD src/edge/endpoints.o
LOAD src/edge/history.o
LOAD src/logger.o
LOAD src/timer.o
LOAD src/ASF/common/services/serial/usart_serial.o
LOAD src/ASF/xmega/drivers/tc/tc.o
LOAD src/ASF/xmega/drivers/twi/twis.o
LOAD src/ASF/xmega/drivers/usart/usart.o
LOAD src/edge/edge.o
LOAD src/edge/edge_board.o
LOAD src/hmi.o
LOAD src/sensors/sensors.o
LOAD src/ASF/common/boards/user_board/init.o
LOAD src/ASF/common/services/clock/xmega/sysclk.o
LOAD src/ASF/common/services/ioport/xmega/ioport_compat.o
LOAD src/ASF/common/services/sleepmgr/xmega/sleepmgr.o
LOAD src/ASF/xmega/drivers/adc/adc.o
LOAD src/ASF/xmega/drivers/adc/xmega_aau/adc_aau.o
LOAD src/ASF/xmega/drivers/cpu/ccp.o
LOAD src/ASF/xmega/drivers/nvm/nvm.o
LOAD src/ASF/xmega/drivers/nvm/nvm_asm.o
LOAD src/main.o
START GROUP
LOAD c:/program files (x86)/atmel/studio/7.0/toolchain/avr8/avr8-gnu-toolchain/bin/../lib/gcc/avr/4.9.2/../../../../avr/lib/avrxmega7\libm.a
LOAD D:\Dev\Matura\Software\MaturaSoftware\Common Lib\Debug\lib_common_128a1u.a
END GROUP
START GROUP
LOAD c:/program files (x86)/atmel/studio/7.0/toolchain/avr8/avr8-gnu-toolchain/bin/../lib/gcc/avr/4.9.2/avrxmega7\libgcc.a
LOAD c:/program files (x86)/atmel/studio/7.0/toolchain/avr8/avr8-gnu-toolchain/bin/../lib/gcc/avr/4.9.2/../../../../avr/lib/avrxmega7\libm.a
LOAD c:/program files (x86)/atmel/studio/7.0/toolchain/avr8/avr8-gnu-toolchain/bin/../lib/gcc/avr/4.9.2/../../../../avr/lib/avrxmega7\libc.a
LOAD C:/Program Files (x86)/Atmel/Studio/7.0/Packs/atmel/XMEGAA_DFP/1.0.39/gcc/dev/atxmega128a1u/avrxmega7\libatxmega128a1u.a
END GROUP
                0x00100000                __TEXT_REGION_LENGTH__ = DEFINED (__TEXT_REGION_LENGTH__)?__TEXT_REGION_LENGTH__:0x100000
                0x0000ffa0                __DATA_REGION_LENGTH__ = DEFINED (__DATA_REGION_LENGTH__)?__DATA_REGION_LENGTH__:0xffa0
                0x00010000                __EEPROM_REGION_LENGTH__ = DEFINED (__EEPROM_REGION_LENGTH__)?__EEPROM_REGION_LENGTH__:0x10000
                0x00000400                __FUSE_REGION_LENGTH__ = DEFINED (__FUSE_REGION_LENGTH__)?__FUSE_REGION_LENGTH__:0x400
                0x00000400                __LOCK_REGION_LENGTH__ = DEFINED (__LOCK_REGION_LENGTH__)?__LOCK_REGION_LENGTH__:0x400
                0x00000400                __SIGNATURE_REGION_LENGTH__ = DEFINED (__SIGNATURE_REGION_LENGTH__)?__SIGNATURE_REGION_LENGTH__:0x400
                0x00000400                __USER_SIGNATURE_REGION_LENGTH__ = DEFINED (__USER_SIGNATURE_REGION_LENGTH__)?__USER_SIGNATURE_REGION_LENGTH__:0x400

.hash
 *(.hash)

.dynsym
 *(.dynsym)

.dynstr
 *(.dynstr)

.gnu.version
 *(.gnu.version)

.gnu.version_d
 *(.gnu.version_d)

.gnu.version_r
 *(.gnu.version_r)

.rel.init
 *(.rel.init)

.rela.init
 *(.rela.init)

.rel.text
 *(.rel.text)
 *(.rel.text.*)
 *(.rel.gnu.linkonce.t*)

.rela.text
 *(.rela.text)
 *(.rela.text.*)
 *(.rela.gnu.linkonce.t*)

.rel.fini
 *(.rel.fini)

.rela.fini
 *(.rela.fini)

.rel.rodata
 *(.rel.rodata)
 *(.rel.rodata.*)
 *(.rel.gnu.linkonce.r*)

.rela.rodata
 *(.rela.rodata)
 *(.rela.rodata.*)
 *(.rela.gnu.linkonce.r*)

.rel.data
 *(.rel.data)
 *(.rel.data.*)
 *(.rel.gnu.linkonce.d*)

.rela.data
 *(.rela.data)
 *(.rela.data.*)
 *(.rela.gnu.linkonce.d*)

.rel.ctors
 *(.rel.ctors)

.rela.ctors
 *(.rela.ctors)

.rel.dtors
 *(.rel.dtors)

.rela.dtors
 *(.rela.dtors)

.rel.got
 *(.rel.got)

.rela.got
 *(.rela.got)

.rel.bss
 *(.rel.bss)

.rela.bss
 *(.rela.bss)

.rel.plt
 *(.rel.plt)

.rela.plt
 *(.rela.plt)

.text           0x00000000     0x6902
 *(.vectors)
 .vectors       0x00000000      0x1fc C:/Program Files (x86)/Atmel/Studio/7.0/Packs/atmel/XMEGAA_DFP/1.0.39/gcc/dev/atxmega128a1u/avrxmega7/crtatxmega128a1u.o
                0x00000000                __vector_default
                0x00000000                __vectors
 *(.vectors)
 *(.progmem.gcc*)
                0x000001fc                . = ALIGN (0x2)
                0x000001fc                __trampolines_start = .
 *(.trampolines)
 .trampolines   0x000001fc        0x0 linker stubs
 *(.trampolines*)
                0x000001fc                __trampolines_end = .
 *libprintf_flt.a:*(.progmem.data)
 *libc.a:*(.progmem.data)
 *(.progmem*)
                0x000001fc                . = ALIGN (0x2)
 *(.jumptables)
 *(.jumptables*)
 *(.lowtext)
 *(.lowtext*)
                0x000001fc                __ctors_start = .
 *(.ctors)
                0x000001fc                __ctors_end = .
                0x000001fc                __dtors_start = .
 *(.dtors)
                0x000001fc                __dtors_end = .
 SORT(*)(.ctors)
 SORT(*)(.dtors)
 *(.init0)
 .init0         0x000001fc        0x0 C:/Program Files (x86)/Atmel/Studio/7.0/Packs/atmel/XMEGAA_DFP/1.0.39/gcc/dev/atxmega128a1u/avrxmega7/crtatxmega128a1u.o
                0x000001fc                __init
 *(.init0)
 *(.init1)
 *(.init1)
 *(.init2)
 .init2         0x000001fc       0x18 C:/Program Files (x86)/Atmel/Studio/7.0/Packs/atmel/XMEGAA_DFP/1.0.39/gcc/dev/atxmega128a1u/avrxmega7/crtatxmega128a1u.o
 *(.init2)
 *(.init3)
 *(.init3)
 *(.init4)
 .init4         0x00000214       0x1c c:/program files (x86)/atmel/studio/7.0/toolchain/avr8/avr8-gnu-toolchain/bin/../lib/gcc/avr/4.9.2/avrxmega7\libgcc.a(_copy_data.o)
                0x00000214                __do_copy_data
 .init4         0x00000230       0x10 c:/program files (x86)/atmel/studio/7.0/toolchain/avr8/avr8-gnu-toolchain/bin/../lib/gcc/avr/4.9.2/avrxmega7\libgcc.a(_clear_bss.o)
                0x00000230                __do_clear_bss
 *(.init4)
 *(.init5)
 *(.init5)
 *(.init6)
 *(.init6)
 *(.init7)
 *(.init7)
 *(.init8)
 *(.init8)
 *(.init9)
 .init9         0x00000240        0x8 C:/Program Files (x86)/Atmel/Studio/7.0/Packs/atmel/XMEGAA_DFP/1.0.39/gcc/dev/atxmega128a1u/avrxmega7/crtatxmega128a1u.o
 *(.init9)
 *(.text)
 .text          0x00000248        0x2 C:/Program Files (x86)/Atmel/Studio/7.0/Packs/atmel/XMEGAA_DFP/1.0.39/gcc/dev/atxmega128a1u/avrxmega7/crtatxmega128a1u.o
                0x00000248                __vector_38
                0x00000248                __vector_104
                0x00000248                __vector_67
                0x00000248                __vector_1
                0x00000248                __vector_32
                0x00000248                __vector_75
                0x00000248                __vector_34
                0x00000248                __vector_62
                0x00000248                __vector_102
                0x00000248                __vector_24
                0x00000248                __vector_12
                0x00000248                __vector_69
                0x00000248                __vector_46
                0x00000248                __bad_interrupt
                0x00000248                __vector_6
                0x00000248                __vector_31
                0x00000248                __vector_92
                0x00000248                __vector_35
                0x00000248                __vector_107
                0x00000248                __vector_3
                0x00000248                __vector_105
                0x00000248                __vector_98
                0x00000248                __vector_68
                0x00000248                __vector_45
                0x00000248                __vector_99
                0x00000248                __vector_13
                0x00000248                __vector_7
                0x00000248                __vector_125
                0x00000248                __vector_123
                0x00000248                __vector_100
                0x00000248                __vector_101
                0x00000248                __vector_64
                0x00000248                __vector_43
                0x00000248                __vector_5
                0x00000248                __vector_33
                0x00000248                __vector_76
                0x00000248                __vector_37
                0x00000248                __vector_95
                0x00000248                __vector_103
                0x00000248                __vector_96
                0x00000248                __vector_89
                0x00000248                __vector_4
                0x00000248                __vector_44
                0x00000248                __vector_106
                0x00000248                __vector_118
                0x00000248                __vector_9
                0x00000248                __vector_2
                0x00000248                __vector_66
                0x00000248                __vector_36
                0x00000248                __vector_70
                0x00000248                __vector_29
                0x00000248                __vector_94
                0x00000248                __vector_126
                0x00000248                __vector_8
                0x00000248                __vector_26
                0x00000248                __vector_57
                0x00000248                __vector_59
                0x00000248                __vector_97
                0x00000248                __vector_87
                0x00000248                __vector_65
                0x00000248                __vector_120
                0x0000024a                . = ALIGN (0x2)
 *(.text.*)
 .text.rtc_get_time
                0x0000024a       0x58 src/ASF/xmega/drivers/rtc/rtc.o
                0x0000024a                rtc_get_time
 .text.rtc_set_alarm
                0x000002a2       0x30 src/ASF/xmega/drivers/rtc/rtc.o
                0x000002a2                rtc_set_alarm
 .text.rtc_set_callback
                0x000002d2        0xa src/ASF/xmega/drivers/rtc/rtc.o
                0x000002d2                rtc_set_callback
 .text.rtc_init
                0x000002dc       0x3e src/ASF/xmega/drivers/rtc/rtc.o
                0x000002dc                rtc_init
 .text.__vector_10
                0x0000031a       0x46 src/ASF/xmega/drivers/rtc/rtc.o
                0x0000031a                __vector_10
 .text.__vector_11
                0x00000360      0x108 src/ASF/xmega/drivers/rtc/rtc.o
                0x00000360                __vector_11
 .text.dtime_ov_callback
                0x00000468       0x28 src/daytime.o
                0x00000468                dtime_ov_callback
 .text.dtime_callib_callback
                0x00000490       0x40 src/daytime.o
                0x00000490                dtime_callib_callback
 .text.dtime_init
                0x000004d0       0x4c src/daytime.o
                0x000004d0                dtime_init
 .text.dtime_get_time
                0x0000051c       0x18 src/daytime.o
                0x0000051c                dtime_get_time
 .text.dtime_callib_timer
                0x00000534       0x5e src/daytime.o
                0x00000534                dtime_callib_timer
 .text.commd_timeout_handle
                0x00000592       0x40 src/edge/comm_driver.o
                0x00000592                commd_timeout_handle
 .text.commd_init
                0x000005d2      0x210 src/edge/comm_driver.o
                0x000005d2                commd_init
 .text.commd_update
                0x000007e2       0xfe src/edge/comm_driver.o
                0x000007e2                commd_update
 .text.commd_send_data
                0x000008e0      0x15a src/edge/comm_driver.o
                0x000008e0                commd_send_data
 .text.commd_send_cmd
                0x00000a3a       0x4a src/edge/comm_driver.o
                0x00000a3a                commd_send_cmd
 .text.commd_send_cmd_a
                0x00000a84       0x1e src/edge/comm_driver.o
                0x00000a84                commd_send_cmd_a
 .text.commd_enable_listen
                0x00000aa2       0x22 src/edge/comm_driver.o
                0x00000aa2                commd_enable_listen
 .text.commd_discard_package
                0x00000ac4       0x46 src/edge/comm_driver.o
                0x00000ac4                commd_discard_package
 .text.commd_rxc_handle
                0x00000b0a       0xbe src/edge/comm_driver.o
                0x00000b0a                commd_rxc_handle
 .text.commd_txc_handle
                0x00000bc8       0x76 src/edge/comm_driver.o
                0x00000bc8                commd_txc_handle
 .text.__vector_25
                0x00000c3e       0x6c src/edge/comm_driver.o
                0x00000c3e                __vector_25
 .text.__vector_27
                0x00000caa       0x6c src/edge/comm_driver.o
                0x00000caa                __vector_27
 .text.__vector_28
                0x00000d16       0x6c src/edge/comm_driver.o
                0x00000d16                __vector_28
 .text.__vector_30
                0x00000d82       0x6c src/edge/comm_driver.o
                0x00000d82                __vector_30
 .text.__vector_88
                0x00000dee       0x6c src/edge/comm_driver.o
                0x00000dee                __vector_88
 .text.__vector_90
                0x00000e5a       0x6c src/edge/comm_driver.o
                0x00000e5a                __vector_90
 .text.__vector_91
                0x00000ec6       0x6c src/edge/comm_driver.o
                0x00000ec6                __vector_91
 .text.__vector_93
                0x00000f32       0x6c src/edge/comm_driver.o
                0x00000f32                __vector_93
 .text.__vector_58
                0x00000f9e       0x6c src/edge/comm_driver.o
                0x00000f9e                __vector_58
 .text.__vector_60
                0x0000100a       0x6c src/edge/comm_driver.o
                0x0000100a                __vector_60
 .text.__vector_61
                0x00001076       0x6c src/edge/comm_driver.o
                0x00001076                __vector_61
 .text.__vector_63
                0x000010e2       0x6c src/edge/comm_driver.o
                0x000010e2                __vector_63
 .text.__vector_119
                0x0000114e       0x6c src/edge/comm_driver.o
                0x0000114e                __vector_119
 .text.__vector_121
                0x000011ba       0x6c src/edge/comm_driver.o
                0x000011ba                __vector_121
 .text.__vector_122
                0x00001226       0x6c src/edge/comm_driver.o
                0x00001226                __vector_122
 .text.__vector_124
                0x00001292       0x6c src/edge/comm_driver.o
                0x00001292                __vector_124
 .text.ctrl_edg_comm_handler
                0x000012fe        0x2 src/edge/controller.o
                0x000012fe                ctrl_edg_comm_handler
 .text.ctrl_req_update_edge_state_get
                0x00001300      0x138 src/edge/controller.o
                0x00001300                ctrl_req_update_edge_state_get
 .text.ctrl_req_update_edge_state_set_gen
                0x00001438       0x42 src/edge/controller.o
                0x00001438                ctrl_req_update_edge_state_set_gen
 .text.ctrl_req_update_edge_state_set_bat
                0x0000147a       0x42 src/edge/controller.o
                0x0000147a                ctrl_req_update_edge_state_set_bat
 .text.ctrl_start_init_handler
                0x000014bc       0x9a src/edge/controller.o
                0x000014bc                ctrl_start_init_handler
 .text.ctrl_init_timeout_handler
                0x00001556       0x72 src/edge/controller.o
                0x00001556                ctrl_init_timeout_handler
 .text.ctrl_init
                0x000015c8       0x90 src/edge/controller.o
                0x000015c8                ctrl_init
 .text.ctrl_start
                0x00001658       0x34 src/edge/controller.o
                0x00001658                ctrl_start
 .text.ctrl_add_request
                0x0000168c       0x42 src/edge/controller.o
                0x0000168c                ctrl_add_request
 .text.ctrl_init_comm_handler
                0x000016ce       0xfa src/edge/controller.o
                0x000016ce                ctrl_init_comm_handler
 .text.ctrl_req_update_dev_iterator
                0x000017c8        0xa src/edge/controller.o
                0x000017c8                ctrl_req_update_dev_iterator
 .text.ctrl_req_update_edge_state_upd_gen
                0x000017d2        0xc src/edge/controller.o
                0x000017d2                ctrl_req_update_edge_state_upd_gen
 .text.ctrl_req_endloop_timer
                0x000017de       0x28 src/edge/controller.o
                0x000017de                ctrl_req_endloop_timer
 .text.ctrl_request_done
                0x00001806       0x2a src/edge/controller.o
                0x00001806                ctrl_request_done
 .text.ctrl_add_device
                0x00001830      0x122 src/edge/controller.o
                0x00001830                ctrl_add_device
 .text.ctrl_update_device
                0x00001952       0x80 src/edge/controller.o
                0x00001952                ctrl_update_device
 .text.ctrl_per_comm_handler
                0x000019d2       0x66 src/edge/controller.o
                0x000019d2                ctrl_per_comm_handler
 .text.ctrl_req_init_per
                0x00001a38       0xd8 src/edge/controller.o
                0x00001a38                ctrl_req_init_per
 .text.ctrl_req_get_device
                0x00001b10       0x8c src/edge/controller.o
                0x00001b10                ctrl_req_get_device
 .text.ctrl_req_update_edge_state
                0x00001b9c      0x212 src/edge/controller.o
                0x00001b9c                ctrl_req_update_edge_state
 .text.ctrl_req_set_device
                0x00001dae       0xa0 src/edge/controller.o
                0x00001dae                ctrl_req_set_device
 .text.ctrl_req_endloop
                0x00001e4e       0x30 src/edge/controller.o
                0x00001e4e                ctrl_req_endloop
 .text.ctrl_update
                0x00001e7e       0xda src/edge/controller.o
                0x00001e7e                ctrl_update
 .text.ep_init  0x00001f58       0x18 src/edge/endpoints.o
                0x00001f58                ep_init
 .text.ep_add   0x00001f70       0x78 src/edge/endpoints.o
                0x00001f70                ep_add
 .text.ep_get_bid_f
                0x00001fe8       0x78 src/edge/endpoints.o
                0x00001fe8                ep_get_bid_f
 .text.ep_remove
                0x00002060       0x1e src/edge/endpoints.o
                0x00002060                ep_remove
 .text.ep_get_bid
                0x0000207e        0x6 src/edge/endpoints.o
                0x0000207e                ep_get_bid
 .text.ep_get_uid_f
                0x00002084       0x86 src/edge/endpoints.o
                0x00002084                ep_get_uid_f
 .text.ep_foreach_type_f
                0x0000210a       0x84 src/edge/endpoints.o
                0x0000210a                ep_foreach_type_f
 .text.ep_foreach_type
                0x0000218e        0xa src/edge/endpoints.o
                0x0000218e                ep_foreach_type
 .text.ep_foreach_state
                0x00002198       0x64 src/edge/endpoints.o
                0x00002198                ep_foreach_state
 .text.ep_set_state
                0x000021fc       0x5e src/edge/endpoints.o
                0x000021fc                ep_set_state
 .text.ep_deactivate
                0x0000225a        0x6 src/edge/endpoints.o
                0x0000225a                ep_deactivate
 .text.hist_init
                0x00002260       0x38 src/edge/history.o
                0x00002260                hist_init
 .text.hist_create_event
                0x00002298       0x42 src/edge/history.o
                0x00002298                hist_create_event
 .text.hist_append_data
                0x000022da       0x5e src/edge/history.o
                0x000022da                hist_append_data
 .text.hist_scale_event
                0x00002338      0x1a6 src/edge/history.o
                0x00002338                hist_scale_event
 .text.hist_get_correlation
                0x000024de      0x296 src/edge/history.o
                0x000024de                hist_get_correlation
 .text.hist_join_evts
                0x00002774      0x13e src/edge/history.o
                0x00002774                hist_join_evts
 .text.hist_update_reaction_time
                0x000028b2      0x18e src/edge/history.o
                0x000028b2                hist_update_reaction_time
 .text.hist_handle_data
                0x00002a40      0x248 src/edge/history.o
                0x00002a40                hist_handle_data
 .text.hist_get_prediction
                0x00002c88       0xb8 src/edge/history.o
                0x00002c88                hist_get_prediction
 .text.log_init
                0x00002d40        0xe src/logger.o
                0x00002d40                log_init
 .text.log_msg  0x00002d4e       0xc8 src/logger.o
                0x00002d4e                log_msg
 .text.timer_init
                0x00002e16       0x1e src/timer.o
                0x00002e16                timer_init
 .text.timer_recalculate
                0x00002e34       0x3c src/timer.o
                0x00002e34                timer_recalculate
 .text.timer_start
                0x00002e70        0xc src/timer.o
                0x00002e70                timer_start
 .text.timer_add_timer
                0x00002e7c       0xf0 src/timer.o
                0x00002e7c                timer_add_timer
 .text.timer_stop_timer
                0x00002f6c       0x6e src/timer.o
                0x00002f6c                timer_stop_timer
 .text.timer_cmp_callback
                0x00002fda       0xc2 src/timer.o
                0x00002fda                timer_cmp_callback
 .text.__vector_14
                0x0000309c       0x70 src/ASF/xmega/drivers/tc/tc.o
                0x0000309c                __vector_14
 .text.__vector_15
                0x0000310c       0x70 src/ASF/xmega/drivers/tc/tc.o
                0x0000310c                __vector_15
 .text.__vector_16
                0x0000317c       0x70 src/ASF/xmega/drivers/tc/tc.o
                0x0000317c                __vector_16
 .text.__vector_17
                0x000031ec       0x70 src/ASF/xmega/drivers/tc/tc.o
                0x000031ec                __vector_17
 .text.__vector_18
                0x0000325c       0x70 src/ASF/xmega/drivers/tc/tc.o
                0x0000325c                __vector_18
 .text.__vector_19
                0x000032cc       0x70 src/ASF/xmega/drivers/tc/tc.o
                0x000032cc                __vector_19
 .text.__vector_20
                0x0000333c       0x70 src/ASF/xmega/drivers/tc/tc.o
                0x0000333c                __vector_20
 .text.__vector_21
                0x000033ac       0x70 src/ASF/xmega/drivers/tc/tc.o
                0x000033ac                __vector_21
 .text.__vector_22
                0x0000341c       0x70 src/ASF/xmega/drivers/tc/tc.o
                0x0000341c                __vector_22
 .text.__vector_23
                0x0000348c       0x70 src/ASF/xmega/drivers/tc/tc.o
                0x0000348c                __vector_23
 .text.__vector_77
                0x000034fc       0x70 src/ASF/xmega/drivers/tc/tc.o
                0x000034fc                __vector_77
 .text.__vector_78
                0x0000356c       0x70 src/ASF/xmega/drivers/tc/tc.o
                0x0000356c                __vector_78
 .text.__vector_79
                0x000035dc       0x70 src/ASF/xmega/drivers/tc/tc.o
                0x000035dc                __vector_79
 .text.__vector_80
                0x0000364c       0x70 src/ASF/xmega/drivers/tc/tc.o
                0x0000364c                __vector_80
 .text.__vector_81
                0x000036bc       0x70 src/ASF/xmega/drivers/tc/tc.o
                0x000036bc                __vector_81
 .text.__vector_82
                0x0000372c       0x70 src/ASF/xmega/drivers/tc/tc.o
                0x0000372c                __vector_82
 .text.__vector_83
                0x0000379c       0x70 src/ASF/xmega/drivers/tc/tc.o
                0x0000379c                __vector_83
 .text.__vector_84
                0x0000380c       0x70 src/ASF/xmega/drivers/tc/tc.o
                0x0000380c                __vector_84
 .text.__vector_85
                0x0000387c       0x70 src/ASF/xmega/drivers/tc/tc.o
                0x0000387c                __vector_85
 .text.__vector_86
                0x000038ec       0x70 src/ASF/xmega/drivers/tc/tc.o
                0x000038ec                __vector_86
 .text.__vector_47
                0x0000395c       0x70 src/ASF/xmega/drivers/tc/tc.o
                0x0000395c                __vector_47
 .text.__vector_48
                0x000039cc       0x70 src/ASF/xmega/drivers/tc/tc.o
                0x000039cc                __vector_48
 .text.__vector_49
                0x00003a3c       0x70 src/ASF/xmega/drivers/tc/tc.o
                0x00003a3c                __vector_49
 .text.__vector_50
                0x00003aac       0x70 src/ASF/xmega/drivers/tc/tc.o
                0x00003aac                __vector_50
 .text.__vector_51
                0x00003b1c       0x70 src/ASF/xmega/drivers/tc/tc.o
                0x00003b1c                __vector_51
 .text.__vector_52
                0x00003b8c       0x70 src/ASF/xmega/drivers/tc/tc.o
                0x00003b8c                __vector_52
 .text.__vector_53
                0x00003bfc       0x70 src/ASF/xmega/drivers/tc/tc.o
                0x00003bfc                __vector_53
 .text.__vector_54
                0x00003c6c       0x70 src/ASF/xmega/drivers/tc/tc.o
                0x00003c6c                __vector_54
 .text.__vector_55
                0x00003cdc       0x70 src/ASF/xmega/drivers/tc/tc.o
                0x00003cdc                __vector_55
 .text.__vector_56
                0x00003d4c       0x70 src/ASF/xmega/drivers/tc/tc.o
                0x00003d4c                __vector_56
 .text.__vector_108
                0x00003dbc       0x70 src/ASF/xmega/drivers/tc/tc.o
                0x00003dbc                __vector_108
 .text.__vector_109
                0x00003e2c       0x70 src/ASF/xmega/drivers/tc/tc.o
                0x00003e2c                __vector_109
 .text.__vector_110
                0x00003e9c       0x70 src/ASF/xmega/drivers/tc/tc.o
                0x00003e9c                __vector_110
 .text.__vector_111
                0x00003f0c       0x70 src/ASF/xmega/drivers/tc/tc.o
                0x00003f0c                __vector_111
 .text.__vector_112
                0x00003f7c       0x70 src/ASF/xmega/drivers/tc/tc.o
                0x00003f7c                __vector_112
 .text.__vector_113
                0x00003fec       0x70 src/ASF/xmega/drivers/tc/tc.o
                0x00003fec                __vector_113
 .text.__vector_114
                0x0000405c       0x70 src/ASF/xmega/drivers/tc/tc.o
                0x0000405c                __vector_114
 .text.__vector_115
                0x000040cc       0x70 src/ASF/xmega/drivers/tc/tc.o
                0x000040cc                __vector_115
 .text.__vector_116
                0x0000413c       0x70 src/ASF/xmega/drivers/tc/tc.o
                0x0000413c                __vector_116
 .text.__vector_117
                0x000041ac       0x70 src/ASF/xmega/drivers/tc/tc.o
                0x000041ac                __vector_117
 .text.tc_set_overflow_interrupt_callback
                0x0000421c       0x8e src/ASF/xmega/drivers/tc/tc.o
                0x0000421c                tc_set_overflow_interrupt_callback
 .text.usart_set_baudrate
                0x000042aa      0x232 src/ASF/xmega/drivers/usart/usart.o
                0x000042aa                usart_set_baudrate
 .text.usart_init_rs232
                0x000044dc      0x2c2 src/ASF/xmega/drivers/usart/usart.o
                0x000044dc                usart_init_rs232
 .text.edge_init
                0x0000479e       0x72 src/edge/edge.o
                0x0000479e                edge_init
 .text.edge_start
                0x00004810        0xc src/edge/edge.o
                0x00004810                edge_start
 .text.edge_update
                0x0000481c       0x28 src/edge/edge.o
                0x0000481c                edge_update
 .text.edgb_set_in
                0x00004844       0xb0 src/edge/edge_board.o
                0x00004844                edgb_set_in
 .text.edgb_set_out
                0x000048f4       0xb4 src/edge/edge_board.o
                0x000048f4                edgb_set_out
 .text.edgb_init
                0x000049a8       0xbe src/edge/edge_board.o
                0x000049a8                edgb_init
 .text.edgb_set_led
                0x00004a66       0x4a src/edge/edge_board.o
                0x00004a66                edgb_set_led
 .text.sen_init
                0x00004ab0      0x1c2 src/sensors/sensors.o
                0x00004ab0                sen_init
 .text.sen_swap_buffers
                0x00004c72       0x48 src/sensors/sensors.o
                0x00004c72                sen_swap_buffers
 .text.sen_start_conversion
                0x00004cba       0x3c src/sensors/sensors.o
                0x00004cba                sen_start_conversion
 .text.sen_start
                0x00004cf6        0xa src/sensors/sensors.o
                0x00004cf6                sen_start
 .text.sen_voltage_callback
                0x00004d00       0xa0 src/sensors/sensors.o
                0x00004d00                sen_voltage_callback
 .text.sen_current_callback
                0x00004da0       0x98 src/sensors/sensors.o
                0x00004da0                sen_current_callback
 .text.board_init
                0x00004e38        0x2 src/ASF/common/boards/user_board/init.o
                0x00004e38                board_init
 .text.sysclk_init
                0x00004e3a       0x66 src/ASF/common/services/clock/xmega/sysclk.o
                0x00004e3a                sysclk_init
 .text.sysclk_enable_module
                0x00004ea0       0x18 src/ASF/common/services/clock/xmega/sysclk.o
                0x00004ea0                sysclk_enable_module
 .text.sysclk_disable_module
                0x00004eb8       0x16 src/ASF/common/services/clock/xmega/sysclk.o
                0x00004eb8                sysclk_disable_module
 .text.ioport_configure_port_pin
                0x00004ece       0x50 src/ASF/common/services/ioport/xmega/ioport_compat.o
                0x00004ece                ioport_configure_port_pin
 .text.adc_set_callback
                0x00004f1e       0x2c src/ASF/xmega/drivers/adc/adc.o
                0x00004f1e                adc_set_callback
 .text.adc_enable_clock
                0x00004f4a       0x3e src/ASF/xmega/drivers/adc/adc.o
                0x00004f4a                adc_enable_clock
 .text.adc_disable_clock
                0x00004f88       0x3a src/ASF/xmega/drivers/adc/adc.o
                0x00004f88                adc_disable_clock
 .text.adc_enable
                0x00004fc2       0x38 src/ASF/xmega/drivers/adc/adc.o
                0x00004fc2                adc_enable
 .text.__vector_71
                0x00004ffa       0x7a src/ASF/xmega/drivers/adc/xmega_aau/adc_aau.o
                0x00004ffa                __vector_71
 .text.__vector_72
                0x00005074       0x7a src/ASF/xmega/drivers/adc/xmega_aau/adc_aau.o
                0x00005074                __vector_72
 .text.__vector_73
                0x000050ee       0x7a src/ASF/xmega/drivers/adc/xmega_aau/adc_aau.o
                0x000050ee                __vector_73
 .text.__vector_74
                0x00005168       0x7a src/ASF/xmega/drivers/adc/xmega_aau/adc_aau.o
                0x00005168                __vector_74
 .text.__vector_39
                0x000051e2       0x7a src/ASF/xmega/drivers/adc/xmega_aau/adc_aau.o
                0x000051e2                __vector_39
 .text.__vector_40
                0x0000525c       0x7a src/ASF/xmega/drivers/adc/xmega_aau/adc_aau.o
                0x0000525c                __vector_40
 .text.__vector_41
                0x000052d6       0x7a src/ASF/xmega/drivers/adc/xmega_aau/adc_aau.o
                0x000052d6                __vector_41
 .text.__vector_42
                0x00005350       0x7a src/ASF/xmega/drivers/adc/xmega_aau/adc_aau.o
                0x00005350                __vector_42
 .text.adc_write_configuration
                0x000053ca       0xa0 src/ASF/xmega/drivers/adc/xmega_aau/adc_aau.o
                0x000053ca                adc_write_configuration
 .text.adc_read_configuration
                0x0000546a       0x46 src/ASF/xmega/drivers/adc/xmega_aau/adc_aau.o
                0x0000546a                adc_read_configuration
 .text.adcch_write_configuration
                0x000054b0       0x72 src/ASF/xmega/drivers/adc/xmega_aau/adc_aau.o
                0x000054b0                adcch_write_configuration
 .text.adcch_read_configuration
                0x00005522       0x72 src/ASF/xmega/drivers/adc/xmega_aau/adc_aau.o
                0x00005522                adcch_read_configuration
 .text.ccp_write_io
                0x00005594        0xc src/ASF/xmega/drivers/cpu/ccp.o
                0x00005594                ccp_write_io
 .text.nvm_read_byte
                0x000055a0       0x14 src/ASF/xmega/drivers/nvm/nvm_asm.o
                0x000055a0                nvm_read_byte
 .text.main     0x000055b4       0xc4 src/main.o
                0x000055b4                main
 .text.avr-libc.fplib
                0x00005678        0xa c:/program files (x86)/atmel/studio/7.0/toolchain/avr8/avr8-gnu-toolchain/bin/../lib/gcc/avr/4.9.2/../../../../avr/lib/avrxmega7\libm.a(addsf3.o)
                0x00005678                __subsf3
                0x0000567a                __addsf3
 .text.avr-libc.fplib
                0x00005682       0xc0 c:/program files (x86)/atmel/studio/7.0/toolchain/avr8/avr8-gnu-toolchain/bin/../lib/gcc/avr/4.9.2/../../../../avr/lib/avrxmega7\libm.a(addsf3x.o)
                0x0000569c                __addsf3x
 .text.avr-libc.fplib
                0x00005742        0x8 c:/program files (x86)/atmel/studio/7.0/toolchain/avr8/avr8-gnu-toolchain/bin/../lib/gcc/avr/4.9.2/../../../../avr/lib/avrxmega7\libm.a(cmpsf2.o)
                0x00005742                __nesf2
                0x00005742                __eqsf2
                0x00005742                __cmpsf2
                0x00005742                __ltsf2
                0x00005742                __lesf2
 .text.avr-libc.fplib
                0x0000574a        0x4 c:/program files (x86)/atmel/studio/7.0/toolchain/avr8/avr8-gnu-toolchain/bin/../lib/gcc/avr/4.9.2/../../../../avr/lib/avrxmega7\libm.a(divsf3.o)
                0x0000574a                __divsf3
 .text.avr-libc.fplib
                0x0000574e       0xcc c:/program files (x86)/atmel/studio/7.0/toolchain/avr8/avr8-gnu-toolchain/bin/../lib/gcc/avr/4.9.2/../../../../avr/lib/avrxmega7\libm.a(divsf3x.o)
                0x00005764                __divsf3x
                0x00005768                __divsf3_pse
 .text.avr-libc.fplib
                0x0000581a       0x58 c:/program files (x86)/atmel/studio/7.0/toolchain/avr8/avr8-gnu-toolchain/bin/../lib/gcc/avr/4.9.2/../../../../avr/lib/avrxmega7\libm.a(fixunssfsi.o)
                0x0000581a                __fixunssfsi
 .text.avr-libc.fplib
                0x00005872       0x7a c:/program files (x86)/atmel/studio/7.0/toolchain/avr8/avr8-gnu-toolchain/bin/../lib/gcc/avr/4.9.2/../../../../avr/lib/avrxmega7\libm.a(floatsisf.o)
                0x00005872                __floatunsisf
                0x00005876                __floatsisf
 .text.avr-libc.fplib
                0x000058ec       0x9c c:/program files (x86)/atmel/studio/7.0/toolchain/avr8/avr8-gnu-toolchain/bin/../lib/gcc/avr/4.9.2/../../../../avr/lib/avrxmega7\libm.a(fmod.o)
                0x000058fa                fmod
 .text.avr-libc.fplib
                0x00005988       0x48 c:/program files (x86)/atmel/studio/7.0/toolchain/avr8/avr8-gnu-toolchain/bin/../lib/gcc/avr/4.9.2/../../../../avr/lib/avrxmega7\libm.a(fp_cmp.o)
                0x00005988                __fp_cmp
 .text.avr-libc.fplib
                0x000059d0        0xc c:/program files (x86)/atmel/studio/7.0/toolchain/avr8/avr8-gnu-toolchain/bin/../lib/gcc/avr/4.9.2/../../../../avr/lib/avrxmega7\libm.a(fp_inf.o)
                0x000059d0                __fp_inf
 .text.avr-libc.fplib
                0x000059dc       0x1c c:/program files (x86)/atmel/studio/7.0/toolchain/avr8/avr8-gnu-toolchain/bin/../lib/gcc/avr/4.9.2/../../../../avr/lib/avrxmega7\libm.a(fp_mpack.o)
                0x000059dc                __fp_mpack
                0x000059e0                __fp_mpack_finite
 .text.avr-libc.fplib
                0x000059f8        0x6 c:/program files (x86)/atmel/studio/7.0/toolchain/avr8/avr8-gnu-toolchain/bin/../lib/gcc/avr/4.9.2/../../../../avr/lib/avrxmega7\libm.a(fp_nan.o)
                0x000059f8                __fp_nan
 .text.avr-libc.fplib
                0x000059fe        0xe c:/program files (x86)/atmel/studio/7.0/toolchain/avr8/avr8-gnu-toolchain/bin/../lib/gcc/avr/4.9.2/../../../../avr/lib/avrxmega7\libm.a(fp_pscA.o)
                0x000059fe                __fp_pscA
 .text.avr-libc.fplib
                0x00005a0c        0xe c:/program files (x86)/atmel/studio/7.0/toolchain/avr8/avr8-gnu-toolchain/bin/../lib/gcc/avr/4.9.2/../../../../avr/lib/avrxmega7\libm.a(fp_pscB.o)
                0x00005a0c                __fp_pscB
 .text.avr-libc.fplib
                0x00005a1a       0x22 c:/program files (x86)/atmel/studio/7.0/toolchain/avr8/avr8-gnu-toolchain/bin/../lib/gcc/avr/4.9.2/../../../../avr/lib/avrxmega7\libm.a(fp_round.o)
                0x00005a1a                __fp_round
 .text.avr-libc.fplib
                0x00005a3c       0x44 c:/program files (x86)/atmel/studio/7.0/toolchain/avr8/avr8-gnu-toolchain/bin/../lib/gcc/avr/4.9.2/../../../../avr/lib/avrxmega7\libm.a(fp_split3.o)
                0x00005a3c                __fp_split3
                0x00005a4c                __fp_splitA
 .text.avr-libc.fplib
                0x00005a80        0xe c:/program files (x86)/atmel/studio/7.0/toolchain/avr8/avr8-gnu-toolchain/bin/../lib/gcc/avr/4.9.2/../../../../avr/lib/avrxmega7\libm.a(fp_zero.o)
                0x00005a80                __fp_zero
                0x00005a82                __fp_szero
 .text.avr-libc.fplib
                0x00005a8e        0x8 c:/program files (x86)/atmel/studio/7.0/toolchain/avr8/avr8-gnu-toolchain/bin/../lib/gcc/avr/4.9.2/../../../../avr/lib/avrxmega7\libm.a(gesf2.o)
                0x00005a8e                __gesf2
                0x00005a8e                __gtsf2
 .text.avr-libc.fplib
                0x00005a96        0x4 c:/program files (x86)/atmel/studio/7.0/toolchain/avr8/avr8-gnu-toolchain/bin/../lib/gcc/avr/4.9.2/../../../../avr/lib/avrxmega7\libm.a(mulsf3.o)
                0x00005a96                __mulsf3
 .text.avr-libc.fplib
                0x00005a9a       0xc2 c:/program files (x86)/atmel/studio/7.0/toolchain/avr8/avr8-gnu-toolchain/bin/../lib/gcc/avr/4.9.2/../../../../avr/lib/avrxmega7\libm.a(mulsf3x.o)
                0x00005aae                __mulsf3x
                0x00005ab2                __mulsf3_pse
 .text.avr-libc.fplib
                0x00005b5c       0x40 c:/program files (x86)/atmel/studio/7.0/toolchain/avr8/avr8-gnu-toolchain/bin/../lib/gcc/avr/4.9.2/../../../../avr/lib/avrxmega7\libm.a(round.o)
                0x00005b5c                round
 .text.avr-libc.fplib
                0x00005b9c       0x36 c:/program files (x86)/atmel/studio/7.0/toolchain/avr8/avr8-gnu-toolchain/bin/../lib/gcc/avr/4.9.2/../../../../avr/lib/avrxmega7\libm.a(fp_mintl.o)
                0x00005b9c                __fp_mintl
 .text.ll_init  0x00005bd2        0xc D:\Dev\Matura\Software\MaturaSoftware\Common Lib\Debug\lib_common_128a1u.a(linked_list.o)
                0x00005bd2                ll_init
 .text.ll_add_before
                0x00005bde       0x24 D:\Dev\Matura\Software\MaturaSoftware\Common Lib\Debug\lib_common_128a1u.a(linked_list.o)
                0x00005bde                ll_add_before
 .text.ll_remove
                0x00005c02       0x20 D:\Dev\Matura\Software\MaturaSoftware\Common Lib\Debug\lib_common_128a1u.a(linked_list.o)
                0x00005c02                ll_remove
 .text.ll_is_empty
                0x00005c22       0x12 D:\Dev\Matura\Software\MaturaSoftware\Common Lib\Debug\lib_common_128a1u.a(linked_list.o)
                0x00005c22                ll_is_empty
 .text.rb_init  0x00005c34       0x2a D:\Dev\Matura\Software\MaturaSoftware\Common Lib\Debug\lib_common_128a1u.a(ring_buffer.o)
                0x00005c34                rb_init
 .text.rb_can_read
                0x00005c5e       0x1c D:\Dev\Matura\Software\MaturaSoftware\Common Lib\Debug\lib_common_128a1u.a(ring_buffer.o)
                0x00005c5e                rb_can_read
 .text.rb_can_write
                0x00005c7a       0x42 D:\Dev\Matura\Software\MaturaSoftware\Common Lib\Debug\lib_common_128a1u.a(ring_buffer.o)
                0x00005c7a                rb_can_write
 .text.rb_putd  0x00005cbc       0x50 D:\Dev\Matura\Software\MaturaSoftware\Common Lib\Debug\lib_common_128a1u.a(ring_buffer.o)
                0x00005cbc                rb_putd
 .text.rb_getd  0x00005d0c       0x4a D:\Dev\Matura\Software\MaturaSoftware\Common Lib\Debug\lib_common_128a1u.a(ring_buffer.o)
                0x00005d0c                rb_getd
 .text.rb_clear
                0x00005d56       0x12 D:\Dev\Matura\Software\MaturaSoftware\Common Lib\Debug\lib_common_128a1u.a(ring_buffer.o)
                0x00005d56                rb_clear
 .text.rb_save_state
                0x00005d68        0xc D:\Dev\Matura\Software\MaturaSoftware\Common Lib\Debug\lib_common_128a1u.a(ring_buffer.o)
                0x00005d68                rb_save_state
 .text.rb_restore_state
                0x00005d74       0x12 D:\Dev\Matura\Software\MaturaSoftware\Common Lib\Debug\lib_common_128a1u.a(ring_buffer.o)
                0x00005d74                rb_restore_state
 .text.tba_init_packet
                0x00005d86        0xe D:\Dev\Matura\Software\MaturaSoftware\Common Lib\Debug\lib_common_128a1u.a(tba.o)
                0x00005d86                tba_init_packet
 .text.tba_destroy_data
                0x00005d94       0x68 D:\Dev\Matura\Software\MaturaSoftware\Common Lib\Debug\lib_common_128a1u.a(tba.o)
                0x00005d94                tba_destroy_data
 .text.tba_destroy_packet
                0x00005dfc       0x26 D:\Dev\Matura\Software\MaturaSoftware\Common Lib\Debug\lib_common_128a1u.a(tba.o)
                0x00005dfc                tba_destroy_packet
 .text.tba_write_data
                0x00005e22       0xbc D:\Dev\Matura\Software\MaturaSoftware\Common Lib\Debug\lib_common_128a1u.a(tba.o)
                0x00005e22                tba_write_data
 .text.tba_init_void
                0x00005ede       0x16 D:\Dev\Matura\Software\MaturaSoftware\Common Lib\Debug\lib_common_128a1u.a(tba.o)
                0x00005ede                tba_init_void
 .text.tba_create_data
                0x00005ef4       0x28 D:\Dev\Matura\Software\MaturaSoftware\Common Lib\Debug\lib_common_128a1u.a(tba.o)
                0x00005ef4                tba_create_data
 .text.tba_handle_data_pkg
                0x00005f1c      0x158 D:\Dev\Matura\Software\MaturaSoftware\Common Lib\Debug\lib_common_128a1u.a(tba.o)
                0x00005f1c                tba_handle_data_pkg
 .text.tba_handle_data
                0x00006074       0x60 D:\Dev\Matura\Software\MaturaSoftware\Common Lib\Debug\lib_common_128a1u.a(tba.o)
                0x00006074                tba_handle_data
 .text.tba_init_uint8
                0x000060d4       0x28 D:\Dev\Matura\Software\MaturaSoftware\Common Lib\Debug\lib_common_128a1u.a(tba.o)
                0x000060d4                tba_init_uint8
 .text.tba_init_float
                0x000060fc       0x76 D:\Dev\Matura\Software\MaturaSoftware\Common Lib\Debug\lib_common_128a1u.a(tba.o)
                0x000060fc                tba_init_float
 .text.tba_get_array
                0x00006172       0x38 D:\Dev\Matura\Software\MaturaSoftware\Common Lib\Debug\lib_common_128a1u.a(tba.o)
                0x00006172                tba_get_array
 .text.tba_get_uint8
                0x000061aa        0xe D:\Dev\Matura\Software\MaturaSoftware\Common Lib\Debug\lib_common_128a1u.a(tba.o)
                0x000061aa                tba_get_uint8
 .text.tba_get_uint16
                0x000061b8       0x18 D:\Dev\Matura\Software\MaturaSoftware\Common Lib\Debug\lib_common_128a1u.a(tba.o)
                0x000061b8                tba_get_uint16
 .text.tba_get_float
                0x000061d0       0x3e D:\Dev\Matura\Software\MaturaSoftware\Common Lib\Debug\lib_common_128a1u.a(tba.o)
                0x000061d0                tba_get_float
 .text.error_push
                0x0000620e       0x3e D:\Dev\Matura\Software\MaturaSoftware\Common Lib\Debug\lib_common_128a1u.a(error.o)
                0x0000620e                error_push
 .text.error_pop
                0x0000624c       0x3e D:\Dev\Matura\Software\MaturaSoftware\Common Lib\Debug\lib_common_128a1u.a(error.o)
                0x0000624c                error_pop
 .text.error_clear
                0x0000628a        0x6 D:\Dev\Matura\Software\MaturaSoftware\Common Lib\Debug\lib_common_128a1u.a(error.o)
                0x0000628a                error_clear
 .text.libgcc.div
                0x00006290       0x26 c:/program files (x86)/atmel/studio/7.0/toolchain/avr8/avr8-gnu-toolchain/bin/../lib/gcc/avr/4.9.2/avrxmega7\libgcc.a(_divmodhi4.o)
                0x00006290                _div
                0x00006290                __divmodhi4
 .text.libgcc.div
                0x000062b6       0x44 c:/program files (x86)/atmel/studio/7.0/toolchain/avr8/avr8-gnu-toolchain/bin/../lib/gcc/avr/4.9.2/avrxmega7\libgcc.a(_udivmodsi4.o)
                0x000062b6                __udivmodsi4
 .text.libgcc.div
                0x000062fa       0x28 c:/program files (x86)/atmel/studio/7.0/toolchain/avr8/avr8-gnu-toolchain/bin/../lib/gcc/avr/4.9.2/avrxmega7\libgcc.a(_udivmodhi4.o)
                0x000062fa                __udivmodhi4
 .text.avr-libc
                0x00006322      0x25a c:/program files (x86)/atmel/studio/7.0/toolchain/avr8/avr8-gnu-toolchain/bin/../lib/gcc/avr/4.9.2/../../../../avr/lib/avrxmega7\libc.a(malloc.o)
                0x00006322                malloc
                0x0000644c                free
 .text.avr-libc
                0x0000657c       0xaa c:/program files (x86)/atmel/studio/7.0/toolchain/avr8/avr8-gnu-toolchain/bin/../lib/gcc/avr/4.9.2/../../../../avr/lib/avrxmega7\libc.a(rand.o)
                0x00006608                rand_r
                0x0000660a                rand
                0x00006610                srand
 .text.avr-libc
                0x00006626      0x1c8 c:/program files (x86)/atmel/studio/7.0/toolchain/avr8/avr8-gnu-toolchain/bin/../lib/gcc/avr/4.9.2/../../../../avr/lib/avrxmega7\libc.a(realloc.o)
                0x00006626                realloc
 .text.avr-libc
                0x000067ee       0x12 c:/program files (x86)/atmel/studio/7.0/toolchain/avr8/avr8-gnu-toolchain/bin/../lib/gcc/avr/4.9.2/../../../../avr/lib/avrxmega7\libc.a(memcpy.o)
                0x000067ee                memcpy
 .text.avr-libc
                0x00006800       0x20 C:/Program Files (x86)/Atmel/Studio/7.0/Packs/atmel/XMEGAA_DFP/1.0.39/gcc/dev/atxmega128a1u/avrxmega7\libatxmega128a1u.a(eerd_byte.o)
                0x00006800                eeprom_read_byte
                0x00006808                eeprom_mapen
 .text.avr-libc
                0x00006820       0x12 C:/Program Files (x86)/Atmel/Studio/7.0/Packs/atmel/XMEGAA_DFP/1.0.39/gcc/dev/atxmega128a1u/avrxmega7\libatxmega128a1u.a(eewr_block.o)
                0x00006820                eeprom_write_block
 .text.avr-libc
                0x00006832       0x46 C:/Program Files (x86)/Atmel/Studio/7.0/Packs/atmel/XMEGAA_DFP/1.0.39/gcc/dev/atxmega128a1u/avrxmega7\libatxmega128a1u.a(eewr_byte.o)
                0x00006832                eeprom_write_byte
                0x00006834                eeprom_write_r18
 .text.avr-libc
                0x00006878        0xa C:/Program Files (x86)/Atmel/Studio/7.0/Packs/atmel/XMEGAA_DFP/1.0.39/gcc/dev/atxmega128a1u/avrxmega7\libatxmega128a1u.a(eewr_dword.o)
                0x00006878                eeprom_write_dword
                0x00006878                eeprom_write_float
 .text.avr-libc
                0x00006882        0x6 C:/Program Files (x86)/Atmel/Studio/7.0/Packs/atmel/XMEGAA_DFP/1.0.39/gcc/dev/atxmega128a1u/avrxmega7\libatxmega128a1u.a(eewr_word.o)
                0x00006882                eeprom_write_word
 .text.libgcc.div
                0x00006888       0x28 c:/program files (x86)/atmel/studio/7.0/toolchain/avr8/avr8-gnu-toolchain/bin/../lib/gcc/avr/4.9.2/avrxmega7\libgcc.a(_divmodsi4.o)
                0x00006888                __divmodsi4
 .text.libgcc.div
                0x000068b0       0x10 c:/program files (x86)/atmel/studio/7.0/toolchain/avr8/avr8-gnu-toolchain/bin/../lib/gcc/avr/4.9.2/avrxmega7\libgcc.a(_negsi2.o)
                0x000068b0                __negsi2
 .text.libgcc.mul
                0x000068c0       0x14 c:/program files (x86)/atmel/studio/7.0/toolchain/avr8/avr8-gnu-toolchain/bin/../lib/gcc/avr/4.9.2/avrxmega7\libgcc.a(_muluhisi3.o)
                0x000068c0                __muluhisi3
 .text.libgcc.mul
                0x000068d4        0xc c:/program files (x86)/atmel/studio/7.0/toolchain/avr8/avr8-gnu-toolchain/bin/../lib/gcc/avr/4.9.2/avrxmega7\libgcc.a(_mulshisi3.o)
                0x000068d4                __mulshisi3
                0x000068d8                __mulohisi3
 .text.libgcc.mul
                0x000068e0       0x1e c:/program files (x86)/atmel/studio/7.0/toolchain/avr8/avr8-gnu-toolchain/bin/../lib/gcc/avr/4.9.2/avrxmega7\libgcc.a(_umulhisi3.o)
                0x000068e0                __umulhisi3
                0x000068fe                . = ALIGN (0x2)
 *(.fini9)
 .fini9         0x000068fe        0x0 c:/program files (x86)/atmel/studio/7.0/toolchain/avr8/avr8-gnu-toolchain/bin/../lib/gcc/avr/4.9.2/avrxmega7\libgcc.a(_exit.o)
                0x000068fe                _exit
                0x000068fe                exit
 *(.fini9)
 *(.fini8)
 *(.fini8)
 *(.fini7)
 *(.fini7)
 *(.fini6)
 *(.fini6)
 *(.fini5)
 *(.fini5)
 *(.fini4)
 *(.fini4)
 *(.fini3)
 *(.fini3)
 *(.fini2)
 *(.fini2)
 *(.fini1)
 *(.fini1)
 *(.fini0)
 .fini0         0x000068fe        0x4 c:/program files (x86)/atmel/studio/7.0/toolchain/avr8/avr8-gnu-toolchain/bin/../lib/gcc/avr/4.9.2/avrxmega7\libgcc.a(_exit.o)
 *(.fini0)
                0x00006902                _etext = .

.data           0x00802000       0xc0 load address 0x00006902
                0x00802000                PROVIDE (__data_start, .)
 *(.data)
 .data          0x00802000        0x6 c:/program files (x86)/atmel/studio/7.0/toolchain/avr8/avr8-gnu-toolchain/bin/../lib/gcc/avr/4.9.2/../../../../avr/lib/avrxmega7\libc.a(malloc.o)
                0x00802000                __malloc_heap_end
                0x00802002                __malloc_heap_start
                0x00802004                __malloc_margin
 .data          0x00802006        0x4 c:/program files (x86)/atmel/studio/7.0/toolchain/avr8/avr8-gnu-toolchain/bin/../lib/gcc/avr/4.9.2/../../../../avr/lib/avrxmega7\libc.a(rand.o)
 *(.data*)
 .data.next_entry
                0x0080200a        0x2 src/logger.o
                0x0080200a                next_entry
 .data.sen_i_rdy
                0x0080200c        0x1 src/sensors/sensors.o
                0x0080200c                sen_i_rdy
 .data.sen_v_rdy
                0x0080200d        0x1 src/sensors/sensors.o
                0x0080200d                sen_v_rdy
 *(.rodata)
 *(.rodata*)
 .rodata.str1.1
                0x0080200e       0x63 src/edge/controller.o
 .rodata.edge3_cfg
                0x00802071       0x18 src/edge/edge.o
                0x00802071                edge3_cfg
 .rodata.edge2_cfg
                0x00802089       0x18 src/edge/edge.o
                0x00802089                edge2_cfg
 .rodata.edge1_cfg
                0x008020a1       0x18 src/edge/edge.o
                0x008020a1                edge1_cfg
 .rodata.str1.1
                0x008020b9        0x6 src/main.o
 *(.gnu.linkonce.d*)
                0x008020c0                . = ALIGN (0x2)
 *fill*         0x008020bf        0x1 
                0x008020c0                _edata = .
                0x008020c0                PROVIDE (__data_end, .)

.bss            0x008020c0       0xd5
                0x008020c0                PROVIDE (__bss_start, .)
 *(.bss)
 *(.bss*)
 .bss.commd_uf1
                0x008020c0        0x2 src/edge/comm_driver.o
                0x008020c0                commd_uf1
 .bss.commd_uf0
                0x008020c2        0x2 src/edge/comm_driver.o
                0x008020c2                commd_uf0
 .bss.commd_ue1
                0x008020c4        0x2 src/edge/comm_driver.o
                0x008020c4                commd_ue1
 .bss.commd_ue0
                0x008020c6        0x2 src/edge/comm_driver.o
                0x008020c6                commd_ue0
 .bss.commd_ud1
                0x008020c8        0x2 src/edge/comm_driver.o
                0x008020c8                commd_ud1
 .bss.commd_ud0
                0x008020ca        0x2 src/edge/comm_driver.o
                0x008020ca                commd_ud0
 .bss.commd_uc1
                0x008020cc        0x2 src/edge/comm_driver.o
                0x008020cc                commd_uc1
 .bss.commd_uc0
                0x008020ce        0x2 src/edge/comm_driver.o
                0x008020ce                commd_uc0
 .bss.num_of_entries
                0x008020d0        0x1 src/logger.o
                0x008020d0                num_of_entries
 .bss.timer_current
                0x008020d1        0x2 src/timer.o
                0x008020d1                timer_current
 .bss.timer_next_id
                0x008020d3        0x4 src/timer.o
 .bss.tc_tcf1_ccb_callback
                0x008020d7        0x2 src/ASF/xmega/drivers/tc/tc.o
 .bss.tc_tcf1_cca_callback
                0x008020d9        0x2 src/ASF/xmega/drivers/tc/tc.o
 .bss.tc_tcf1_err_callback
                0x008020db        0x2 src/ASF/xmega/drivers/tc/tc.o
 .bss.tc_tcf1_ovf_callback
                0x008020dd        0x2 src/ASF/xmega/drivers/tc/tc.o
 .bss.tc_tcf0_ccd_callback
                0x008020df        0x2 src/ASF/xmega/drivers/tc/tc.o
 .bss.tc_tcf0_ccc_callback
                0x008020e1        0x2 src/ASF/xmega/drivers/tc/tc.o
 .bss.tc_tcf0_ccb_callback
                0x008020e3        0x2 src/ASF/xmega/drivers/tc/tc.o
 .bss.tc_tcf0_cca_callback
                0x008020e5        0x2 src/ASF/xmega/drivers/tc/tc.o
 .bss.tc_tcf0_err_callback
                0x008020e7        0x2 src/ASF/xmega/drivers/tc/tc.o
 .bss.tc_tcf0_ovf_callback
                0x008020e9        0x2 src/ASF/xmega/drivers/tc/tc.o
 .bss.tc_tce1_ccb_callback
                0x008020eb        0x2 src/ASF/xmega/drivers/tc/tc.o
 .bss.tc_tce1_cca_callback
                0x008020ed        0x2 src/ASF/xmega/drivers/tc/tc.o
 .bss.tc_tce1_err_callback
                0x008020ef        0x2 src/ASF/xmega/drivers/tc/tc.o
 .bss.tc_tce1_ovf_callback
                0x008020f1        0x2 src/ASF/xmega/drivers/tc/tc.o
 .bss.tc_tce0_ccd_callback
                0x008020f3        0x2 src/ASF/xmega/drivers/tc/tc.o
 .bss.tc_tce0_ccc_callback
                0x008020f5        0x2 src/ASF/xmega/drivers/tc/tc.o
 .bss.tc_tce0_ccb_callback
                0x008020f7        0x2 src/ASF/xmega/drivers/tc/tc.o
 .bss.tc_tce0_cca_callback
                0x008020f9        0x2 src/ASF/xmega/drivers/tc/tc.o
 .bss.tc_tce0_err_callback
                0x008020fb        0x2 src/ASF/xmega/drivers/tc/tc.o
 .bss.tc_tce0_ovf_callback
                0x008020fd        0x2 src/ASF/xmega/drivers/tc/tc.o
 .bss.tc_tcd1_ccb_callback
                0x008020ff        0x2 src/ASF/xmega/drivers/tc/tc.o
 .bss.tc_tcd1_cca_callback
                0x00802101        0x2 src/ASF/xmega/drivers/tc/tc.o
 .bss.tc_tcd1_err_callback
                0x00802103        0x2 src/ASF/xmega/drivers/tc/tc.o
 .bss.tc_tcd1_ovf_callback
                0x00802105        0x2 src/ASF/xmega/drivers/tc/tc.o
 .bss.tc_tcd0_ccd_callback
                0x00802107        0x2 src/ASF/xmega/drivers/tc/tc.o
 .bss.tc_tcd0_ccc_callback
                0x00802109        0x2 src/ASF/xmega/drivers/tc/tc.o
 .bss.tc_tcd0_ccb_callback
                0x0080210b        0x2 src/ASF/xmega/drivers/tc/tc.o
 .bss.tc_tcd0_cca_callback
                0x0080210d        0x2 src/ASF/xmega/drivers/tc/tc.o
 .bss.tc_tcd0_err_callback
                0x0080210f        0x2 src/ASF/xmega/drivers/tc/tc.o
 .bss.tc_tcd0_ovf_callback
                0x00802111        0x2 src/ASF/xmega/drivers/tc/tc.o
 .bss.tc_tcc1_ccb_callback
                0x00802113        0x2 src/ASF/xmega/drivers/tc/tc.o
 .bss.tc_tcc1_cca_callback
                0x00802115        0x2 src/ASF/xmega/drivers/tc/tc.o
 .bss.tc_tcc1_err_callback
                0x00802117        0x2 src/ASF/xmega/drivers/tc/tc.o
 .bss.tc_tcc1_ovf_callback
                0x00802119        0x2 src/ASF/xmega/drivers/tc/tc.o
 .bss.tc_tcc0_ccd_callback
                0x0080211b        0x2 src/ASF/xmega/drivers/tc/tc.o
 .bss.tc_tcc0_ccc_callback
                0x0080211d        0x2 src/ASF/xmega/drivers/tc/tc.o
 .bss.tc_tcc0_ccb_callback
                0x0080211f        0x2 src/ASF/xmega/drivers/tc/tc.o
 .bss.tc_tcc0_cca_callback
                0x00802121        0x2 src/ASF/xmega/drivers/tc/tc.o
 .bss.tc_tcc0_err_callback
                0x00802123        0x2 src/ASF/xmega/drivers/tc/tc.o
 .bss.tc_tcc0_ovf_callback
                0x00802125        0x2 src/ASF/xmega/drivers/tc/tc.o
 .bss.sen_enable
                0x00802127        0x1 src/sensors/sensors.o
                0x00802127                sen_enable
 .bss.adcb_enable_count
                0x00802128        0x1 src/ASF/xmega/drivers/adc/adc.o
 .bss.adca_enable_count
                0x00802129        0x1 src/ASF/xmega/drivers/adc/adc.o
 .bss.error_stack
                0x0080212a        0x2 D:\Dev\Matura\Software\MaturaSoftware\Common Lib\Debug\lib_common_128a1u.a(error.o)
                0x0080212a                error_stack
 *(COMMON)
 COMMON         0x0080212c        0x8 src/ASF/xmega/drivers/rtc/rtc.o
                0x0080212c                rtc_data
 COMMON         0x00802134        0x8 src/daytime.o
                0x00802134                dtime_time
                0x00802138                dtime_timer_interval
 COMMON         0x0080213c        0x4 src/timer.o
                0x0080213c                timer_events
 COMMON         0x00802140       0x40 src/sensors/sensors.o
                0x00802140                sen_current_data
                0x00802142                sen_idata1
                0x0080214e                sen_vdata1
                0x0080215e                sen_voltage_buffer
                0x00802160                sen_idata2
                0x0080216c                sen_current_buffer
                0x0080216e                sen_vdata2
                0x0080217e                sen_voltage_data
 COMMON         0x00802180        0x6 src/ASF/common/services/sleepmgr/xmega/sleepmgr.o
                0x00802180                sleepmgr_locks
 COMMON         0x00802186        0x4 src/ASF/xmega/drivers/adc/adc.o
                0x00802186                adcb_callback
                0x00802188                adca_callback
 COMMON         0x0080218a        0x6 src/main.o
                0x0080218a                edge3
                0x0080218c                edge2
                0x0080218e                edge1
 COMMON         0x00802190        0x1 D:\Dev\Matura\Software\MaturaSoftware\Common Lib\Debug\lib_common_128a1u.a(error.o)
                0x00802190                error_no
 COMMON         0x00802191        0x4 c:/program files (x86)/atmel/studio/7.0/toolchain/avr8/avr8-gnu-toolchain/bin/../lib/gcc/avr/4.9.2/../../../../avr/lib/avrxmega7\libc.a(malloc.o)
                0x00802191                __brkval
                0x00802193                __flp
                0x00802195                PROVIDE (__bss_end, .)
                0x00006902                __data_load_start = LOADADDR (.data)
                0x000069c2                __data_load_end = (__data_load_start + SIZEOF (.data))

.noinit         0x00802195        0x0
                [!provide]                PROVIDE (__noinit_start, .)
 *(.noinit*)
                [!provide]                PROVIDE (__noinit_end, .)
                0x00802195                _end = .
                0x00802195                PROVIDE (__heap_start, .)

.eeprom         0x00810000        0x0
 *(.eeprom*)
                0x00810000                __eeprom_end = .

.fuse
 *(.fuse)
 *(.lfuse)
 *(.hfuse)
 *(.efuse)

.lock
 *(.lock*)

.signature
 *(.signature*)

.user_signatures
 *(.user_signatures*)

.stab
 *(.stab)

.stabstr
 *(.stabstr)

.stab.excl
 *(.stab.excl)

.stab.exclstr
 *(.stab.exclstr)

.stab.index
 *(.stab.index)

.stab.indexstr
 *(.stab.indexstr)

.comment        0x00000000       0x30
 *(.comment)
 .comment       0x00000000       0x30 src/ASF/xmega/drivers/rtc/rtc.o
                                 0x31 (size before relaxing)
 .comment       0x00000030       0x31 src/daytime.o
 .comment       0x00000030       0x31 src/edge/comm_driver.o
 .comment       0x00000030       0x31 src/edge/controller.o
 .comment       0x00000030       0x31 src/edge/endpoints.o
 .comment       0x00000030       0x31 src/edge/history.o
 .comment       0x00000030       0x31 src/logger.o
 .comment       0x00000030       0x31 src/timer.o
 .comment       0x00000030       0x31 src/ASF/xmega/drivers/tc/tc.o
 .comment       0x00000030       0x31 src/ASF/xmega/drivers/usart/usart.o
 .comment       0x00000030       0x31 src/edge/edge.o
 .comment       0x00000030       0x31 src/edge/edge_board.o
 .comment       0x00000030       0x31 src/sensors/sensors.o
 .comment       0x00000030       0x31 src/ASF/common/boards/user_board/init.o
 .comment       0x00000030       0x31 src/ASF/common/services/clock/xmega/sysclk.o
 .comment       0x00000030       0x31 src/ASF/common/services/ioport/xmega/ioport_compat.o
 .comment       0x00000030       0x31 src/ASF/common/services/sleepmgr/xmega/sleepmgr.o
 .comment       0x00000030       0x31 src/ASF/xmega/drivers/adc/adc.o
 .comment       0x00000030       0x31 src/ASF/xmega/drivers/adc/xmega_aau/adc_aau.o
 .comment       0x00000030       0x31 src/main.o
 .comment       0x00000030       0x31 D:\Dev\Matura\Software\MaturaSoftware\Common Lib\Debug\lib_common_128a1u.a(linked_list.o)
 .comment       0x00000030       0x31 D:\Dev\Matura\Software\MaturaSoftware\Common Lib\Debug\lib_common_128a1u.a(ring_buffer.o)
 .comment       0x00000030       0x31 D:\Dev\Matura\Software\MaturaSoftware\Common Lib\Debug\lib_common_128a1u.a(tba.o)
 .comment       0x00000030       0x31 D:\Dev\Matura\Software\MaturaSoftware\Common Lib\Debug\lib_common_128a1u.a(error.o)
 .comment       0x00000030       0x31 c:/program files (x86)/atmel/studio/7.0/toolchain/avr8/avr8-gnu-toolchain/bin/../lib/gcc/avr/4.9.2/../../../../avr/lib/avrxmega7\libc.a(malloc.o)
 .comment       0x00000030       0x31 c:/program files (x86)/atmel/studio/7.0/toolchain/avr8/avr8-gnu-toolchain/bin/../lib/gcc/avr/4.9.2/../../../../avr/lib/avrxmega7\libc.a(rand.o)
 .comment       0x00000030       0x31 c:/program files (x86)/atmel/studio/7.0/toolchain/avr8/avr8-gnu-toolchain/bin/../lib/gcc/avr/4.9.2/../../../../avr/lib/avrxmega7\libc.a(realloc.o)

.note.gnu.avr.deviceinfo
                0x00000000       0x40
 .note.gnu.avr.deviceinfo
                0x00000000       0x40 C:/Program Files (x86)/Atmel/Studio/7.0/Packs/atmel/XMEGAA_DFP/1.0.39/gcc/dev/atxmega128a1u/avrxmega7/crtatxmega128a1u.o

.note.gnu.build-id
 *(.note.gnu.build-id)

.debug
 *(.debug)

.line
 *(.line)

.debug_srcinfo
 *(.debug_srcinfo)

.debug_sfnames
 *(.debug_sfnames)

.debug_aranges  0x00000000      0xa00
 *(.debug_aranges)
 .debug_aranges
                0x00000000       0x58 src/ASF/xmega/drivers/rtc/rtc.o
 .debug_aranges
                0x00000058       0x40 src/daytime.o
 .debug_aranges
                0x00000098       0xf8 src/edge/comm_driver.o
 .debug_aranges
                0x00000190       0xe0 src/edge/controller.o
 .debug_aranges
                0x00000270       0x80 src/edge/endpoints.o
 .debug_aranges
                0x000002f0       0x68 src/edge/history.o
 .debug_aranges
                0x00000358       0x30 src/logger.o
 .debug_aranges
                0x00000388       0x48 src/timer.o
 .debug_aranges
                0x000003d0      0x198 src/ASF/xmega/drivers/tc/tc.o
 .debug_aranges
                0x00000568       0x58 src/ASF/xmega/drivers/usart/usart.o
 .debug_aranges
                0x000005c0       0x40 src/edge/edge.o
 .debug_aranges
                0x00000600       0x48 src/edge/edge_board.o
 .debug_aranges
                0x00000648       0x50 src/sensors/sensors.o
 .debug_aranges
                0x00000698       0x20 src/ASF/common/boards/user_board/init.o
 .debug_aranges
                0x000006b8       0x40 src/ASF/common/services/clock/xmega/sysclk.o
 .debug_aranges
                0x000006f8       0x20 src/ASF/common/services/ioport/xmega/ioport_compat.o
 .debug_aranges
                0x00000718       0x18 src/ASF/common/services/sleepmgr/xmega/sleepmgr.o
 .debug_aranges
                0x00000730       0x48 src/ASF/xmega/drivers/adc/adc.o
 .debug_aranges
                0x00000778       0x78 src/ASF/xmega/drivers/adc/xmega_aau/adc_aau.o
 .debug_aranges
                0x000007f0       0x20 src/ASF/xmega/drivers/cpu/ccp.o
 .debug_aranges
                0x00000810       0x28 src/ASF/xmega/drivers/nvm/nvm_asm.o
 .debug_aranges
                0x00000838       0x20 src/main.o
 .debug_aranges
                0x00000858       0x40 D:\Dev\Matura\Software\MaturaSoftware\Common Lib\Debug\lib_common_128a1u.a(linked_list.o)
 .debug_aranges
                0x00000898       0x70 D:\Dev\Matura\Software\MaturaSoftware\Common Lib\Debug\lib_common_128a1u.a(ring_buffer.o)
 .debug_aranges
                0x00000908       0xc8 D:\Dev\Matura\Software\MaturaSoftware\Common Lib\Debug\lib_common_128a1u.a(tba.o)
 .debug_aranges
                0x000009d0       0x30 D:\Dev\Matura\Software\MaturaSoftware\Common Lib\Debug\lib_common_128a1u.a(error.o)

.debug_pubnames
 *(.debug_pubnames)

.debug_info     0x00000000    0x17539
 *(.debug_info .gnu.linkonce.wi.*)
 .debug_info    0x00000000      0x6fd src/ASF/xmega/drivers/rtc/rtc.o
 .debug_info    0x000006fd     0x10ef src/daytime.o
 .debug_info    0x000017ec     0x1da8 src/edge/comm_driver.o
 .debug_info    0x00003594     0x3571 src/edge/controller.o
 .debug_info    0x00006b05      0x979 src/edge/endpoints.o
 .debug_info    0x0000747e      0xaaa src/edge/history.o
 .debug_info    0x00007f28      0x3ff src/logger.o
 .debug_info    0x00008327      0x82e src/timer.o
 .debug_info    0x00008b55     0x1a47 src/ASF/xmega/drivers/tc/tc.o
 .debug_info    0x0000a59c     0x3287 src/ASF/xmega/drivers/usart/usart.o
 .debug_info    0x0000d823     0x1586 src/edge/edge.o
 .debug_info    0x0000eda9     0x1e3e src/edge/edge_board.o
 .debug_info    0x00010be7     0x1653 src/sensors/sensors.o
 .debug_info    0x0001223a      0x15f src/ASF/common/boards/user_board/init.o
 .debug_info    0x00012399      0x941 src/ASF/common/services/clock/xmega/sysclk.o
 .debug_info    0x00012cda      0x11d src/ASF/common/services/ioport/xmega/ioport_compat.o
 .debug_info    0x00012df7      0x121 src/ASF/common/services/sleepmgr/xmega/sleepmgr.o
 .debug_info    0x00012f18      0xab8 src/ASF/xmega/drivers/adc/adc.o
 .debug_info    0x000139d0      0xedf src/ASF/xmega/drivers/adc/xmega_aau/adc_aau.o
 .debug_info    0x000148af       0x7a src/ASF/xmega/drivers/cpu/ccp.o
 .debug_info    0x00014929       0x7a src/ASF/xmega/drivers/nvm/nvm_asm.o
 .debug_info    0x000149a3     0x166c src/main.o
 .debug_info    0x0001600f      0x1a6 D:\Dev\Matura\Software\MaturaSoftware\Common Lib\Debug\lib_common_128a1u.a(linked_list.o)
 .debug_info    0x000161b5      0x6df D:\Dev\Matura\Software\MaturaSoftware\Common Lib\Debug\lib_common_128a1u.a(ring_buffer.o)
 .debug_info    0x00016894      0x9f9 D:\Dev\Matura\Software\MaturaSoftware\Common Lib\Debug\lib_common_128a1u.a(tba.o)
 .debug_info    0x0001728d      0x2ac D:\Dev\Matura\Software\MaturaSoftware\Common Lib\Debug\lib_common_128a1u.a(error.o)

.debug_abbrev   0x00000000     0x3af4
 *(.debug_abbrev)
 .debug_abbrev  0x00000000      0x2ca src/ASF/xmega/drivers/rtc/rtc.o
 .debug_abbrev  0x000002ca      0x305 src/daytime.o
 .debug_abbrev  0x000005cf      0x459 src/edge/comm_driver.o
 .debug_abbrev  0x00000a28      0x489 src/edge/controller.o
 .debug_abbrev  0x00000eb1      0x21c src/edge/endpoints.o
 .debug_abbrev  0x000010cd      0x23b src/edge/history.o
 .debug_abbrev  0x00001308      0x1f7 src/logger.o
 .debug_abbrev  0x000014ff      0x2b1 src/timer.o
 .debug_abbrev  0x000017b0      0x2a7 src/ASF/xmega/drivers/tc/tc.o
 .debug_abbrev  0x00001a57      0x3df src/ASF/xmega/drivers/usart/usart.o
 .debug_abbrev  0x00001e36      0x253 src/edge/edge.o
 .debug_abbrev  0x00002089      0x2e6 src/edge/edge_board.o
 .debug_abbrev  0x0000236f      0x3e9 src/sensors/sensors.o
 .debug_abbrev  0x00002758       0xaa src/ASF/common/boards/user_board/init.o
 .debug_abbrev  0x00002802      0x27b src/ASF/common/services/clock/xmega/sysclk.o
 .debug_abbrev  0x00002a7d       0x93 src/ASF/common/services/ioport/xmega/ioport_compat.o
 .debug_abbrev  0x00002b10       0x80 src/ASF/common/services/sleepmgr/xmega/sleepmgr.o
 .debug_abbrev  0x00002b90      0x2b9 src/ASF/xmega/drivers/adc/adc.o
 .debug_abbrev  0x00002e49      0x32a src/ASF/xmega/drivers/adc/xmega_aau/adc_aau.o
 .debug_abbrev  0x00003173       0x14 src/ASF/xmega/drivers/cpu/ccp.o
 .debug_abbrev  0x00003187       0x12 src/ASF/xmega/drivers/nvm/nvm_asm.o
 .debug_abbrev  0x00003199      0x279 src/main.o
 .debug_abbrev  0x00003412       0xb2 D:\Dev\Matura\Software\MaturaSoftware\Common Lib\Debug\lib_common_128a1u.a(linked_list.o)
 .debug_abbrev  0x000034c4      0x20b D:\Dev\Matura\Software\MaturaSoftware\Common Lib\Debug\lib_common_128a1u.a(ring_buffer.o)
 .debug_abbrev  0x000036cf      0x28c D:\Dev\Matura\Software\MaturaSoftware\Common Lib\Debug\lib_common_128a1u.a(tba.o)
 .debug_abbrev  0x0000395b      0x199 D:\Dev\Matura\Software\MaturaSoftware\Common Lib\Debug\lib_common_128a1u.a(error.o)

.debug_line     0x00000000     0xd8ee
 *(.debug_line .debug_line.* .debug_line_end)
 .debug_line    0x00000000      0x7d1 src/ASF/xmega/drivers/rtc/rtc.o
 .debug_line    0x000007d1      0xa02 src/daytime.o
 .debug_line    0x000011d3     0x1224 src/edge/comm_driver.o
 .debug_line    0x000023f7     0x11c6 src/edge/controller.o
 .debug_line    0x000035bd      0x4bc src/edge/endpoints.o
 .debug_line    0x00003a79      0x755 src/edge/history.o
 .debug_line    0x000041ce      0x98d src/logger.o
 .debug_line    0x00004b5b      0xb0a src/timer.o
 .debug_line    0x00005665      0xf98 src/ASF/xmega/drivers/tc/tc.o
 .debug_line    0x000065fd      0xda3 src/ASF/xmega/drivers/usart/usart.o
 .debug_line    0x000073a0      0xa13 src/edge/edge.o
 .debug_line    0x00007db3      0xb48 src/edge/edge_board.o
 .debug_line    0x000088fb      0xc3d src/sensors/sensors.o
 .debug_line    0x00009538      0x829 src/ASF/common/boards/user_board/init.o
 .debug_line    0x00009d61      0x6aa src/ASF/common/services/clock/xmega/sysclk.o
 .debug_line    0x0000a40b      0x4b3 src/ASF/common/services/ioport/xmega/ioport_compat.o
 .debug_line    0x0000a8be      0x456 src/ASF/common/services/sleepmgr/xmega/sleepmgr.o
 .debug_line    0x0000ad14      0x79d src/ASF/xmega/drivers/adc/adc.o
 .debug_line    0x0000b4b1      0x96d src/ASF/xmega/drivers/adc/xmega_aau/adc_aau.o
 .debug_line    0x0000be1e       0x6e src/ASF/xmega/drivers/cpu/ccp.o
 .debug_line    0x0000be8c      0x11f src/ASF/xmega/drivers/nvm/nvm_asm.o
 .debug_line    0x0000bfab      0x9b9 src/main.o
 .debug_line    0x0000c964      0x150 D:\Dev\Matura\Software\MaturaSoftware\Common Lib\Debug\lib_common_128a1u.a(linked_list.o)
 .debug_line    0x0000cab4      0x480 D:\Dev\Matura\Software\MaturaSoftware\Common Lib\Debug\lib_common_128a1u.a(ring_buffer.o)
 .debug_line    0x0000cf34      0x70a D:\Dev\Matura\Software\MaturaSoftware\Common Lib\Debug\lib_common_128a1u.a(tba.o)
 .debug_line    0x0000d63e      0x2b0 D:\Dev\Matura\Software\MaturaSoftware\Common Lib\Debug\lib_common_128a1u.a(error.o)

.debug_frame    0x00000000     0x2ea8
 *(.debug_frame)
 .debug_frame   0x00000000      0x124 src/ASF/xmega/drivers/rtc/rtc.o
 .debug_frame   0x00000124       0x84 src/daytime.o
 .debug_frame   0x000001a8      0x7c4 src/edge/comm_driver.o
 .debug_frame   0x0000096c      0x3e0 src/edge/controller.o
 .debug_frame   0x00000d4c      0x1b4 src/edge/endpoints.o
 .debug_frame   0x00000f00      0x2f4 src/edge/history.o
 .debug_frame   0x000011f4       0x8c src/logger.o
 .debug_frame   0x00001280       0xe8 src/timer.o
 .debug_frame   0x00001368      0xe64 src/ASF/xmega/drivers/tc/tc.o
 .debug_frame   0x000021cc      0x154 src/ASF/xmega/drivers/usart/usart.o
 .debug_frame   0x00002320       0x90 src/edge/edge.o
 .debug_frame   0x000023b0       0x80 src/edge/edge_board.o
 .debug_frame   0x00002430       0xb0 src/sensors/sensors.o
 .debug_frame   0x000024e0       0x24 src/ASF/common/boards/user_board/init.o
 .debug_frame   0x00002504       0x64 src/ASF/common/services/clock/xmega/sysclk.o
 .debug_frame   0x00002568       0x30 src/ASF/common/services/ioport/xmega/ioport_compat.o
 .debug_frame   0x00002598       0x8c src/ASF/xmega/drivers/adc/adc.o
 .debug_frame   0x00002624      0x3a4 src/ASF/xmega/drivers/adc/xmega_aau/adc_aau.o
 .debug_frame   0x000029c8       0x24 src/main.o
 .debug_frame   0x000029ec       0x64 D:\Dev\Matura\Software\MaturaSoftware\Common Lib\Debug\lib_common_128a1u.a(linked_list.o)
 .debug_frame   0x00002a50      0x134 D:\Dev\Matura\Software\MaturaSoftware\Common Lib\Debug\lib_common_128a1u.a(ring_buffer.o)
 .debug_frame   0x00002b84      0x2c8 D:\Dev\Matura\Software\MaturaSoftware\Common Lib\Debug\lib_common_128a1u.a(tba.o)
 .debug_frame   0x00002e4c       0x5c D:\Dev\Matura\Software\MaturaSoftware\Common Lib\Debug\lib_common_128a1u.a(error.o)

.debug_str      0x00000000    0x3227a
 *(.debug_str)
 .debug_str     0x00000000    0x2c07d src/ASF/xmega/drivers/rtc/rtc.o
                              0x2c779 (size before relaxing)
 .debug_str     0x0002c07d     0x18bc src/daytime.o
                              0x2dbd8 (size before relaxing)
 .debug_str     0x0002d939      0xe05 src/edge/comm_driver.o
                              0x2e57b (size before relaxing)
 .debug_str     0x0002e73e      0xaac src/edge/controller.o
                              0x2ee42 (size before relaxing)
 .debug_str     0x0002f1ea       0x6d src/edge/endpoints.o
                               0x4349 (size before relaxing)
 .debug_str     0x0002f257      0x480 src/edge/history.o
                              0x1be5a (size before relaxing)
 .debug_str     0x0002f6d7      0x1f9 src/logger.o
                              0x2d922 (size before relaxing)
 .debug_str     0x0002f8d0       0xa4 src/timer.o
                              0x2d9ef (size before relaxing)
 .debug_str     0x0002f974      0x6ed src/ASF/xmega/drivers/tc/tc.o
                              0x2cdf7 (size before relaxing)
 .debug_str     0x00030061      0x8fc src/ASF/xmega/drivers/usart/usart.o
                              0x2d7d5 (size before relaxing)
 .debug_str     0x0003095d       0x84 src/edge/edge.o
                              0x2e3fa (size before relaxing)
 .debug_str     0x000309e1       0x57 src/edge/edge_board.o
                              0x2e265 (size before relaxing)
 .debug_str     0x00030a38      0xabc src/sensors/sensors.o
                              0x2e459 (size before relaxing)
 .debug_str     0x000314f4       0x36 src/ASF/common/boards/user_board/init.o
                              0x2d2cf (size before relaxing)
 .debug_str     0x0003152a      0x257 src/ASF/common/services/clock/xmega/sysclk.o
                              0x2c437 (size before relaxing)
 .debug_str     0x00031781       0x41 src/ASF/common/services/ioport/xmega/ioport_compat.o
                              0x2a0f0 (size before relaxing)
 .debug_str     0x000317c2       0x35 src/ASF/common/services/sleepmgr/xmega/sleepmgr.o
                              0x29dfc (size before relaxing)
 .debug_str     0x000317f7      0x1d6 src/ASF/xmega/drivers/adc/adc.o
                              0x2cdb3 (size before relaxing)
 .debug_str     0x000319cd      0x4fa src/ASF/xmega/drivers/adc/xmega_aau/adc_aau.o
                              0x2d046 (size before relaxing)
 .debug_str     0x00031ec7      0x16c src/main.o
                              0x2e55f (size before relaxing)
 .debug_str     0x00032033      0x10e D:\Dev\Matura\Software\MaturaSoftware\Common Lib\Debug\lib_common_128a1u.a(linked_list.o)
                                0x1de (size before relaxing)
 .debug_str     0x00032141       0x35 D:\Dev\Matura\Software\MaturaSoftware\Common Lib\Debug\lib_common_128a1u.a(ring_buffer.o)
                                0x293 (size before relaxing)
 .debug_str     0x00032176       0xd2 D:\Dev\Matura\Software\MaturaSoftware\Common Lib\Debug\lib_common_128a1u.a(tba.o)
                                0x3fd (size before relaxing)
 .debug_str     0x00032248       0x32 D:\Dev\Matura\Software\MaturaSoftware\Common Lib\Debug\lib_common_128a1u.a(error.o)
                                0x200 (size before relaxing)

.debug_loc      0x00000000     0xc227
 *(.debug_loc)
 .debug_loc     0x00000000      0x23b src/ASF/xmega/drivers/rtc/rtc.o
 .debug_loc     0x0000023b      0x114 src/daytime.o
 .debug_loc     0x0000034f     0x1c06 src/edge/comm_driver.o
 .debug_loc     0x00001f55     0x1bec src/edge/controller.o
 .debug_loc     0x00003b41      0x9cc src/edge/endpoints.o
 .debug_loc     0x0000450d      0xe35 src/edge/history.o
 .debug_loc     0x00005342      0x25a src/logger.o
 .debug_loc     0x0000559c      0x451 src/timer.o
 .debug_loc     0x000059ed     0x220a src/ASF/xmega/drivers/tc/tc.o
 .debug_loc     0x00007bf7     0x1084 src/ASF/xmega/drivers/usart/usart.o
 .debug_loc     0x00008c7b      0x17d src/edge/edge.o
 .debug_loc     0x00008df8      0x985 src/edge/edge_board.o
 .debug_loc     0x0000977d      0x2e4 src/sensors/sensors.o
 .debug_loc     0x00009a61      0x243 src/ASF/common/services/clock/xmega/sysclk.o
 .debug_loc     0x00009ca4       0x66 src/ASF/common/services/ioport/xmega/ioport_compat.o
 .debug_loc     0x00009d0a      0x216 src/ASF/xmega/drivers/adc/adc.o
 .debug_loc     0x00009f20      0xd66 src/ASF/xmega/drivers/adc/xmega_aau/adc_aau.o
 .debug_loc     0x0000ac86       0xa0 D:\Dev\Matura\Software\MaturaSoftware\Common Lib\Debug\lib_common_128a1u.a(linked_list.o)
 .debug_loc     0x0000ad26      0x56f D:\Dev\Matura\Software\MaturaSoftware\Common Lib\Debug\lib_common_128a1u.a(ring_buffer.o)
 .debug_loc     0x0000b295      0xdf6 D:\Dev\Matura\Software\MaturaSoftware\Common Lib\Debug\lib_common_128a1u.a(tba.o)
 .debug_loc     0x0000c08b      0x19c D:\Dev\Matura\Software\MaturaSoftware\Common Lib\Debug\lib_common_128a1u.a(error.o)

.debug_macinfo
 *(.debug_macinfo)

.debug_weaknames
 *(.debug_weaknames)

.debug_funcnames
 *(.debug_funcnames)

.debug_typenames
 *(.debug_typenames)

.debug_varnames
 *(.debug_varnames)

.debug_pubtypes
 *(.debug_pubtypes)

.debug_ranges   0x00000000      0xa38
 *(.debug_ranges)
 .debug_ranges  0x00000000       0x48 src/ASF/xmega/drivers/rtc/rtc.o
 .debug_ranges  0x00000048       0x30 src/daytime.o
 .debug_ranges  0x00000078      0x1c0 src/edge/comm_driver.o
 .debug_ranges  0x00000238       0xd0 src/edge/controller.o
 .debug_ranges  0x00000308       0x70 src/edge/endpoints.o
 .debug_ranges  0x00000378       0x58 src/edge/history.o
 .debug_ranges  0x000003d0       0x38 src/logger.o
 .debug_ranges  0x00000408       0x50 src/timer.o
 .debug_ranges  0x00000458      0x188 src/ASF/xmega/drivers/tc/tc.o
 .debug_ranges  0x000005e0       0x80 src/ASF/xmega/drivers/usart/usart.o
 .debug_ranges  0x00000660       0x30 src/edge/edge.o
 .debug_ranges  0x00000690       0x38 src/edge/edge_board.o
 .debug_ranges  0x000006c8       0x40 src/sensors/sensors.o
 .debug_ranges  0x00000708       0x10 src/ASF/common/boards/user_board/init.o
 .debug_ranges  0x00000718       0x30 src/ASF/common/services/clock/xmega/sysclk.o
 .debug_ranges  0x00000748       0x10 src/ASF/common/services/ioport/xmega/ioport_compat.o
 .debug_ranges  0x00000758       0x38 src/ASF/xmega/drivers/adc/adc.o
 .debug_ranges  0x00000790       0x68 src/ASF/xmega/drivers/adc/xmega_aau/adc_aau.o
 .debug_ranges  0x000007f8       0x20 src/ASF/xmega/drivers/nvm/nvm_asm.o
 .debug_ranges  0x00000818       0x10 src/main.o
 .debug_ranges  0x00000828       0x30 D:\Dev\Matura\Software\MaturaSoftware\Common Lib\Debug\lib_common_128a1u.a(linked_list.o)
 .debug_ranges  0x00000858       0x78 D:\Dev\Matura\Software\MaturaSoftware\Common Lib\Debug\lib_common_128a1u.a(ring_buffer.o)
 .debug_ranges  0x000008d0      0x118 D:\Dev\Matura\Software\MaturaSoftware\Common Lib\Debug\lib_common_128a1u.a(tba.o)
 .debug_ranges  0x000009e8       0x50 D:\Dev\Matura\Software\MaturaSoftware\Common Lib\Debug\lib_common_128a1u.a(error.o)

.debug_macro    0x00000000     0xda78
 *(.debug_macro)
 .debug_macro   0x00000000      0x237 src/ASF/xmega/drivers/rtc/rtc.o
 .debug_macro   0x00000237      0xa96 src/ASF/xmega/drivers/rtc/rtc.o
 .debug_macro   0x00000ccd       0x10 src/ASF/xmega/drivers/rtc/rtc.o
 .debug_macro   0x00000cdd      0x1c9 src/ASF/xmega/drivers/rtc/rtc.o
 .debug_macro   0x00000ea6      0x2fc src/ASF/xmega/drivers/rtc/rtc.o
 .debug_macro   0x000011a2       0x9e src/ASF/xmega/drivers/rtc/rtc.o
 .debug_macro   0x00001240     0x67b1 src/ASF/xmega/drivers/rtc/rtc.o
 .debug_macro   0x000079f1       0x9a src/ASF/xmega/drivers/rtc/rtc.o
 .debug_macro   0x00007a8b       0xf1 src/ASF/xmega/drivers/rtc/rtc.o
 .debug_macro   0x00007b7c       0x34 src/ASF/xmega/drivers/rtc/rtc.o
 .debug_macro   0x00007bb0       0x10 src/ASF/xmega/drivers/rtc/rtc.o
 .debug_macro   0x00007bc0       0x18 src/ASF/xmega/drivers/rtc/rtc.o
 .debug_macro   0x00007bd8       0x5e src/ASF/xmega/drivers/rtc/rtc.o
 .debug_macro   0x00007c36       0x10 src/ASF/xmega/drivers/rtc/rtc.o
 .debug_macro   0x00007c46       0x22 src/ASF/xmega/drivers/rtc/rtc.o
 .debug_macro   0x00007c68      0x166 src/ASF/xmega/drivers/rtc/rtc.o
 .debug_macro   0x00007dce       0x1c src/ASF/xmega/drivers/rtc/rtc.o
 .debug_macro   0x00007dea       0x35 src/ASF/xmega/drivers/rtc/rtc.o
 .debug_macro   0x00007e1f       0x66 src/ASF/xmega/drivers/rtc/rtc.o
 .debug_macro   0x00007e85      0x644 src/ASF/xmega/drivers/rtc/rtc.o
 .debug_macro   0x000084c9       0x97 src/ASF/xmega/drivers/rtc/rtc.o
 .debug_macro   0x00008560       0x17 src/ASF/xmega/drivers/rtc/rtc.o
 .debug_macro   0x00008577      0x250 src/ASF/xmega/drivers/rtc/rtc.o
 .debug_macro   0x000087c7       0x76 src/ASF/xmega/drivers/rtc/rtc.o
 .debug_macro   0x0000883d       0x16 src/ASF/xmega/drivers/rtc/rtc.o
 .debug_macro   0x00008853      0x6e3 src/ASF/xmega/drivers/rtc/rtc.o
 .debug_macro   0x00008f36       0x10 src/ASF/xmega/drivers/rtc/rtc.o
 .debug_macro   0x00008f46      0x175 src/ASF/xmega/drivers/rtc/rtc.o
 .debug_macro   0x000090bb       0x40 src/ASF/xmega/drivers/rtc/rtc.o
 .debug_macro   0x000090fb       0x69 src/ASF/xmega/drivers/rtc/rtc.o
 .debug_macro   0x00009164       0x32 src/ASF/xmega/drivers/rtc/rtc.o
 .debug_macro   0x00009196       0xe4 src/ASF/xmega/drivers/rtc/rtc.o
 .debug_macro   0x0000927a       0x28 src/ASF/xmega/drivers/rtc/rtc.o
 .debug_macro   0x000092a2      0x2aa src/ASF/xmega/drivers/rtc/rtc.o
 .debug_macro   0x0000954c      0x2cf src/ASF/xmega/drivers/rtc/rtc.o
 .debug_macro   0x0000981b       0x68 src/ASF/xmega/drivers/rtc/rtc.o
 .debug_macro   0x00009883       0x2f src/ASF/xmega/drivers/rtc/rtc.o
 .debug_macro   0x000098b2      0x154 src/ASF/xmega/drivers/rtc/rtc.o
 .debug_macro   0x00009a06       0x10 src/ASF/xmega/drivers/rtc/rtc.o
 .debug_macro   0x00009a16       0x42 src/ASF/xmega/drivers/rtc/rtc.o
 .debug_macro   0x00009a58       0x1c src/ASF/xmega/drivers/rtc/rtc.o
 .debug_macro   0x00009a74      0x32c src/daytime.o
 .debug_macro   0x00009da0       0x2e src/daytime.o
 .debug_macro   0x00009dce       0x1c src/daytime.o
 .debug_macro   0x00009dea       0x20 src/daytime.o
 .debug_macro   0x00009e0a       0xd5 src/daytime.o
 .debug_macro   0x00009edf       0x34 src/daytime.o
 .debug_macro   0x00009f13       0x9a src/daytime.o
 .debug_macro   0x00009fad      0x109 src/daytime.o
 .debug_macro   0x0000a0b6       0x12 src/daytime.o
 .debug_macro   0x0000a0c8       0x22 src/daytime.o
 .debug_macro   0x0000a0ea       0x22 src/daytime.o
 .debug_macro   0x0000a10c       0x3a src/daytime.o
 .debug_macro   0x0000a146       0x16 src/daytime.o
 .debug_macro   0x0000a15c       0x10 src/daytime.o
 .debug_macro   0x0000a16c      0x37d src/edge/comm_driver.o
 .debug_macro   0x0000a4e9       0x2e src/edge/comm_driver.o
 .debug_macro   0x0000a517       0x64 src/edge/comm_driver.o
 .debug_macro   0x0000a57b       0x94 src/edge/comm_driver.o
 .debug_macro   0x0000a60f       0x33 src/edge/comm_driver.o
 .debug_macro   0x0000a642      0x3bc src/edge/controller.o
 .debug_macro   0x0000a9fe       0x28 src/edge/controller.o
 .debug_macro   0x0000aa26       0xaa src/edge/controller.o
 .debug_macro   0x0000aad0      0x10e src/edge/controller.o
 .debug_macro   0x0000abde       0x7f src/edge/controller.o
 .debug_macro   0x0000ac5d       0x9a src/edge/controller.o
 .debug_macro   0x0000acf7       0x10 src/edge/controller.o
 .debug_macro   0x0000ad07       0x2e src/edge/controller.o
 .debug_macro   0x0000ad35       0x46 src/edge/controller.o
 .debug_macro   0x0000ad7b       0x10 src/edge/controller.o
 .debug_macro   0x0000ad8b       0x40 src/edge/controller.o
 .debug_macro   0x0000adcb       0x9c src/edge/endpoints.o
 .debug_macro   0x0000ae67       0xf3 src/edge/history.o
 .debug_macro   0x0000af5a      0x166 src/edge/history.o
 .debug_macro   0x0000b0c0       0x60 src/edge/history.o
 .debug_macro   0x0000b120       0x28 src/edge/history.o
 .debug_macro   0x0000b148      0x342 src/logger.o
 .debug_macro   0x0000b48a       0x34 src/logger.o
 .debug_macro   0x0000b4be       0x16 src/logger.o
 .debug_macro   0x0000b4d4      0x349 src/timer.o
 .debug_macro   0x0000b81d      0x235 src/ASF/xmega/drivers/tc/tc.o
 .debug_macro   0x0000ba52      0x302 src/ASF/xmega/drivers/tc/tc.o
 .debug_macro   0x0000bd54      0x231 src/ASF/xmega/drivers/usart/usart.o
 .debug_macro   0x0000bf85      0x382 src/edge/edge.o
 .debug_macro   0x0000c307      0x366 src/edge/edge_board.o
 .debug_macro   0x0000c66d       0x3a src/edge/edge_board.o
 .debug_macro   0x0000c6a7      0x317 src/sensors/sensors.o
 .debug_macro   0x0000c9be       0x52 src/sensors/sensors.o
 .debug_macro   0x0000ca10      0x2fb src/ASF/common/boards/user_board/init.o
 .debug_macro   0x0000cd0b      0x1eb src/ASF/common/services/clock/xmega/sysclk.o
 .debug_macro   0x0000cef6       0x26 src/ASF/common/services/clock/xmega/sysclk.o
 .debug_macro   0x0000cf1c      0x193 src/ASF/common/services/ioport/xmega/ioport_compat.o
 .debug_macro   0x0000d0af      0x1a3 src/ASF/common/services/sleepmgr/xmega/sleepmgr.o
 .debug_macro   0x0000d252      0x23f src/ASF/xmega/drivers/adc/adc.o
 .debug_macro   0x0000d491      0x23f src/ASF/xmega/drivers/adc/xmega_aau/adc_aau.o
 .debug_macro   0x0000d6d0      0x398 src/main.o
 .debug_macro   0x0000da68       0x10 src/main.o
OUTPUT(Node.elf elf32-avr)
LOAD linker stubs
